
app_demo.elf:     file format elf32-littleriscv
app_demo.elf
architecture: riscv:rv32, flags 0x00000112:
EXEC_P, HAS_SYMS, D_PAGED
start address 0x00010000

Program Header:
    LOAD off    0x00001000 vaddr 0x00010000 paddr 0x00010000 align 2**12
         filesz 0x00005502 memsz 0x0002e610 flags rwx

Sections:
Idx Name                       Size      VMA       LMA       File off  Algn  Flags
  0 .init                      00000078  00010000  00010000  00001000  2**0  CONTENTS, ALLOC, LOAD, READONLY, CODE
  1 .text                      00004ff0  00010078  00010078  00001078  2**2  CONTENTS, ALLOC, LOAD, READONLY, CODE
  2 .sdata2._global_impure_ptr 00000004  00015068  00015068  00006068  2**2  CONTENTS, ALLOC, LOAD, READONLY, DATA
  3 .lalign                    00000000  0001506c  0001506c  00006502  2**0  CONTENTS
  4 .dalign                    00000000  0001506c  0001506c  00006502  2**0  CONTENTS
  5 .data                      00000496  0001506c  0001506c  0000606c  2**2  CONTENTS, ALLOC, LOAD, DATA
  6 .bss                       00000100  00015504  00015504  00006502  2**2  ALLOC
  7 .heap                      00019000  00015604  00015604  00006502  2**0  ALLOC
  8 .stack                     00010000  0002e610  0002e610  00006502  2**4  ALLOC
  9 .debug_info                0000a7c5  00000000  00000000  00006502  2**0  CONTENTS, READONLY, DEBUGGING
 10 .debug_abbrev              00001e78  00000000  00000000  00010cc7  2**0  CONTENTS, READONLY, DEBUGGING
 11 .debug_aranges             00000550  00000000  00000000  00012b40  2**3  CONTENTS, READONLY, DEBUGGING
 12 .debug_ranges              00000430  00000000  00000000  00013090  2**0  CONTENTS, READONLY, DEBUGGING
 13 .debug_line                0000619c  00000000  00000000  000134c0  2**0  CONTENTS, READONLY, DEBUGGING
 14 .debug_str                 00001aa5  00000000  00000000  0001965c  2**0  CONTENTS, READONLY, DEBUGGING
 15 .comment                   00000033  00000000  00000000  0001b101  2**0  CONTENTS, READONLY
 16 .debug_frame               00001c2c  00000000  00000000  0001b134  2**2  CONTENTS, READONLY, DEBUGGING
SYMBOL TABLE:
00010000 l    d  .init	00000000 .init
00010078 l    d  .text	00000000 .text
00015068 l    d  .sdata2._global_impure_ptr	00000000 .sdata2._global_impure_ptr
0001506c l    d  .lalign	00000000 .lalign
0001506c l    d  .dalign	00000000 .dalign
0001506c l    d  .data	00000000 .data
00015504 l    d  .bss	00000000 .bss
00015604 l    d  .heap	00000000 .heap
0002e610 l    d  .stack	00000000 .stack
00000000 l    d  .debug_info	00000000 .debug_info
00000000 l    d  .debug_abbrev	00000000 .debug_abbrev
00000000 l    d  .debug_aranges	00000000 .debug_aranges
00000000 l    d  .debug_ranges	00000000 .debug_ranges
00000000 l    d  .debug_line	00000000 .debug_line
00000000 l    d  .debug_str	00000000 .debug_str
00000000 l    d  .comment	00000000 .comment
00000000 l    d  .debug_frame	00000000 .debug_frame
00000000 l    df *ABS*	00000000 ./src/Bsp/Core/start.o
0001006c l       .init	00000000 mainDone
00000000 l    df *ABS*	00000000 main.c
00000000 l    df *ABS*	00000000 close.c
000100a4 l     F .text	00000024 _stub
00000000 l    df *ABS*	00000000 fstat.c
000100fc l     F .text	00000024 _stub
00000000 l    df *ABS*	00000000 isatty.c
00000000 l    df *ABS*	00000000 lseek.c
000101c0 l     F .text	00000024 _stub
00000000 l    df *ABS*	00000000 read.c
00010238 l     F .text	00000024 _stub
00000000 l    df *ABS*	00000000 sbrk.c
000154e8 l     O .data	00000004 curbrk.1526
00000000 l    df *ABS*	00000000 write.c
00010324 l     F .text	00000024 _stub
00000000 l    df *ABS*	00000000 hme_gpio.c
00010fa0 l     F .text	00000074 PlicGpioHandle
00010ec8 l     F .text	00000068 GpioIntrStateGet
00010f30 l     F .text	00000070 GpioIntrStateClear
00011014 l     F .text	00000094 GpioIntrDispatch
000110a8 l     F .text	00000034 GpioIntrExecute
00000000 l    df *ABS*	00000000 hme_plic.c
00015510 l     O .bss	0000009c astPlicReg
000153b4 l     O .data	000000d0 astDevParam
000110dc l     F .text	00000034 PlicClaimGet
00011110 l     F .text	00000034 PlicFinishNotice
00011ad0 l     F .text	00000030 PlicErrExcute
00000000 l    df *ABS*	00000000 hme_timer.c
00011f18 l     F .text	00000044 PlicMachineTimerHandle
00000000 l    df *ABS*	00000000 hme_uart.c
0001281c l     F .text	00000060 PlicUartHandle
0001287c l     F .text	00000094 UartIntrDispatch
00012910 l     F .text	00000030 UartIntrRecvErr
00012940 l     F .text	00000260 UartIntrRecvExc
00012ba0 l     F .text	00000068 UartIntrRecvTimeOut
00012c08 l     F .text	00000030 UartIntrSendExc
00012c38 l     F .text	00000030 UartIntrModemExc
00000000 l    df *ABS*	00000000 system.c
00000000 l    df *ABS*	00000000 trap_handle.c
00000000 l    df *ABS*	00000000 fflush.c
00000000 l    df *ABS*	00000000 findfp.c
0001363c l     F .text	00000088 std
00000000 l    df *ABS*	00000000 fwalk.c
00000000 l    df *ABS*	00000000 init.c
00000000 l    df *ABS*	00000000 nano-mallocr.c
00000000 l    df *ABS*	00000000 nano-mallocr.c
00000000 l    df *ABS*	00000000 printf.c
00000000 l    df *ABS*	00000000 puts.c
00000000 l    df *ABS*	00000000 sbrkr.c
00000000 l    df *ABS*	00000000 stdio.c
00000000 l    df *ABS*	00000000 sysisatty.c
00000000 l    df *ABS*	00000000 wbuf.c
00000000 l    df *ABS*	00000000 writer.c
00000000 l    df *ABS*	00000000 wsetup.c
00000000 l    df *ABS*	00000000 closer.c
00000000 l    df *ABS*	00000000 lseekr.c
00000000 l    df *ABS*	00000000 makebuf.c
00000000 l    df *ABS*	00000000 mlock.c
00000000 l    df *ABS*	00000000 nano-vfprintf.c
00014560 l     F .text	0000003c __sfputc_r
00000000 l    df *ABS*	00000000 nano-vfprintf_i.c
00000000 l    df *ABS*	00000000 readr.c
00000000 l    df *ABS*	00000000 fstatr.c
00000000 l    df *ABS*	00000000 isattyr.c
00000000 l    df *ABS*	00000000 memchr.c
00000000 l    df *ABS*	00000000 impure.c
00015484 l     O .data	00000060 impure_data
00000000 l    df *ABS*	00000000 reent.c
00000000 l    df *ABS*	00000000 
0001506c l       .sdata2._global_impure_ptr	00000000 __init_array_end
0001506c l       .sdata2._global_impure_ptr	00000000 __preinit_array_end
0001506c l       .sdata2._global_impure_ptr	00000000 __init_array_start
0001506c l       .sdata2._global_impure_ptr	00000000 __preinit_array_start
00014ff8 g     F .text	0000004c _isatty_r
00013d38 g     F .text	00000160 _puts_r
00014388 g     F .text	00000054 _lseek_r
00012724 g     F .text	0000007c UartIntrCfg
000155e8 g     O .bss	00000018 stGpioObj
0001233c g     F .text	0000007c UartTranModeCfg
00011f5c g     F .text	000000e4 UartStructDeInit
00013cbc g     F .text	0000007c printf
000121fc g     F .text	00000090 UartDivAccessClear
00013fcc g     F .text	00000058 __sseek
0001373c g     F .text	000000b4 __sinit
00014030 g     F .text	00000138 __swbuf_r
00011ca4 g     F .text	0000015c MachineTimerCmpAdjuct
000136d0 g     F .text	0000006c __sfmoreglue
0001455c g     F .text	00000004 __malloc_unlock
000124b0 g     F .text	00000074 UartLineStatusGet
000154f0 g     O .data	00000004 imgAddrRd
000154ec g     O .data	00000004 imgAddr
00012684 g     F .text	000000a0 UartByteSend
00013380 g     F .text	00000030 assert_failed
00014fa8 g     F .text	00000050 _fstat_r
00015600 g     O .bss	00000004 errno
00010000 g       *ABS*	00000000 __stack_size
000155ac g     O .bss	00000024 stUartObj
00010b50 g     F .text	000002d8 GpioBitsIntrCfg
000127a0 g     F .text	0000007c UartIntrIDGet
000136c4 g     F .text	0000000c _cleanup_r
00012040 g     F .text	0000012c UartObjConfigInit
00010984 g     F .text	000001cc GpioBitsDebounceCfg
00013e98 g     F .text	00000014 puts
0003e610 g       .stack	00000000 __freertos_irq_stack_top
0001402c g     F .text	00000004 isatty
00010120 g     F .text	0000005c _fstat
00011740 g     F .text	00000028 PlicThresholdGet
00013eac g     F .text	0000004c _sbrk_r
00014f54 g     F .text	00000054 _read_r
00011e90 g     F .text	00000088 MachineTimerCtrllerCmpSet
000130f4 g     F .text	0000028c UartIntrTest
0002e604 g       .heap	00000000 _heap_end
0001017c g     F .text	00000044 _isatty
000116a8 g     F .text	00000024 PlicEnableGet
00015068 g     O .sdata2._global_impure_ptr	00000004 _global_impure_ptr
00013994 g     F .text	000000a4 __libc_init_array
00012f1c g     F .text	00000044 TrapInit
00010298 g     F .text	0000008c _sbrk
000118dc g     F .text	000001f4 ExternalInterruptExcute
00010074 g       .init	00000000 _init
00011230 g     F .text	000000ec DevPriorityOffsetTableGet
0001228c g     F .text	000000b0 UartBaudDivCfg
0001304c g     F .text	00000054 load_image
00015604 g       .heap	00000000 _heap_start
00011658 g     F .text	00000050 PlicEnableSet
00011550 g     F .text	00000108 IntrPriorityGet
00019000 g       *ABS*	00000000 __heap_size
00015318 g     O .data	00000020 __sf_fake_stderr
00012594 g     F .text	00000074 UartModemStatusGet
0001459c g     F .text	00000074 __sfputs_r
00015044 g     F .text	00000024 memchr
00013a54 g     F .text	0000010c _free_r
0003e610 g       .stack	00000000 _sp
00010000 g     F .init	00000000 _start
000101e4 g     F .text	00000054 _lseek
0001216c g     F .text	00000090 UartDivAccessSet
00012434 g     F .text	0000007c UartOscCfg
0001433c g     F .text	0000004c _close_r
00011b8c g     F .text	00000118 MachineTimerObjConfigInit
000106e4 g     F .text	00000078 GpioBitsDoutSet
000141bc g     F .text	00000180 __swsetup_r
000137f0 g     F .text	000000f0 __sfp
00013ef8 g     F .text	00000050 __sread
00014558 g     F .text	00000004 __malloc_lock
00011144 g     F .text	000000ec DevIntrIdTableGet
0001359c g     F .text	000000a0 _fflush_r
00015505 g     O .bss	00000001 rd_flag
00015338 g     O .data	00000020 __sf_fake_stdin
00015504 g       .bss	00000000 __bss_start
00013a38 g     F .text	0000001c memset
00010078 g     F .text	0000002c main
000130a0 g     F .text	00000054 soft_rstn
00012cb8 g       .text	00000000 trap_entry
0001075c g     F .text	00000078 GpioBitsDoutClear
00014024 g     F .text	00000008 __sclose
0001131c g     F .text	000000ec DevIntrEnTableGet
00013b60 g     F .text	0000015c _malloc_r
00012f60 g     F .text	000000ec trap
00011e48 g     F .text	00000048 MachineTimerCtrllerCurTimeHGet
00011e00 g     F .text	00000048 MachineTimerCtrllerCurTimeLGet
00012dfc g     F .text	00000100 TimerInterruptExcute
00013cbc g     F .text	0000007c iprintf
00011408 g     F .text	00000148 IntrPrioritySet
00014168 g     F .text	00000054 _write_r
000149d8 g     F .text	000001b0 _printf_common
000154f4 g     O .data	00000004 _impure_ptr
000133b0 g     F .text	000001ec __sflush_r
00012608 g     F .text	0000007c UartScratchCfg
00011b00 g     F .text	0000008c MachineTimerObjStructDeInit
0001506c g       .dalign	00000000 _data
000107d4 g     F .text	000001b0 GpioBitsPullCfg
00012efc g     F .text	00000020 ExceptionHandleExcute
000143dc g     F .text	0000008c __swhatbuf_r
00010348 g     F .text	000000cc _write
00015504 g       .bss	00000000 _edata
00015608 g       .bss	00000000 _end
000105e4 g     F .text	00000100 GpioBitsDirCfg
0001506c g       .lalign	00000000 _data_lma
00012db8 g     F .text	00000044 SoftwareInterruptExcute
00013f48 g     F .text	00000084 __swrite
00015604 g       .heap	00000000 _heap
00014610 g     F .text	000003c8 _vfiprintf_r
000138e0 g     F .text	000000b4 _fwalk_reent
00015358 g     O .data	00000020 __sf_fake_stdout
0001025c g     F .text	0000003c _read
00011768 g     F .text	00000174 PlicIntrHandleRegister
00010e28 g     F .text	000000a0 GpioBitsIntrDisable
00014468 g     F .text	000000f0 __smakebuf_r
00014b88 g     F .text	000003cc _printf_i
000155d0 g     O .bss	00000018 stTimerObj
0001550c g     O .bss	00000004 __malloc_sbrk_start
00010414 g     F .text	000000bc GpioStructDeInit
00015508 g     O .bss	00000004 __malloc_free_list
00012524 g     F .text	00000070 UartModemCtrlCfg
000123b8 g     F .text	0000007c UartFifoCfg
00014610 g     F .text	000003c8 _vfprintf_r
00012c68 g     F .text	00000050 DelayUs
000116cc g     F .text	00000074 PlicThresholdSet
000104d0 g     F .text	00000114 GpioObjConfigInit
00015504 g     O .bss	00000001 wr_flag
000100c8 g     F .text	00000034 _close



Disassembly of section .init:

00010000 <_start>:
_start():
D:\CreateIC\01_CPIPC\riscv\RISCV_ENC_20220421\Firmware_true\app_prj\app_demo\Debug/../src/Bsp/Core/start.S:12
.option push
.option norelax
	la gp, __global_pointer$
.option pop
#endif
	la sp, _sp
   10000:	0002e117          	auipc	sp,0x2e
   10004:	61010113          	addi	sp,sp,1552 # 3e610 <__freertos_irq_stack_top>
D:\CreateIC\01_CPIPC\riscv\RISCV_ENC_20220421\Firmware_true\app_prj\app_demo\Debug/../src/Bsp/Core/start.S:15

	/* Load data section */
	la a0, _data_lma
   10008:	00005517          	auipc	a0,0x5
   1000c:	06450513          	addi	a0,a0,100 # 1506c <__init_array_end>
D:\CreateIC\01_CPIPC\riscv\RISCV_ENC_20220421\Firmware_true\app_prj\app_demo\Debug/../src/Bsp/Core/start.S:16
	la a1, _data
   10010:	00005597          	auipc	a1,0x5
   10014:	05c58593          	addi	a1,a1,92 # 1506c <__init_array_end>
D:\CreateIC\01_CPIPC\riscv\RISCV_ENC_20220421\Firmware_true\app_prj\app_demo\Debug/../src/Bsp/Core/start.S:17
	la a2, _edata
   10018:	00005617          	auipc	a2,0x5
   1001c:	4ec60613          	addi	a2,a2,1260 # 15504 <wr_flag>
D:\CreateIC\01_CPIPC\riscv\RISCV_ENC_20220421\Firmware_true\app_prj\app_demo\Debug/../src/Bsp/Core/start.S:18
	bgeu a1, a2, 2f
   10020:	00c5fc63          	bgeu	a1,a2,10038 <_start+0x38>
D:\CreateIC\01_CPIPC\riscv\RISCV_ENC_20220421\Firmware_true\app_prj\app_demo\Debug/../src/Bsp/Core/start.S:20
1:
	lw t0, (a0)
   10024:	00052283          	lw	t0,0(a0)
D:\CreateIC\01_CPIPC\riscv\RISCV_ENC_20220421\Firmware_true\app_prj\app_demo\Debug/../src/Bsp/Core/start.S:21
	sw t0, (a1)
   10028:	0055a023          	sw	t0,0(a1)
D:\CreateIC\01_CPIPC\riscv\RISCV_ENC_20220421\Firmware_true\app_prj\app_demo\Debug/../src/Bsp/Core/start.S:22
	addi a0, a0, 4
   1002c:	00450513          	addi	a0,a0,4
D:\CreateIC\01_CPIPC\riscv\RISCV_ENC_20220421\Firmware_true\app_prj\app_demo\Debug/../src/Bsp/Core/start.S:23
	addi a1, a1, 4
   10030:	00458593          	addi	a1,a1,4
D:\CreateIC\01_CPIPC\riscv\RISCV_ENC_20220421\Firmware_true\app_prj\app_demo\Debug/../src/Bsp/Core/start.S:24
	bltu a1, a2, 1b
   10034:	fec5e8e3          	bltu	a1,a2,10024 <_start+0x24>
D:\CreateIC\01_CPIPC\riscv\RISCV_ENC_20220421\Firmware_true\app_prj\app_demo\Debug/../src/Bsp/Core/start.S:28
2:

	/* Clear bss section */
	la a0, __bss_start
   10038:	00005517          	auipc	a0,0x5
   1003c:	4cc50513          	addi	a0,a0,1228 # 15504 <wr_flag>
D:\CreateIC\01_CPIPC\riscv\RISCV_ENC_20220421\Firmware_true\app_prj\app_demo\Debug/../src/Bsp/Core/start.S:29
	la a1, _end
   10040:	00005597          	auipc	a1,0x5
   10044:	5c858593          	addi	a1,a1,1480 # 15608 <_end>
D:\CreateIC\01_CPIPC\riscv\RISCV_ENC_20220421\Firmware_true\app_prj\app_demo\Debug/../src/Bsp/Core/start.S:30
	bgeu a0, a1, 2f
   10048:	00b57863          	bgeu	a0,a1,10058 <_start+0x58>
D:\CreateIC\01_CPIPC\riscv\RISCV_ENC_20220421\Firmware_true\app_prj\app_demo\Debug/../src/Bsp/Core/start.S:32
1:
	sw zero, (a0)
   1004c:	00052023          	sw	zero,0(a0)
D:\CreateIC\01_CPIPC\riscv\RISCV_ENC_20220421\Firmware_true\app_prj\app_demo\Debug/../src/Bsp/Core/start.S:33
	addi a0, a0, 4
   10050:	00450513          	addi	a0,a0,4
D:\CreateIC\01_CPIPC\riscv\RISCV_ENC_20220421\Firmware_true\app_prj\app_demo\Debug/../src/Bsp/Core/start.S:34
	bltu a0, a1, 1b
   10054:	feb56ce3          	bltu	a0,a1,1004c <_start+0x4c>
D:\CreateIC\01_CPIPC\riscv\RISCV_ENC_20220421\Firmware_true\app_prj\app_demo\Debug/../src/Bsp/Core/start.S:36
2:
	la t0, trap_entry
   10058:	00003297          	auipc	t0,0x3
   1005c:	c6028293          	addi	t0,t0,-928 # 12cb8 <trap_entry>
D:\CreateIC\01_CPIPC\riscv\RISCV_ENC_20220421\Firmware_true\app_prj\app_demo\Debug/../src/Bsp/Core/start.S:37
	csrw mtvec, t0
   10060:	30529073          	csrw	mtvec,t0
D:\CreateIC\01_CPIPC\riscv\RISCV_ENC_20220421\Firmware_true\app_prj\app_demo\Debug/../src/Bsp/Core/start.S:39

	call __libc_init_array
   10064:	131030ef          	jal	ra,13994 <__libc_init_array>
D:\CreateIC\01_CPIPC\riscv\RISCV_ENC_20220421\Firmware_true\app_prj\app_demo\Debug/../src/Bsp/Core/start.S:40
	call main
   10068:	010000ef          	jal	ra,10078 <main>

0001006c <mainDone>:
mainDone():
D:\CreateIC\01_CPIPC\riscv\RISCV_ENC_20220421\Firmware_true\app_prj\app_demo\Debug/../src/Bsp/Core/start.S:42
mainDone:
    j mainDone
   1006c:	0000006f          	j	1006c <mainDone>
D:\CreateIC\01_CPIPC\riscv\RISCV_ENC_20220421\Firmware_true\app_prj\app_demo\Debug/../src/Bsp/Core/start.S:46

    .weak trap_entry
trap_entry:
 1:	j 1b
   10070:	0000006f          	j	10070 <mainDone+0x4>

00010074 <_init>:
_init():
D:\CreateIC\01_CPIPC\riscv\RISCV_ENC_20220421\Firmware_true\app_prj\app_demo\Debug/../src/Bsp/Core/start.S:50

 	.globl _init
_init:
    ret
   10074:	00008067          	ret

Disassembly of section .text:

00010078 <main>:
main():
D:\CreateIC\01_CPIPC\riscv\RISCV_ENC_20220421\Firmware_true\app_prj\app_demo\Debug/../src/main.c:63
    DelayUs(10);
    GpioBitsDoutClear(&stGpioObj);
}

int main(void)
{
   10078:	ff010113          	addi	sp,sp,-16
   1007c:	00112623          	sw	ra,12(sp)
   10080:	00812423          	sw	s0,8(sp)
   10084:	01010413          	addi	s0,sp,16
D:\CreateIC\01_CPIPC\riscv\RISCV_ENC_20220421\Firmware_true\app_prj\app_demo\Debug/../src/main.c:67
//	MainTest();


	UartIntrTest();
   10088:	06c030ef          	jal	ra,130f4 <UartIntrTest>
   1008c:	00000793          	li	a5,0
D:\CreateIC\01_CPIPC\riscv\RISCV_ENC_20220421\Firmware_true\app_prj\app_demo\Debug/../src/main.c:70


}
   10090:	00078513          	mv	a0,a5
   10094:	00c12083          	lw	ra,12(sp)
   10098:	00812403          	lw	s0,8(sp)
   1009c:	01010113          	addi	sp,sp,16
   100a0:	00008067          	ret

000100a4 <_stub>:
_stub():
D:\CreateIC\01_CPIPC\riscv\RISCV_ENC_20220421\Firmware_true\app_prj\app_demo\Debug/../src/Bsp/libwrap/sys/stub.h:6
/* See LICENSE of license details. */
#ifndef _SIFIVE_SYS_STUB_H
#define _SIFIVE_SYS_STUB_H

static inline int _stub(int err)
{
   100a4:	fe010113          	addi	sp,sp,-32
   100a8:	00812e23          	sw	s0,28(sp)
   100ac:	02010413          	addi	s0,sp,32
   100b0:	fea42623          	sw	a0,-20(s0)
D:\CreateIC\01_CPIPC\riscv\RISCV_ENC_20220421\Firmware_true\app_prj\app_demo\Debug/../src/Bsp/libwrap/sys/stub.h:7
  return -1;
   100b4:	fff00793          	li	a5,-1
D:\CreateIC\01_CPIPC\riscv\RISCV_ENC_20220421\Firmware_true\app_prj\app_demo\Debug/../src/Bsp/libwrap/sys/stub.h:8
}
   100b8:	00078513          	mv	a0,a5
   100bc:	01c12403          	lw	s0,28(sp)
   100c0:	02010113          	addi	sp,sp,32
   100c4:	00008067          	ret

000100c8 <_close>:
_close():
D:\CreateIC\01_CPIPC\riscv\RISCV_ENC_20220421\Firmware_true\app_prj\app_demo\Debug/../src/Bsp/libwrap/sys/close.c:7

#include <errno.h>
#include "stub.h"

int _close(int fd)
{
   100c8:	fe010113          	addi	sp,sp,-32
   100cc:	00112e23          	sw	ra,28(sp)
   100d0:	00812c23          	sw	s0,24(sp)
   100d4:	02010413          	addi	s0,sp,32
   100d8:	fea42623          	sw	a0,-20(s0)
D:\CreateIC\01_CPIPC\riscv\RISCV_ENC_20220421\Firmware_true\app_prj\app_demo\Debug/../src/Bsp/libwrap/sys/close.c:8
  return _stub(EBADF);
   100dc:	00900513          	li	a0,9
   100e0:	fc5ff0ef          	jal	ra,100a4 <_stub>
   100e4:	00050793          	mv	a5,a0
D:\CreateIC\01_CPIPC\riscv\RISCV_ENC_20220421\Firmware_true\app_prj\app_demo\Debug/../src/Bsp/libwrap/sys/close.c:9
}
   100e8:	00078513          	mv	a0,a5
   100ec:	01c12083          	lw	ra,28(sp)
   100f0:	01812403          	lw	s0,24(sp)
   100f4:	02010113          	addi	sp,sp,32
   100f8:	00008067          	ret

000100fc <_stub>:
_stub():
D:\CreateIC\01_CPIPC\riscv\RISCV_ENC_20220421\Firmware_true\app_prj\app_demo\Debug/../src/Bsp/libwrap/sys/stub.h:6
{
   100fc:	fe010113          	addi	sp,sp,-32
   10100:	00812e23          	sw	s0,28(sp)
   10104:	02010413          	addi	s0,sp,32
   10108:	fea42623          	sw	a0,-20(s0)
D:\CreateIC\01_CPIPC\riscv\RISCV_ENC_20220421\Firmware_true\app_prj\app_demo\Debug/../src/Bsp/libwrap/sys/stub.h:7
  return -1;
   1010c:	fff00793          	li	a5,-1
D:\CreateIC\01_CPIPC\riscv\RISCV_ENC_20220421\Firmware_true\app_prj\app_demo\Debug/../src/Bsp/libwrap/sys/stub.h:8
}
   10110:	00078513          	mv	a0,a5
   10114:	01c12403          	lw	s0,28(sp)
   10118:	02010113          	addi	sp,sp,32
   1011c:	00008067          	ret

00010120 <_fstat>:
_fstat():
D:\CreateIC\01_CPIPC\riscv\RISCV_ENC_20220421\Firmware_true\app_prj\app_demo\Debug/../src/Bsp/libwrap/sys/fstat.c:9
#include <unistd.h>
#include <sys/stat.h>
#include "stub.h"

int _fstat(int fd, struct stat* st)
{
   10120:	fe010113          	addi	sp,sp,-32
   10124:	00112e23          	sw	ra,28(sp)
   10128:	00812c23          	sw	s0,24(sp)
   1012c:	02010413          	addi	s0,sp,32
   10130:	fea42623          	sw	a0,-20(s0)
   10134:	feb42423          	sw	a1,-24(s0)
D:\CreateIC\01_CPIPC\riscv\RISCV_ENC_20220421\Firmware_true\app_prj\app_demo\Debug/../src/Bsp/libwrap/sys/fstat.c:10
  if (isatty(fd)) {
   10138:	fec42503          	lw	a0,-20(s0)
   1013c:	6f1030ef          	jal	ra,1402c <isatty>
   10140:	00050793          	mv	a5,a0
   10144:	00078c63          	beqz	a5,1015c <_fstat+0x3c>
D:\CreateIC\01_CPIPC\riscv\RISCV_ENC_20220421\Firmware_true\app_prj\app_demo\Debug/../src/Bsp/libwrap/sys/fstat.c:11
    st->st_mode = S_IFCHR;
   10148:	fe842783          	lw	a5,-24(s0)
   1014c:	00002737          	lui	a4,0x2
   10150:	00e7a223          	sw	a4,4(a5)
D:\CreateIC\01_CPIPC\riscv\RISCV_ENC_20220421\Firmware_true\app_prj\app_demo\Debug/../src/Bsp/libwrap/sys/fstat.c:12
    return 0;
   10154:	00000793          	li	a5,0
   10158:	0100006f          	j	10168 <_fstat+0x48>
D:\CreateIC\01_CPIPC\riscv\RISCV_ENC_20220421\Firmware_true\app_prj\app_demo\Debug/../src/Bsp/libwrap/sys/fstat.c:15
  }

  return _stub(EBADF);
   1015c:	00900513          	li	a0,9
   10160:	f9dff0ef          	jal	ra,100fc <_stub>
   10164:	00050793          	mv	a5,a0
D:\CreateIC\01_CPIPC\riscv\RISCV_ENC_20220421\Firmware_true\app_prj\app_demo\Debug/../src/Bsp/libwrap/sys/fstat.c:16
}
   10168:	00078513          	mv	a0,a5
   1016c:	01c12083          	lw	ra,28(sp)
   10170:	01812403          	lw	s0,24(sp)
   10174:	02010113          	addi	sp,sp,32
   10178:	00008067          	ret

0001017c <_isatty>:
_isatty():
D:\CreateIC\01_CPIPC\riscv\RISCV_ENC_20220421\Firmware_true\app_prj\app_demo\Debug/../src/Bsp/libwrap/sys/isatty.c:6
/* See LICENSE of license details. */

#include <unistd.h>

int _isatty(int fd)
{
   1017c:	fe010113          	addi	sp,sp,-32
   10180:	00812e23          	sw	s0,28(sp)
   10184:	02010413          	addi	s0,sp,32
   10188:	fea42623          	sw	a0,-20(s0)
D:\CreateIC\01_CPIPC\riscv\RISCV_ENC_20220421\Firmware_true\app_prj\app_demo\Debug/../src/Bsp/libwrap/sys/isatty.c:7
  if (fd == STDOUT_FILENO || fd == STDERR_FILENO)
   1018c:	fec42703          	lw	a4,-20(s0)
   10190:	00100793          	li	a5,1
   10194:	00f70863          	beq	a4,a5,101a4 <_isatty+0x28>
D:\CreateIC\01_CPIPC\riscv\RISCV_ENC_20220421\Firmware_true\app_prj\app_demo\Debug/../src/Bsp/libwrap/sys/isatty.c:7 (discriminator 1)
   10198:	fec42703          	lw	a4,-20(s0)
   1019c:	00200793          	li	a5,2
   101a0:	00f71663          	bne	a4,a5,101ac <_isatty+0x30>
D:\CreateIC\01_CPIPC\riscv\RISCV_ENC_20220421\Firmware_true\app_prj\app_demo\Debug/../src/Bsp/libwrap/sys/isatty.c:8
    return 1;
   101a4:	00100793          	li	a5,1
   101a8:	0080006f          	j	101b0 <_isatty+0x34>
D:\CreateIC\01_CPIPC\riscv\RISCV_ENC_20220421\Firmware_true\app_prj\app_demo\Debug/../src/Bsp/libwrap/sys/isatty.c:10

  return 0;
   101ac:	00000793          	li	a5,0
D:\CreateIC\01_CPIPC\riscv\RISCV_ENC_20220421\Firmware_true\app_prj\app_demo\Debug/../src/Bsp/libwrap/sys/isatty.c:11
}
   101b0:	00078513          	mv	a0,a5
   101b4:	01c12403          	lw	s0,28(sp)
   101b8:	02010113          	addi	sp,sp,32
   101bc:	00008067          	ret

000101c0 <_stub>:
_stub():
D:\CreateIC\01_CPIPC\riscv\RISCV_ENC_20220421\Firmware_true\app_prj\app_demo\Debug/../src/Bsp/libwrap/sys/stub.h:6
{
   101c0:	fe010113          	addi	sp,sp,-32
   101c4:	00812e23          	sw	s0,28(sp)
   101c8:	02010413          	addi	s0,sp,32
   101cc:	fea42623          	sw	a0,-20(s0)
D:\CreateIC\01_CPIPC\riscv\RISCV_ENC_20220421\Firmware_true\app_prj\app_demo\Debug/../src/Bsp/libwrap/sys/stub.h:7
  return -1;
   101d0:	fff00793          	li	a5,-1
D:\CreateIC\01_CPIPC\riscv\RISCV_ENC_20220421\Firmware_true\app_prj\app_demo\Debug/../src/Bsp/libwrap/sys/stub.h:8
}
   101d4:	00078513          	mv	a0,a5
   101d8:	01c12403          	lw	s0,28(sp)
   101dc:	02010113          	addi	sp,sp,32
   101e0:	00008067          	ret

000101e4 <_lseek>:
_lseek():
D:\CreateIC\01_CPIPC\riscv\RISCV_ENC_20220421\Firmware_true\app_prj\app_demo\Debug/../src/Bsp/libwrap/sys/lseek.c:9
#include <unistd.h>
#include <sys/types.h>
#include "stub.h"

off_t _lseek(int fd, off_t ptr, int dir)
{
   101e4:	fe010113          	addi	sp,sp,-32
   101e8:	00112e23          	sw	ra,28(sp)
   101ec:	00812c23          	sw	s0,24(sp)
   101f0:	02010413          	addi	s0,sp,32
   101f4:	fea42623          	sw	a0,-20(s0)
   101f8:	feb42423          	sw	a1,-24(s0)
   101fc:	fec42223          	sw	a2,-28(s0)
D:\CreateIC\01_CPIPC\riscv\RISCV_ENC_20220421\Firmware_true\app_prj\app_demo\Debug/../src/Bsp/libwrap/sys/lseek.c:10
  if (isatty(fd))
   10200:	fec42503          	lw	a0,-20(s0)
   10204:	629030ef          	jal	ra,1402c <isatty>
   10208:	00050793          	mv	a5,a0
   1020c:	00078663          	beqz	a5,10218 <_lseek+0x34>
D:\CreateIC\01_CPIPC\riscv\RISCV_ENC_20220421\Firmware_true\app_prj\app_demo\Debug/../src/Bsp/libwrap/sys/lseek.c:11
    return 0;
   10210:	00000793          	li	a5,0
   10214:	0100006f          	j	10224 <_lseek+0x40>
D:\CreateIC\01_CPIPC\riscv\RISCV_ENC_20220421\Firmware_true\app_prj\app_demo\Debug/../src/Bsp/libwrap/sys/lseek.c:13

  return _stub(EBADF);
   10218:	00900513          	li	a0,9
   1021c:	fa5ff0ef          	jal	ra,101c0 <_stub>
   10220:	00050793          	mv	a5,a0
D:\CreateIC\01_CPIPC\riscv\RISCV_ENC_20220421\Firmware_true\app_prj\app_demo\Debug/../src/Bsp/libwrap/sys/lseek.c:14
}
   10224:	00078513          	mv	a0,a5
   10228:	01c12083          	lw	ra,28(sp)
   1022c:	01812403          	lw	s0,24(sp)
   10230:	02010113          	addi	sp,sp,32
   10234:	00008067          	ret

00010238 <_stub>:
_stub():
D:\CreateIC\01_CPIPC\riscv\RISCV_ENC_20220421\Firmware_true\app_prj\app_demo\Debug/../src/Bsp/libwrap/sys/stub.h:6
{
   10238:	fe010113          	addi	sp,sp,-32
   1023c:	00812e23          	sw	s0,28(sp)
   10240:	02010413          	addi	s0,sp,32
   10244:	fea42623          	sw	a0,-20(s0)
D:\CreateIC\01_CPIPC\riscv\RISCV_ENC_20220421\Firmware_true\app_prj\app_demo\Debug/../src/Bsp/libwrap/sys/stub.h:7
  return -1;
   10248:	fff00793          	li	a5,-1
D:\CreateIC\01_CPIPC\riscv\RISCV_ENC_20220421\Firmware_true\app_prj\app_demo\Debug/../src/Bsp/libwrap/sys/stub.h:8
}
   1024c:	00078513          	mv	a0,a5
   10250:	01c12403          	lw	s0,28(sp)
   10254:	02010113          	addi	sp,sp,32
   10258:	00008067          	ret

0001025c <_read>:
_read():
D:\CreateIC\01_CPIPC\riscv\RISCV_ENC_20220421\Firmware_true\app_prj\app_demo\Debug/../src/Bsp/libwrap/sys/read.c:12

#include "platform.h"
#include "stub.h"

ssize_t _read(int fd, void* ptr, size_t len)
{
   1025c:	fe010113          	addi	sp,sp,-32
   10260:	00112e23          	sw	ra,28(sp)
   10264:	00812c23          	sw	s0,24(sp)
   10268:	02010413          	addi	s0,sp,32
   1026c:	fea42623          	sw	a0,-20(s0)
   10270:	feb42423          	sw	a1,-24(s0)
   10274:	fec42223          	sw	a2,-28(s0)
D:\CreateIC\01_CPIPC\riscv\RISCV_ENC_20220421\Firmware_true\app_prj\app_demo\Debug/../src/Bsp/libwrap/sys/read.c:31
  //    result++;
  //  }
  //  return result;
  //}

  return _stub(EBADF);
   10278:	00900513          	li	a0,9
   1027c:	fbdff0ef          	jal	ra,10238 <_stub>
   10280:	00050793          	mv	a5,a0
D:\CreateIC\01_CPIPC\riscv\RISCV_ENC_20220421\Firmware_true\app_prj\app_demo\Debug/../src/Bsp/libwrap/sys/read.c:32
}
   10284:	00078513          	mv	a0,a5
   10288:	01c12083          	lw	ra,28(sp)
   1028c:	01812403          	lw	s0,24(sp)
   10290:	02010113          	addi	sp,sp,32
   10294:	00008067          	ret

00010298 <_sbrk>:
_sbrk():
D:\CreateIC\01_CPIPC\riscv\RISCV_ENC_20220421\Firmware_true\app_prj\app_demo\Debug/../src/Bsp/libwrap/sys/sbrk.c:6
/* See LICENSE of license details. */

#include <stddef.h>

void *_sbrk(ptrdiff_t incr)
{
   10298:	fe010113          	addi	sp,sp,-32
   1029c:	00812e23          	sw	s0,28(sp)
   102a0:	02010413          	addi	s0,sp,32
   102a4:	fea42623          	sw	a0,-20(s0)
D:\CreateIC\01_CPIPC\riscv\RISCV_ENC_20220421\Firmware_true\app_prj\app_demo\Debug/../src/Bsp/libwrap/sys/sbrk.c:12
  extern char _end[];
  extern char _heap_end[];

  static char *curbrk = _end;

  if ((curbrk + incr < _end) || (curbrk + incr > _heap_end))
   102a8:	000157b7          	lui	a5,0x15
   102ac:	4e87a703          	lw	a4,1256(a5) # 154e8 <curbrk.1526>
   102b0:	fec42783          	lw	a5,-20(s0)
   102b4:	00f70733          	add	a4,a4,a5
   102b8:	000157b7          	lui	a5,0x15
   102bc:	60878793          	addi	a5,a5,1544 # 15608 <_end>
   102c0:	02f76063          	bltu	a4,a5,102e0 <_sbrk+0x48>
D:\CreateIC\01_CPIPC\riscv\RISCV_ENC_20220421\Firmware_true\app_prj\app_demo\Debug/../src/Bsp/libwrap/sys/sbrk.c:12 (discriminator 1)
   102c4:	000157b7          	lui	a5,0x15
   102c8:	4e87a703          	lw	a4,1256(a5) # 154e8 <curbrk.1526>
   102cc:	fec42783          	lw	a5,-20(s0)
   102d0:	00f70733          	add	a4,a4,a5
   102d4:	0002e7b7          	lui	a5,0x2e
   102d8:	60478793          	addi	a5,a5,1540 # 2e604 <_heap_end>
   102dc:	00e7f663          	bgeu	a5,a4,102e8 <_sbrk+0x50>
D:\CreateIC\01_CPIPC\riscv\RISCV_ENC_20220421\Firmware_true\app_prj\app_demo\Debug/../src/Bsp/libwrap/sys/sbrk.c:14
  {
     return NULL - 1;
   102e0:	fff00793          	li	a5,-1
   102e4:	0300006f          	j	10314 <_sbrk+0x7c>
D:\CreateIC\01_CPIPC\riscv\RISCV_ENC_20220421\Firmware_true\app_prj\app_demo\Debug/../src/Bsp/libwrap/sys/sbrk.c:17
  }

  curbrk += incr;
   102e8:	000157b7          	lui	a5,0x15
   102ec:	4e87a703          	lw	a4,1256(a5) # 154e8 <curbrk.1526>
   102f0:	fec42783          	lw	a5,-20(s0)
   102f4:	00f70733          	add	a4,a4,a5
   102f8:	000157b7          	lui	a5,0x15
   102fc:	4ee7a423          	sw	a4,1256(a5) # 154e8 <curbrk.1526>
D:\CreateIC\01_CPIPC\riscv\RISCV_ENC_20220421\Firmware_true\app_prj\app_demo\Debug/../src/Bsp/libwrap/sys/sbrk.c:18
  return curbrk - incr;
   10300:	000157b7          	lui	a5,0x15
   10304:	4e87a703          	lw	a4,1256(a5) # 154e8 <curbrk.1526>
   10308:	fec42783          	lw	a5,-20(s0)
   1030c:	40f007b3          	neg	a5,a5
   10310:	00f707b3          	add	a5,a4,a5
D:\CreateIC\01_CPIPC\riscv\RISCV_ENC_20220421\Firmware_true\app_prj\app_demo\Debug/../src/Bsp/libwrap/sys/sbrk.c:19
}
   10314:	00078513          	mv	a0,a5
   10318:	01c12403          	lw	s0,28(sp)
   1031c:	02010113          	addi	sp,sp,32
   10320:	00008067          	ret

00010324 <_stub>:
_stub():
D:\CreateIC\01_CPIPC\riscv\RISCV_ENC_20220421\Firmware_true\app_prj\app_demo\Debug/../src/Bsp/libwrap/sys/stub.h:6
{
   10324:	fe010113          	addi	sp,sp,-32
   10328:	00812e23          	sw	s0,28(sp)
   1032c:	02010413          	addi	s0,sp,32
   10330:	fea42623          	sw	a0,-20(s0)
D:\CreateIC\01_CPIPC\riscv\RISCV_ENC_20220421\Firmware_true\app_prj\app_demo\Debug/../src/Bsp/libwrap/sys/stub.h:7
  return -1;
   10334:	fff00793          	li	a5,-1
D:\CreateIC\01_CPIPC\riscv\RISCV_ENC_20220421\Firmware_true\app_prj\app_demo\Debug/../src/Bsp/libwrap/sys/stub.h:8
}
   10338:	00078513          	mv	a0,a5
   1033c:	01c12403          	lw	s0,28(sp)
   10340:	02010113          	addi	sp,sp,32
   10344:	00008067          	ret

00010348 <_write>:
_write():
D:\CreateIC\01_CPIPC\riscv\RISCV_ENC_20220421\Firmware_true\app_prj\app_demo\Debug/../src/Bsp/libwrap/sys/write.c:14
#include "stub.h"

extern ST_UART_ATTR  stUartObj;

ssize_t _write(int fd, const void* ptr, size_t len)
{
   10348:	fd010113          	addi	sp,sp,-48
   1034c:	02112623          	sw	ra,44(sp)
   10350:	02812423          	sw	s0,40(sp)
   10354:	03010413          	addi	s0,sp,48
   10358:	fca42e23          	sw	a0,-36(s0)
   1035c:	fcb42c23          	sw	a1,-40(s0)
   10360:	fcc42a23          	sw	a2,-44(s0)
D:\CreateIC\01_CPIPC\riscv\RISCV_ENC_20220421\Firmware_true\app_prj\app_demo\Debug/../src/Bsp/libwrap/sys/write.c:15
  const uint8_t * current = (const char *)ptr;
   10364:	fd842783          	lw	a5,-40(s0)
   10368:	fef42423          	sw	a5,-24(s0)
D:\CreateIC\01_CPIPC\riscv\RISCV_ENC_20220421\Firmware_true\app_prj\app_demo\Debug/../src/Bsp/libwrap/sys/write.c:16
  uint32_t Data_len = len;
   1036c:	fd442783          	lw	a5,-44(s0)
   10370:	fef42223          	sw	a5,-28(s0)
D:\CreateIC\01_CPIPC\riscv\RISCV_ENC_20220421\Firmware_true\app_prj\app_demo\Debug/../src/Bsp/libwrap/sys/write.c:18

  if (isatty(fd))
   10374:	fdc42503          	lw	a0,-36(s0)
   10378:	4b5030ef          	jal	ra,1402c <isatty>
   1037c:	00050793          	mv	a5,a0
   10380:	06078a63          	beqz	a5,103f4 <_write+0xac>
D:\CreateIC\01_CPIPC\riscv\RISCV_ENC_20220421\Firmware_true\app_prj\app_demo\Debug/../src/Bsp/libwrap/sys/write.c:20
  {
    for (size_t jj = 0; jj < len; jj++)
   10384:	fe042623          	sw	zero,-20(s0)
   10388:	0580006f          	j	103e0 <_write+0x98>
D:\CreateIC\01_CPIPC\riscv\RISCV_ENC_20220421\Firmware_true\app_prj\app_demo\Debug/../src/Bsp/libwrap/sys/write.c:22
    {
    	  UartByteSend(&stUartObj, current[jj]);
   1038c:	fe842703          	lw	a4,-24(s0)
   10390:	fec42783          	lw	a5,-20(s0)
   10394:	00f707b3          	add	a5,a4,a5
   10398:	0007c783          	lbu	a5,0(a5)
   1039c:	00078593          	mv	a1,a5
   103a0:	000157b7          	lui	a5,0x15
   103a4:	5ac78513          	addi	a0,a5,1452 # 155ac <stUartObj>
   103a8:	2dc020ef          	jal	ra,12684 <UartByteSend>
D:\CreateIC\01_CPIPC\riscv\RISCV_ENC_20220421\Firmware_true\app_prj\app_demo\Debug/../src/Bsp/libwrap/sys/write.c:23
          if (current[jj] == '\n')
   103ac:	fe842703          	lw	a4,-24(s0)
   103b0:	fec42783          	lw	a5,-20(s0)
   103b4:	00f707b3          	add	a5,a4,a5
   103b8:	0007c703          	lbu	a4,0(a5)
   103bc:	00a00793          	li	a5,10
   103c0:	00f71a63          	bne	a4,a5,103d4 <_write+0x8c>
D:\CreateIC\01_CPIPC\riscv\RISCV_ENC_20220421\Firmware_true\app_prj\app_demo\Debug/../src/Bsp/libwrap/sys/write.c:25
          {
    	      UartByteSend(&stUartObj, '\r');
   103c4:	00d00593          	li	a1,13
   103c8:	000157b7          	lui	a5,0x15
   103cc:	5ac78513          	addi	a0,a5,1452 # 155ac <stUartObj>
   103d0:	2b4020ef          	jal	ra,12684 <UartByteSend>
D:\CreateIC\01_CPIPC\riscv\RISCV_ENC_20220421\Firmware_true\app_prj\app_demo\Debug/../src/Bsp/libwrap/sys/write.c:20 (discriminator 2)
    for (size_t jj = 0; jj < len; jj++)
   103d4:	fec42783          	lw	a5,-20(s0)
   103d8:	00178793          	addi	a5,a5,1
   103dc:	fef42623          	sw	a5,-20(s0)
D:\CreateIC\01_CPIPC\riscv\RISCV_ENC_20220421\Firmware_true\app_prj\app_demo\Debug/../src/Bsp/libwrap/sys/write.c:20 (discriminator 1)
   103e0:	fec42703          	lw	a4,-20(s0)
   103e4:	fd442783          	lw	a5,-44(s0)
   103e8:	faf762e3          	bltu	a4,a5,1038c <_write+0x44>
D:\CreateIC\01_CPIPC\riscv\RISCV_ENC_20220421\Firmware_true\app_prj\app_demo\Debug/../src/Bsp/libwrap/sys/write.c:28
          }
    }
    return len;
   103ec:	fd442783          	lw	a5,-44(s0)
   103f0:	0100006f          	j	10400 <_write+0xb8>
D:\CreateIC\01_CPIPC\riscv\RISCV_ENC_20220421\Firmware_true\app_prj\app_demo\Debug/../src/Bsp/libwrap/sys/write.c:31
  }

  return _stub(EBADF);
   103f4:	00900513          	li	a0,9
   103f8:	f2dff0ef          	jal	ra,10324 <_stub>
   103fc:	00050793          	mv	a5,a0
D:\CreateIC\01_CPIPC\riscv\RISCV_ENC_20220421\Firmware_true\app_prj\app_demo\Debug/../src/Bsp/libwrap/sys/write.c:32
}
   10400:	00078513          	mv	a0,a5
   10404:	02c12083          	lw	ra,44(sp)
   10408:	02812403          	lw	s0,40(sp)
   1040c:	03010113          	addi	sp,sp,48
   10410:	00008067          	ret

00010414 <GpioStructDeInit>:
GpioStructDeInit():
D:\CreateIC\01_CPIPC\riscv\RISCV_ENC_20220421\Firmware_true\app_prj\app_demo\Debug/../src/Bsp/Driver/hme_gpio.c:35
  * @brief  GPIO结构体默认初始化
  * @param  pstGpioObj:GPIO设备对象
  * @retval 无
*****************************************************************/
void GpioStructDeInit(PST_GPIO_ATTR pstGpioObj)
{
   10414:	fe010113          	addi	sp,sp,-32
   10418:	00112e23          	sw	ra,28(sp)
   1041c:	00812c23          	sw	s0,24(sp)
   10420:	02010413          	addi	s0,sp,32
   10424:	fea42623          	sw	a0,-20(s0)
D:\CreateIC\01_CPIPC\riscv\RISCV_ENC_20220421\Firmware_true\app_prj\app_demo\Debug/../src/Bsp/Driver/hme_gpio.c:36
	assert_param(NULL != pstGpioObj);
   10428:	fec42783          	lw	a5,-20(s0)
   1042c:	00079a63          	bnez	a5,10440 <GpioStructDeInit+0x2c>
D:\CreateIC\01_CPIPC\riscv\RISCV_ENC_20220421\Firmware_true\app_prj\app_demo\Debug/../src/Bsp/Driver/hme_gpio.c:36 (discriminator 1)
   10430:	02400593          	li	a1,36
   10434:	000157b7          	lui	a5,0x15
   10438:	06c78513          	addi	a0,a5,108 # 1506c <__init_array_end>
   1043c:	745020ef          	jal	ra,13380 <assert_failed>
D:\CreateIC\01_CPIPC\riscv\RISCV_ENC_20220421\Firmware_true\app_prj\app_demo\Debug/../src/Bsp/Driver/hme_gpio.c:38

	pstGpioObj->stCfgParam.usDevId      = DEF_GPIO_DEV_ID;
   10440:	fec42783          	lw	a5,-20(s0)
   10444:	00b00713          	li	a4,11
   10448:	00e79023          	sh	a4,0(a5)
D:\CreateIC\01_CPIPC\riscv\RISCV_ENC_20220421\Firmware_true\app_prj\app_demo\Debug/../src/Bsp/Driver/hme_gpio.c:39
	pstGpioObj->stCfgParam.ucDirection  = EN_GPIO_DIR_TYPE_OUT;
   1044c:	fec42783          	lw	a5,-20(s0)
   10450:	00100713          	li	a4,1
   10454:	00e78123          	sb	a4,2(a5)
D:\CreateIC\01_CPIPC\riscv\RISCV_ENC_20220421\Firmware_true\app_prj\app_demo\Debug/../src/Bsp/Driver/hme_gpio.c:40
	pstGpioObj->stCfgParam.ucIntrEn     = DISABLE;
   10458:	fec42783          	lw	a5,-20(s0)
   1045c:	000781a3          	sb	zero,3(a5)
D:\CreateIC\01_CPIPC\riscv\RISCV_ENC_20220421\Firmware_true\app_prj\app_demo\Debug/../src/Bsp/Driver/hme_gpio.c:41
	pstGpioObj->stCfgParam.ucIntrMode   = EN_GPIO_INTR_MODE_NO_OP;
   10460:	fec42783          	lw	a5,-20(s0)
   10464:	00078223          	sb	zero,4(a5)
D:\CreateIC\01_CPIPC\riscv\RISCV_ENC_20220421\Firmware_true\app_prj\app_demo\Debug/../src/Bsp/Driver/hme_gpio.c:42
	pstGpioObj->stCfgParam.ucPullEn     = DISABLE;
   10468:	fec42783          	lw	a5,-20(s0)
   1046c:	000782a3          	sb	zero,5(a5)
D:\CreateIC\01_CPIPC\riscv\RISCV_ENC_20220421\Firmware_true\app_prj\app_demo\Debug/../src/Bsp/Driver/hme_gpio.c:43
	pstGpioObj->stCfgParam.ucPullType   = EN_GPIO_PULL_TYPE_UP;
   10470:	fec42783          	lw	a5,-20(s0)
   10474:	00078323          	sb	zero,6(a5)
D:\CreateIC\01_CPIPC\riscv\RISCV_ENC_20220421\Firmware_true\app_prj\app_demo\Debug/../src/Bsp/Driver/hme_gpio.c:44
	pstGpioObj->stCfgParam.ucDbBounceEn = DISABLE;
   10478:	fec42783          	lw	a5,-20(s0)
   1047c:	000783a3          	sb	zero,7(a5)
D:\CreateIC\01_CPIPC\riscv\RISCV_ENC_20220421\Firmware_true\app_prj\app_demo\Debug/../src/Bsp/Driver/hme_gpio.c:45
	pstGpioObj->stCfgParam.ucDBClkSel   = EN_GPIO_DBCLK_TYPE_EXT;
   10480:	fec42783          	lw	a5,-20(s0)
   10484:	00078423          	sb	zero,8(a5)
D:\CreateIC\01_CPIPC\riscv\RISCV_ENC_20220421\Firmware_true\app_prj\app_demo\Debug/../src/Bsp/Driver/hme_gpio.c:46
	pstGpioObj->stCfgParam.DBPreScale   = 0;
   10488:	fec42783          	lw	a5,-20(s0)
   1048c:	000784a3          	sb	zero,9(a5)
D:\CreateIC\01_CPIPC\riscv\RISCV_ENC_20220421\Firmware_true\app_prj\app_demo\Debug/../src/Bsp/Driver/hme_gpio.c:47
	pstGpioObj->stCfgParam.ulChannels   = GPIO_Pin_All;
   10490:	fec42783          	lw	a5,-20(s0)
   10494:	fff00713          	li	a4,-1
   10498:	00e7a623          	sw	a4,12(a5)
D:\CreateIC\01_CPIPC\riscv\RISCV_ENC_20220421\Firmware_true\app_prj\app_demo\Debug/../src/Bsp/Driver/hme_gpio.c:49

	pstGpioObj->stPlicCfgParam.ucIntrEnFlage = DISABLE;
   1049c:	fec42783          	lw	a5,-20(s0)
   104a0:	00078823          	sb	zero,16(a5)
D:\CreateIC\01_CPIPC\riscv\RISCV_ENC_20220421\Firmware_true\app_prj\app_demo\Debug/../src/Bsp/Driver/hme_gpio.c:50
	pstGpioObj->stPlicCfgParam.ucPriority = EN_PRIORITY_2;
   104a4:	fec42783          	lw	a5,-20(s0)
   104a8:	00200713          	li	a4,2
   104ac:	00e788a3          	sb	a4,17(a5)
D:\CreateIC\01_CPIPC\riscv\RISCV_ENC_20220421\Firmware_true\app_prj\app_demo\Debug/../src/Bsp/Driver/hme_gpio.c:52

	pstGpioObj->pstCtrller = DEV_GPIO;
   104b0:	fec42783          	lw	a5,-20(s0)
   104b4:	f8002737          	lui	a4,0xf8002
   104b8:	00e7aa23          	sw	a4,20(a5)
D:\CreateIC\01_CPIPC\riscv\RISCV_ENC_20220421\Firmware_true\app_prj\app_demo\Debug/../src/Bsp/Driver/hme_gpio.c:53
}
   104bc:	00000013          	nop
   104c0:	01c12083          	lw	ra,28(sp)
   104c4:	01812403          	lw	s0,24(sp)
   104c8:	02010113          	addi	sp,sp,32
   104cc:	00008067          	ret

000104d0 <GpioObjConfigInit>:
GpioObjConfigInit():
D:\CreateIC\01_CPIPC\riscv\RISCV_ENC_20220421\Firmware_true\app_prj\app_demo\Debug/../src/Bsp/Driver/hme_gpio.c:92
 * @brief  GPIO结构体控制器配置
 * @param  pstGpioObj：配置的GPIO对象
 * @retval 无
*****************************************************************/
void GpioObjConfigInit(PST_GPIO_ATTR pstGpioObj)
{
   104d0:	fd010113          	addi	sp,sp,-48
   104d4:	02112623          	sw	ra,44(sp)
   104d8:	02812423          	sw	s0,40(sp)
   104dc:	03010413          	addi	s0,sp,48
   104e0:	fca42e23          	sw	a0,-36(s0)
D:\CreateIC\01_CPIPC\riscv\RISCV_ENC_20220421\Firmware_true\app_prj\app_demo\Debug/../src/Bsp/Driver/hme_gpio.c:93
	assert_param(NULL != pstGpioObj);
   104e4:	fdc42783          	lw	a5,-36(s0)
   104e8:	00079a63          	bnez	a5,104fc <GpioObjConfigInit+0x2c>
D:\CreateIC\01_CPIPC\riscv\RISCV_ENC_20220421\Firmware_true\app_prj\app_demo\Debug/../src/Bsp/Driver/hme_gpio.c:93 (discriminator 1)
   104ec:	05d00593          	li	a1,93
   104f0:	000157b7          	lui	a5,0x15
   104f4:	06c78513          	addi	a0,a5,108 # 1506c <__init_array_end>
   104f8:	689020ef          	jal	ra,13380 <assert_failed>
D:\CreateIC\01_CPIPC\riscv\RISCV_ENC_20220421\Firmware_true\app_prj\app_demo\Debug/../src/Bsp/Driver/hme_gpio.c:94
	assert_param(NULL != pstGpioObj->pstCtrller);
   104fc:	fdc42783          	lw	a5,-36(s0)
   10500:	0147a783          	lw	a5,20(a5)
   10504:	00079a63          	bnez	a5,10518 <GpioObjConfigInit+0x48>
D:\CreateIC\01_CPIPC\riscv\RISCV_ENC_20220421\Firmware_true\app_prj\app_demo\Debug/../src/Bsp/Driver/hme_gpio.c:94 (discriminator 1)
   10508:	05e00593          	li	a1,94
   1050c:	000157b7          	lui	a5,0x15
   10510:	06c78513          	addi	a0,a5,108 # 1506c <__init_array_end>
   10514:	66d020ef          	jal	ra,13380 <assert_failed>
D:\CreateIC\01_CPIPC\riscv\RISCV_ENC_20220421\Firmware_true\app_prj\app_demo\Debug/../src/Bsp/Driver/hme_gpio.c:96

	uint32_t ulGpioEnVal= 0;
   10518:	fe042623          	sw	zero,-20(s0)
D:\CreateIC\01_CPIPC\riscv\RISCV_ENC_20220421\Firmware_true\app_prj\app_demo\Debug/../src/Bsp/Driver/hme_gpio.c:97
	ST_PLIC_REG_PARAM stGpioRegParam = {0};
   1051c:	fe042023          	sw	zero,-32(s0)
   10520:	fe042223          	sw	zero,-28(s0)
   10524:	fe042423          	sw	zero,-24(s0)
D:\CreateIC\01_CPIPC\riscv\RISCV_ENC_20220421\Firmware_true\app_prj\app_demo\Debug/../src/Bsp/Driver/hme_gpio.c:100

	//PLIC中断使能和注册
	ulGpioEnVal = DevIntrEnTableGet(pstGpioObj->stCfgParam.usDevId);
   10528:	fdc42783          	lw	a5,-36(s0)
   1052c:	0007d783          	lhu	a5,0(a5)
   10530:	00078513          	mv	a0,a5
   10534:	5e9000ef          	jal	ra,1131c <DevIntrEnTableGet>
   10538:	fea42623          	sw	a0,-20(s0)
D:\CreateIC\01_CPIPC\riscv\RISCV_ENC_20220421\Firmware_true\app_prj\app_demo\Debug/../src/Bsp/Driver/hme_gpio.c:101
	stGpioRegParam.usIntrId = DevIntrIdTableGet(pstGpioObj->stCfgParam.usDevId);
   1053c:	fdc42783          	lw	a5,-36(s0)
   10540:	0007d783          	lhu	a5,0(a5)
   10544:	00078513          	mv	a0,a5
   10548:	3fd000ef          	jal	ra,11144 <DevIntrIdTableGet>
   1054c:	00050793          	mv	a5,a0
   10550:	fef41023          	sh	a5,-32(s0)
D:\CreateIC\01_CPIPC\riscv\RISCV_ENC_20220421\Firmware_true\app_prj\app_demo\Debug/../src/Bsp/Driver/hme_gpio.c:102
	stGpioRegParam.IntrHander = PlicGpioHandle;
   10554:	000117b7          	lui	a5,0x11
   10558:	fa078793          	addi	a5,a5,-96 # 10fa0 <PlicGpioHandle>
   1055c:	fef42223          	sw	a5,-28(s0)
D:\CreateIC\01_CPIPC\riscv\RISCV_ENC_20220421\Firmware_true\app_prj\app_demo\Debug/../src/Bsp/Driver/hme_gpio.c:103
	stGpioRegParam.ptrBackCall = pstGpioObj;
   10560:	fdc42783          	lw	a5,-36(s0)
   10564:	fef42423          	sw	a5,-24(s0)
D:\CreateIC\01_CPIPC\riscv\RISCV_ENC_20220421\Firmware_true\app_prj\app_demo\Debug/../src/Bsp/Driver/hme_gpio.c:104
	if (pstGpioObj->stPlicCfgParam.ucIntrEnFlage)
   10568:	fdc42783          	lw	a5,-36(s0)
   1056c:	0107c783          	lbu	a5,16(a5)
   10570:	04078063          	beqz	a5,105b0 <GpioObjConfigInit+0xe0>
D:\CreateIC\01_CPIPC\riscv\RISCV_ENC_20220421\Firmware_true\app_prj\app_demo\Debug/../src/Bsp/Driver/hme_gpio.c:107
	{
		//intr Priority set
		IntrPrioritySet(pstGpioObj->stCfgParam.usDevId, pstGpioObj->stPlicCfgParam.ucPriority);
   10574:	fdc42783          	lw	a5,-36(s0)
   10578:	0007d703          	lhu	a4,0(a5)
   1057c:	fdc42783          	lw	a5,-36(s0)
   10580:	0117c783          	lbu	a5,17(a5)
   10584:	00078593          	mv	a1,a5
   10588:	00070513          	mv	a0,a4
   1058c:	67d000ef          	jal	ra,11408 <IntrPrioritySet>
D:\CreateIC\01_CPIPC\riscv\RISCV_ENC_20220421\Firmware_true\app_prj\app_demo\Debug/../src/Bsp/Driver/hme_gpio.c:109
        //intr handle register
		PlicIntrHandleRegister(&stGpioRegParam, pstGpioObj->stCfgParam.usDevId);
   10590:	fdc42783          	lw	a5,-36(s0)
   10594:	0007d703          	lhu	a4,0(a5)
   10598:	fe040793          	addi	a5,s0,-32
   1059c:	00070593          	mv	a1,a4
   105a0:	00078513          	mv	a0,a5
   105a4:	1c4010ef          	jal	ra,11768 <PlicIntrHandleRegister>
D:\CreateIC\01_CPIPC\riscv\RISCV_ENC_20220421\Firmware_true\app_prj\app_demo\Debug/../src/Bsp/Driver/hme_gpio.c:111
		//intr handle enable
		PlicEnableSet(ulGpioEnVal);
   105a8:	fec42503          	lw	a0,-20(s0)
   105ac:	0ac010ef          	jal	ra,11658 <PlicEnableSet>
D:\CreateIC\01_CPIPC\riscv\RISCV_ENC_20220421\Firmware_true\app_prj\app_demo\Debug/../src/Bsp/Driver/hme_gpio.c:115
	}

	//GPIO方向配置
	GpioBitsDirCfg(pstGpioObj);
   105b0:	fdc42503          	lw	a0,-36(s0)
   105b4:	030000ef          	jal	ra,105e4 <GpioBitsDirCfg>
D:\CreateIC\01_CPIPC\riscv\RISCV_ENC_20220421\Firmware_true\app_prj\app_demo\Debug/../src/Bsp/Driver/hme_gpio.c:117
	//GPIO中断配置
	GpioBitsIntrCfg(pstGpioObj);
   105b8:	fdc42503          	lw	a0,-36(s0)
   105bc:	594000ef          	jal	ra,10b50 <GpioBitsIntrCfg>
D:\CreateIC\01_CPIPC\riscv\RISCV_ENC_20220421\Firmware_true\app_prj\app_demo\Debug/../src/Bsp/Driver/hme_gpio.c:119
	//GPIO上下拉配置
	GpioBitsPullCfg(pstGpioObj);
   105c0:	fdc42503          	lw	a0,-36(s0)
   105c4:	210000ef          	jal	ra,107d4 <GpioBitsPullCfg>
D:\CreateIC\01_CPIPC\riscv\RISCV_ENC_20220421\Firmware_true\app_prj\app_demo\Debug/../src/Bsp/Driver/hme_gpio.c:121
	//中断防抖配置
	GpioBitsDebounceCfg(pstGpioObj);
   105c8:	fdc42503          	lw	a0,-36(s0)
   105cc:	3b8000ef          	jal	ra,10984 <GpioBitsDebounceCfg>
D:\CreateIC\01_CPIPC\riscv\RISCV_ENC_20220421\Firmware_true\app_prj\app_demo\Debug/../src/Bsp/Driver/hme_gpio.c:122
}
   105d0:	00000013          	nop
   105d4:	02c12083          	lw	ra,44(sp)
   105d8:	02812403          	lw	s0,40(sp)
   105dc:	03010113          	addi	sp,sp,48
   105e0:	00008067          	ret

000105e4 <GpioBitsDirCfg>:
GpioBitsDirCfg():
D:\CreateIC\01_CPIPC\riscv\RISCV_ENC_20220421\Firmware_true\app_prj\app_demo\Debug/../src/Bsp/Driver/hme_gpio.c:142
 * @brief  GPIO引脚的方向配置
 * @param  pstGpioObj：GPIO设备参数
 * @retval 无
 *****************************************************************/
void GpioBitsDirCfg(PST_GPIO_ATTR pstGpioObj)
{
   105e4:	fd010113          	addi	sp,sp,-48
   105e8:	02112623          	sw	ra,44(sp)
   105ec:	02812423          	sw	s0,40(sp)
   105f0:	03010413          	addi	s0,sp,48
   105f4:	fca42e23          	sw	a0,-36(s0)
D:\CreateIC\01_CPIPC\riscv\RISCV_ENC_20220421\Firmware_true\app_prj\app_demo\Debug/../src/Bsp/Driver/hme_gpio.c:143
	assert_param(NULL != pstGpioObj);
   105f8:	fdc42783          	lw	a5,-36(s0)
   105fc:	00079a63          	bnez	a5,10610 <GpioBitsDirCfg+0x2c>
D:\CreateIC\01_CPIPC\riscv\RISCV_ENC_20220421\Firmware_true\app_prj\app_demo\Debug/../src/Bsp/Driver/hme_gpio.c:143 (discriminator 1)
   10600:	08f00593          	li	a1,143
   10604:	000157b7          	lui	a5,0x15
   10608:	06c78513          	addi	a0,a5,108 # 1506c <__init_array_end>
   1060c:	575020ef          	jal	ra,13380 <assert_failed>
D:\CreateIC\01_CPIPC\riscv\RISCV_ENC_20220421\Firmware_true\app_prj\app_demo\Debug/../src/Bsp/Driver/hme_gpio.c:144
	assert_param(NULL != pstGpioObj->pstCtrller);
   10610:	fdc42783          	lw	a5,-36(s0)
   10614:	0147a783          	lw	a5,20(a5)
   10618:	00079a63          	bnez	a5,1062c <GpioBitsDirCfg+0x48>
D:\CreateIC\01_CPIPC\riscv\RISCV_ENC_20220421\Firmware_true\app_prj\app_demo\Debug/../src/Bsp/Driver/hme_gpio.c:144 (discriminator 1)
   1061c:	09000593          	li	a1,144
   10620:	000157b7          	lui	a5,0x15
   10624:	06c78513          	addi	a0,a5,108 # 1506c <__init_array_end>
   10628:	559020ef          	jal	ra,13380 <assert_failed>
D:\CreateIC\01_CPIPC\riscv\RISCV_ENC_20220421\Firmware_true\app_prj\app_demo\Debug/../src/Bsp/Driver/hme_gpio.c:146

	uint32_t ulTemParam = 0;
   1062c:	fe042623          	sw	zero,-20(s0)
D:\CreateIC\01_CPIPC\riscv\RISCV_ENC_20220421\Firmware_true\app_prj\app_demo\Debug/../src/Bsp/Driver/hme_gpio.c:147
	uint8_t  ucDirFlag  = pstGpioObj->stCfgParam.ucDirection;
   10630:	fdc42783          	lw	a5,-36(s0)
   10634:	0027c783          	lbu	a5,2(a5)
   10638:	fef405a3          	sb	a5,-21(s0)
D:\CreateIC\01_CPIPC\riscv\RISCV_ENC_20220421\Firmware_true\app_prj\app_demo\Debug/../src/Bsp/Driver/hme_gpio.c:148
	uint32_t ulChannels   = pstGpioObj->stCfgParam.ulChannels;
   1063c:	fdc42783          	lw	a5,-36(s0)
   10640:	00c7a783          	lw	a5,12(a5)
   10644:	fef42223          	sw	a5,-28(s0)
D:\CreateIC\01_CPIPC\riscv\RISCV_ENC_20220421\Firmware_true\app_prj\app_demo\Debug/../src/Bsp/Driver/hme_gpio.c:150

	assert_param(IS_GPIO_DIR_TYPE(ucDirFlag));
   10648:	feb44783          	lbu	a5,-21(s0)
   1064c:	02078063          	beqz	a5,1066c <GpioBitsDirCfg+0x88>
D:\CreateIC\01_CPIPC\riscv\RISCV_ENC_20220421\Firmware_true\app_prj\app_demo\Debug/../src/Bsp/Driver/hme_gpio.c:150 (discriminator 1)
   10650:	feb44703          	lbu	a4,-21(s0)
   10654:	00100793          	li	a5,1
   10658:	00f70a63          	beq	a4,a5,1066c <GpioBitsDirCfg+0x88>
D:\CreateIC\01_CPIPC\riscv\RISCV_ENC_20220421\Firmware_true\app_prj\app_demo\Debug/../src/Bsp/Driver/hme_gpio.c:150 (discriminator 2)
   1065c:	09600593          	li	a1,150
   10660:	000157b7          	lui	a5,0x15
   10664:	06c78513          	addi	a0,a5,108 # 1506c <__init_array_end>
   10668:	519020ef          	jal	ra,13380 <assert_failed>
D:\CreateIC\01_CPIPC\riscv\RISCV_ENC_20220421\Firmware_true\app_prj\app_demo\Debug/../src/Bsp/Driver/hme_gpio.c:152

	ulTemParam = pstGpioObj->pstCtrller->CHANNELDIR;
   1066c:	fdc42783          	lw	a5,-36(s0)
   10670:	0147a783          	lw	a5,20(a5)
   10674:	0287a783          	lw	a5,40(a5)
   10678:	fef42623          	sw	a5,-20(s0)
D:\CreateIC\01_CPIPC\riscv\RISCV_ENC_20220421\Firmware_true\app_prj\app_demo\Debug/../src/Bsp/Driver/hme_gpio.c:154

	if (ucDirFlag == EN_GPIO_DIR_TYPE_OUT)
   1067c:	feb44703          	lbu	a4,-21(s0)
   10680:	00100793          	li	a5,1
   10684:	02f71463          	bne	a4,a5,106ac <GpioBitsDirCfg+0xc8>
D:\CreateIC\01_CPIPC\riscv\RISCV_ENC_20220421\Firmware_true\app_prj\app_demo\Debug/../src/Bsp/Driver/hme_gpio.c:156
	{
		ulTemParam = ulTemParam | ulChannels;
   10688:	fec42703          	lw	a4,-20(s0)
   1068c:	fe442783          	lw	a5,-28(s0)
   10690:	00f767b3          	or	a5,a4,a5
   10694:	fef42623          	sw	a5,-20(s0)
D:\CreateIC\01_CPIPC\riscv\RISCV_ENC_20220421\Firmware_true\app_prj\app_demo\Debug/../src/Bsp/Driver/hme_gpio.c:157
		pstGpioObj->pstCtrller->CHANNELDIR = ulTemParam;
   10698:	fdc42783          	lw	a5,-36(s0)
   1069c:	0147a783          	lw	a5,20(a5)
   106a0:	fec42703          	lw	a4,-20(s0)
   106a4:	02e7a423          	sw	a4,40(a5)
D:\CreateIC\01_CPIPC\riscv\RISCV_ENC_20220421\Firmware_true\app_prj\app_demo\Debug/../src/Bsp/Driver/hme_gpio.c:164
	else
	{
		ulTemParam = (ulTemParam & (~ulChannels));
		pstGpioObj->pstCtrller->CHANNELDIR = ulTemParam;
	}
}
   106a8:	0280006f          	j	106d0 <GpioBitsDirCfg+0xec>
D:\CreateIC\01_CPIPC\riscv\RISCV_ENC_20220421\Firmware_true\app_prj\app_demo\Debug/../src/Bsp/Driver/hme_gpio.c:161
		ulTemParam = (ulTemParam & (~ulChannels));
   106ac:	fe442783          	lw	a5,-28(s0)
   106b0:	fff7c793          	not	a5,a5
   106b4:	fec42703          	lw	a4,-20(s0)
   106b8:	00f777b3          	and	a5,a4,a5
   106bc:	fef42623          	sw	a5,-20(s0)
D:\CreateIC\01_CPIPC\riscv\RISCV_ENC_20220421\Firmware_true\app_prj\app_demo\Debug/../src/Bsp/Driver/hme_gpio.c:162
		pstGpioObj->pstCtrller->CHANNELDIR = ulTemParam;
   106c0:	fdc42783          	lw	a5,-36(s0)
   106c4:	0147a783          	lw	a5,20(a5)
   106c8:	fec42703          	lw	a4,-20(s0)
   106cc:	02e7a423          	sw	a4,40(a5)
D:\CreateIC\01_CPIPC\riscv\RISCV_ENC_20220421\Firmware_true\app_prj\app_demo\Debug/../src/Bsp/Driver/hme_gpio.c:164
}
   106d0:	00000013          	nop
   106d4:	02c12083          	lw	ra,44(sp)
   106d8:	02812403          	lw	s0,40(sp)
   106dc:	03010113          	addi	sp,sp,48
   106e0:	00008067          	ret

000106e4 <GpioBitsDoutSet>:
GpioBitsDoutSet():
D:\CreateIC\01_CPIPC\riscv\RISCV_ENC_20220421\Firmware_true\app_prj\app_demo\Debug/../src/Bsp/Driver/hme_gpio.c:184
 * @brief  GPIO端口输出设置
 * @param  pstGpioObj：GPIO设备对象
 * @retval 无
 *****************************************************************/
void GpioBitsDoutSet(PST_GPIO_ATTR pstGpioObj)
{
   106e4:	fd010113          	addi	sp,sp,-48
   106e8:	02112623          	sw	ra,44(sp)
   106ec:	02812423          	sw	s0,40(sp)
   106f0:	03010413          	addi	s0,sp,48
   106f4:	fca42e23          	sw	a0,-36(s0)
D:\CreateIC\01_CPIPC\riscv\RISCV_ENC_20220421\Firmware_true\app_prj\app_demo\Debug/../src/Bsp/Driver/hme_gpio.c:185
	assert_param(NULL != pstGpioObj);
   106f8:	fdc42783          	lw	a5,-36(s0)
   106fc:	00079a63          	bnez	a5,10710 <GpioBitsDoutSet+0x2c>
D:\CreateIC\01_CPIPC\riscv\RISCV_ENC_20220421\Firmware_true\app_prj\app_demo\Debug/../src/Bsp/Driver/hme_gpio.c:185 (discriminator 1)
   10700:	0b900593          	li	a1,185
   10704:	000157b7          	lui	a5,0x15
   10708:	06c78513          	addi	a0,a5,108 # 1506c <__init_array_end>
   1070c:	475020ef          	jal	ra,13380 <assert_failed>
D:\CreateIC\01_CPIPC\riscv\RISCV_ENC_20220421\Firmware_true\app_prj\app_demo\Debug/../src/Bsp/Driver/hme_gpio.c:186
	assert_param(NULL != pstGpioObj->pstCtrller);
   10710:	fdc42783          	lw	a5,-36(s0)
   10714:	0147a783          	lw	a5,20(a5)
   10718:	00079a63          	bnez	a5,1072c <GpioBitsDoutSet+0x48>
D:\CreateIC\01_CPIPC\riscv\RISCV_ENC_20220421\Firmware_true\app_prj\app_demo\Debug/../src/Bsp/Driver/hme_gpio.c:186 (discriminator 1)
   1071c:	0ba00593          	li	a1,186
   10720:	000157b7          	lui	a5,0x15
   10724:	06c78513          	addi	a0,a5,108 # 1506c <__init_array_end>
   10728:	459020ef          	jal	ra,13380 <assert_failed>
D:\CreateIC\01_CPIPC\riscv\RISCV_ENC_20220421\Firmware_true\app_prj\app_demo\Debug/../src/Bsp/Driver/hme_gpio.c:188

	uint32_t ulChannels = pstGpioObj->stCfgParam.ulChannels;
   1072c:	fdc42783          	lw	a5,-36(s0)
   10730:	00c7a783          	lw	a5,12(a5)
   10734:	fef42623          	sw	a5,-20(s0)
D:\CreateIC\01_CPIPC\riscv\RISCV_ENC_20220421\Firmware_true\app_prj\app_demo\Debug/../src/Bsp/Driver/hme_gpio.c:189
	pstGpioObj->pstCtrller->DOUTSET = ulChannels;
   10738:	fdc42783          	lw	a5,-36(s0)
   1073c:	0147a783          	lw	a5,20(a5)
   10740:	fec42703          	lw	a4,-20(s0)
   10744:	02e7a823          	sw	a4,48(a5)
D:\CreateIC\01_CPIPC\riscv\RISCV_ENC_20220421\Firmware_true\app_prj\app_demo\Debug/../src/Bsp/Driver/hme_gpio.c:190
}
   10748:	00000013          	nop
   1074c:	02c12083          	lw	ra,44(sp)
   10750:	02812403          	lw	s0,40(sp)
   10754:	03010113          	addi	sp,sp,48
   10758:	00008067          	ret

0001075c <GpioBitsDoutClear>:
GpioBitsDoutClear():
D:\CreateIC\01_CPIPC\riscv\RISCV_ENC_20220421\Firmware_true\app_prj\app_demo\Debug/../src/Bsp/Driver/hme_gpio.c:198
 * @brief  GPIO端口输出清零
 * @param  pstGpioObj：GPIO设备对象
 * @retval 无
 *****************************************************************/
void GpioBitsDoutClear(PST_GPIO_ATTR pstGpioObj)
{
   1075c:	fd010113          	addi	sp,sp,-48
   10760:	02112623          	sw	ra,44(sp)
   10764:	02812423          	sw	s0,40(sp)
   10768:	03010413          	addi	s0,sp,48
   1076c:	fca42e23          	sw	a0,-36(s0)
D:\CreateIC\01_CPIPC\riscv\RISCV_ENC_20220421\Firmware_true\app_prj\app_demo\Debug/../src/Bsp/Driver/hme_gpio.c:199
	assert_param(NULL != pstGpioObj);
   10770:	fdc42783          	lw	a5,-36(s0)
   10774:	00079a63          	bnez	a5,10788 <GpioBitsDoutClear+0x2c>
D:\CreateIC\01_CPIPC\riscv\RISCV_ENC_20220421\Firmware_true\app_prj\app_demo\Debug/../src/Bsp/Driver/hme_gpio.c:199 (discriminator 1)
   10778:	0c700593          	li	a1,199
   1077c:	000157b7          	lui	a5,0x15
   10780:	06c78513          	addi	a0,a5,108 # 1506c <__init_array_end>
   10784:	3fd020ef          	jal	ra,13380 <assert_failed>
D:\CreateIC\01_CPIPC\riscv\RISCV_ENC_20220421\Firmware_true\app_prj\app_demo\Debug/../src/Bsp/Driver/hme_gpio.c:200
	assert_param(NULL != pstGpioObj->pstCtrller);
   10788:	fdc42783          	lw	a5,-36(s0)
   1078c:	0147a783          	lw	a5,20(a5)
   10790:	00079a63          	bnez	a5,107a4 <GpioBitsDoutClear+0x48>
D:\CreateIC\01_CPIPC\riscv\RISCV_ENC_20220421\Firmware_true\app_prj\app_demo\Debug/../src/Bsp/Driver/hme_gpio.c:200 (discriminator 1)
   10794:	0c800593          	li	a1,200
   10798:	000157b7          	lui	a5,0x15
   1079c:	06c78513          	addi	a0,a5,108 # 1506c <__init_array_end>
   107a0:	3e1020ef          	jal	ra,13380 <assert_failed>
D:\CreateIC\01_CPIPC\riscv\RISCV_ENC_20220421\Firmware_true\app_prj\app_demo\Debug/../src/Bsp/Driver/hme_gpio.c:202

	uint32_t ulChannels   = pstGpioObj->stCfgParam.ulChannels;
   107a4:	fdc42783          	lw	a5,-36(s0)
   107a8:	00c7a783          	lw	a5,12(a5)
   107ac:	fef42623          	sw	a5,-20(s0)
D:\CreateIC\01_CPIPC\riscv\RISCV_ENC_20220421\Firmware_true\app_prj\app_demo\Debug/../src/Bsp/Driver/hme_gpio.c:203
	pstGpioObj->pstCtrller->DOUTCLEAR = ulChannels;
   107b0:	fdc42783          	lw	a5,-36(s0)
   107b4:	0147a783          	lw	a5,20(a5)
   107b8:	fec42703          	lw	a4,-20(s0)
   107bc:	02e7a623          	sw	a4,44(a5)
D:\CreateIC\01_CPIPC\riscv\RISCV_ENC_20220421\Firmware_true\app_prj\app_demo\Debug/../src/Bsp/Driver/hme_gpio.c:204
}
   107c0:	00000013          	nop
   107c4:	02c12083          	lw	ra,44(sp)
   107c8:	02812403          	lw	s0,40(sp)
   107cc:	03010113          	addi	sp,sp,48
   107d0:	00008067          	ret

000107d4 <GpioBitsPullCfg>:
GpioBitsPullCfg():
D:\CreateIC\01_CPIPC\riscv\RISCV_ENC_20220421\Firmware_true\app_prj\app_demo\Debug/../src/Bsp/Driver/hme_gpio.c:238
 * @brief  GPIO上下拉属性配置
 * @param  pstGpioObj：GPIO设备对象
 * @retval 无
 *****************************************************************/
void GpioBitsPullCfg(PST_GPIO_ATTR pstGpioObj)
{
   107d4:	fd010113          	addi	sp,sp,-48
   107d8:	02112623          	sw	ra,44(sp)
   107dc:	02812423          	sw	s0,40(sp)
   107e0:	03010413          	addi	s0,sp,48
   107e4:	fca42e23          	sw	a0,-36(s0)
D:\CreateIC\01_CPIPC\riscv\RISCV_ENC_20220421\Firmware_true\app_prj\app_demo\Debug/../src/Bsp/Driver/hme_gpio.c:239
	assert_param(NULL != pstGpioObj);
   107e8:	fdc42783          	lw	a5,-36(s0)
   107ec:	00079a63          	bnez	a5,10800 <GpioBitsPullCfg+0x2c>
D:\CreateIC\01_CPIPC\riscv\RISCV_ENC_20220421\Firmware_true\app_prj\app_demo\Debug/../src/Bsp/Driver/hme_gpio.c:239 (discriminator 1)
   107f0:	0ef00593          	li	a1,239
   107f4:	000157b7          	lui	a5,0x15
   107f8:	06c78513          	addi	a0,a5,108 # 1506c <__init_array_end>
   107fc:	385020ef          	jal	ra,13380 <assert_failed>
D:\CreateIC\01_CPIPC\riscv\RISCV_ENC_20220421\Firmware_true\app_prj\app_demo\Debug/../src/Bsp/Driver/hme_gpio.c:240
	assert_param(NULL != pstGpioObj->pstCtrller);
   10800:	fdc42783          	lw	a5,-36(s0)
   10804:	0147a783          	lw	a5,20(a5)
   10808:	00079a63          	bnez	a5,1081c <GpioBitsPullCfg+0x48>
D:\CreateIC\01_CPIPC\riscv\RISCV_ENC_20220421\Firmware_true\app_prj\app_demo\Debug/../src/Bsp/Driver/hme_gpio.c:240 (discriminator 1)
   1080c:	0f000593          	li	a1,240
   10810:	000157b7          	lui	a5,0x15
   10814:	06c78513          	addi	a0,a5,108 # 1506c <__init_array_end>
   10818:	369020ef          	jal	ra,13380 <assert_failed>
D:\CreateIC\01_CPIPC\riscv\RISCV_ENC_20220421\Firmware_true\app_prj\app_demo\Debug/../src/Bsp/Driver/hme_gpio.c:242

	uint32_t ulTemParam = 0;
   1081c:	fe042623          	sw	zero,-20(s0)
D:\CreateIC\01_CPIPC\riscv\RISCV_ENC_20220421\Firmware_true\app_prj\app_demo\Debug/../src/Bsp/Driver/hme_gpio.c:243
	uint8_t  ucPullEnFlag = pstGpioObj->stCfgParam.ucPullEn;
   10820:	fdc42783          	lw	a5,-36(s0)
   10824:	0057c783          	lbu	a5,5(a5)
   10828:	fef405a3          	sb	a5,-21(s0)
D:\CreateIC\01_CPIPC\riscv\RISCV_ENC_20220421\Firmware_true\app_prj\app_demo\Debug/../src/Bsp/Driver/hme_gpio.c:244
	uint8_t  ucPullType   = pstGpioObj->stCfgParam.ucPullType;
   1082c:	fdc42783          	lw	a5,-36(s0)
   10830:	0067c783          	lbu	a5,6(a5)
   10834:	fef40523          	sb	a5,-22(s0)
D:\CreateIC\01_CPIPC\riscv\RISCV_ENC_20220421\Firmware_true\app_prj\app_demo\Debug/../src/Bsp/Driver/hme_gpio.c:245
	uint32_t ulChannels   = pstGpioObj->stCfgParam.ulChannels;
   10838:	fdc42783          	lw	a5,-36(s0)
   1083c:	00c7a783          	lw	a5,12(a5)
   10840:	fef42223          	sw	a5,-28(s0)
D:\CreateIC\01_CPIPC\riscv\RISCV_ENC_20220421\Firmware_true\app_prj\app_demo\Debug/../src/Bsp/Driver/hme_gpio.c:247

	assert_param(IS_GPIO_ENABLE_TYPE(ucPullEnFlag));
   10844:	feb44783          	lbu	a5,-21(s0)
   10848:	02078063          	beqz	a5,10868 <GpioBitsPullCfg+0x94>
D:\CreateIC\01_CPIPC\riscv\RISCV_ENC_20220421\Firmware_true\app_prj\app_demo\Debug/../src/Bsp/Driver/hme_gpio.c:247 (discriminator 1)
   1084c:	feb44703          	lbu	a4,-21(s0)
   10850:	00100793          	li	a5,1
   10854:	00f70a63          	beq	a4,a5,10868 <GpioBitsPullCfg+0x94>
D:\CreateIC\01_CPIPC\riscv\RISCV_ENC_20220421\Firmware_true\app_prj\app_demo\Debug/../src/Bsp/Driver/hme_gpio.c:247 (discriminator 2)
   10858:	0f700593          	li	a1,247
   1085c:	000157b7          	lui	a5,0x15
   10860:	06c78513          	addi	a0,a5,108 # 1506c <__init_array_end>
   10864:	31d020ef          	jal	ra,13380 <assert_failed>
D:\CreateIC\01_CPIPC\riscv\RISCV_ENC_20220421\Firmware_true\app_prj\app_demo\Debug/../src/Bsp/Driver/hme_gpio.c:248
	assert_param(IS_GPIO_PULL_TYPE(ucPullType));
   10868:	fea44783          	lbu	a5,-22(s0)
   1086c:	02078063          	beqz	a5,1088c <GpioBitsPullCfg+0xb8>
D:\CreateIC\01_CPIPC\riscv\RISCV_ENC_20220421\Firmware_true\app_prj\app_demo\Debug/../src/Bsp/Driver/hme_gpio.c:248 (discriminator 1)
   10870:	fea44703          	lbu	a4,-22(s0)
   10874:	00100793          	li	a5,1
   10878:	00f70a63          	beq	a4,a5,1088c <GpioBitsPullCfg+0xb8>
D:\CreateIC\01_CPIPC\riscv\RISCV_ENC_20220421\Firmware_true\app_prj\app_demo\Debug/../src/Bsp/Driver/hme_gpio.c:248 (discriminator 2)
   1087c:	0f800593          	li	a1,248
   10880:	000157b7          	lui	a5,0x15
   10884:	06c78513          	addi	a0,a5,108 # 1506c <__init_array_end>
   10888:	2f9020ef          	jal	ra,13380 <assert_failed>
D:\CreateIC\01_CPIPC\riscv\RISCV_ENC_20220421\Firmware_true\app_prj\app_demo\Debug/../src/Bsp/Driver/hme_gpio.c:250

	if (ucPullEnFlag == ENABLE)
   1088c:	feb44703          	lbu	a4,-21(s0)
   10890:	00100793          	li	a5,1
   10894:	0af71463          	bne	a4,a5,1093c <GpioBitsPullCfg+0x168>
D:\CreateIC\01_CPIPC\riscv\RISCV_ENC_20220421\Firmware_true\app_prj\app_demo\Debug/../src/Bsp/Driver/hme_gpio.c:252
	{
		ulTemParam = pstGpioObj->pstCtrller->PULLEN;
   10898:	fdc42783          	lw	a5,-36(s0)
   1089c:	0147a783          	lw	a5,20(a5)
   108a0:	0407a783          	lw	a5,64(a5)
   108a4:	fef42623          	sw	a5,-20(s0)
D:\CreateIC\01_CPIPC\riscv\RISCV_ENC_20220421\Firmware_true\app_prj\app_demo\Debug/../src/Bsp/Driver/hme_gpio.c:253
		ulTemParam = ulTemParam | ulChannels;
   108a8:	fec42703          	lw	a4,-20(s0)
   108ac:	fe442783          	lw	a5,-28(s0)
   108b0:	00f767b3          	or	a5,a4,a5
   108b4:	fef42623          	sw	a5,-20(s0)
D:\CreateIC\01_CPIPC\riscv\RISCV_ENC_20220421\Firmware_true\app_prj\app_demo\Debug/../src/Bsp/Driver/hme_gpio.c:254
		pstGpioObj->pstCtrller->PULLEN = ulTemParam;
   108b8:	fdc42783          	lw	a5,-36(s0)
   108bc:	0147a783          	lw	a5,20(a5)
   108c0:	fec42703          	lw	a4,-20(s0)
   108c4:	04e7a023          	sw	a4,64(a5)
D:\CreateIC\01_CPIPC\riscv\RISCV_ENC_20220421\Firmware_true\app_prj\app_demo\Debug/../src/Bsp/Driver/hme_gpio.c:256

		if (ucPullType == EN_GPIO_PULL_TYPE_UP)
   108c8:	fea44783          	lbu	a5,-22(s0)
   108cc:	02079e63          	bnez	a5,10908 <GpioBitsPullCfg+0x134>
D:\CreateIC\01_CPIPC\riscv\RISCV_ENC_20220421\Firmware_true\app_prj\app_demo\Debug/../src/Bsp/Driver/hme_gpio.c:258
		{
			ulTemParam = pstGpioObj->pstCtrller->PULLTYPE;
   108d0:	fdc42783          	lw	a5,-36(s0)
   108d4:	0147a783          	lw	a5,20(a5)
   108d8:	0447a783          	lw	a5,68(a5)
   108dc:	fef42623          	sw	a5,-20(s0)
D:\CreateIC\01_CPIPC\riscv\RISCV_ENC_20220421\Firmware_true\app_prj\app_demo\Debug/../src/Bsp/Driver/hme_gpio.c:259
			ulTemParam = ulTemParam & (~ulChannels);
   108e0:	fe442783          	lw	a5,-28(s0)
   108e4:	fff7c793          	not	a5,a5
   108e8:	fec42703          	lw	a4,-20(s0)
   108ec:	00f777b3          	and	a5,a4,a5
   108f0:	fef42623          	sw	a5,-20(s0)
D:\CreateIC\01_CPIPC\riscv\RISCV_ENC_20220421\Firmware_true\app_prj\app_demo\Debug/../src/Bsp/Driver/hme_gpio.c:260
			pstGpioObj->pstCtrller->PULLTYPE = ulTemParam;
   108f4:	fdc42783          	lw	a5,-36(s0)
   108f8:	0147a783          	lw	a5,20(a5)
   108fc:	fec42703          	lw	a4,-20(s0)
   10900:	04e7a223          	sw	a4,68(a5)
D:\CreateIC\01_CPIPC\riscv\RISCV_ENC_20220421\Firmware_true\app_prj\app_demo\Debug/../src/Bsp/Driver/hme_gpio.c:275
	{
		ulTemParam = pstGpioObj->pstCtrller->PULLEN;
		ulTemParam = ulTemParam & (~ulChannels);
		pstGpioObj->pstCtrller->PULLEN = ulTemParam;
	}
}
   10904:	06c0006f          	j	10970 <GpioBitsPullCfg+0x19c>
D:\CreateIC\01_CPIPC\riscv\RISCV_ENC_20220421\Firmware_true\app_prj\app_demo\Debug/../src/Bsp/Driver/hme_gpio.c:264
			ulTemParam = pstGpioObj->pstCtrller->PULLTYPE;
   10908:	fdc42783          	lw	a5,-36(s0)
   1090c:	0147a783          	lw	a5,20(a5)
   10910:	0447a783          	lw	a5,68(a5)
   10914:	fef42623          	sw	a5,-20(s0)
D:\CreateIC\01_CPIPC\riscv\RISCV_ENC_20220421\Firmware_true\app_prj\app_demo\Debug/../src/Bsp/Driver/hme_gpio.c:265
			ulTemParam = ulTemParam | ulChannels;
   10918:	fec42703          	lw	a4,-20(s0)
   1091c:	fe442783          	lw	a5,-28(s0)
   10920:	00f767b3          	or	a5,a4,a5
   10924:	fef42623          	sw	a5,-20(s0)
D:\CreateIC\01_CPIPC\riscv\RISCV_ENC_20220421\Firmware_true\app_prj\app_demo\Debug/../src/Bsp/Driver/hme_gpio.c:266
			pstGpioObj->pstCtrller->PULLTYPE = ulTemParam;
   10928:	fdc42783          	lw	a5,-36(s0)
   1092c:	0147a783          	lw	a5,20(a5)
   10930:	fec42703          	lw	a4,-20(s0)
   10934:	04e7a223          	sw	a4,68(a5)
D:\CreateIC\01_CPIPC\riscv\RISCV_ENC_20220421\Firmware_true\app_prj\app_demo\Debug/../src/Bsp/Driver/hme_gpio.c:275
}
   10938:	0380006f          	j	10970 <GpioBitsPullCfg+0x19c>
D:\CreateIC\01_CPIPC\riscv\RISCV_ENC_20220421\Firmware_true\app_prj\app_demo\Debug/../src/Bsp/Driver/hme_gpio.c:271
		ulTemParam = pstGpioObj->pstCtrller->PULLEN;
   1093c:	fdc42783          	lw	a5,-36(s0)
   10940:	0147a783          	lw	a5,20(a5)
   10944:	0407a783          	lw	a5,64(a5)
   10948:	fef42623          	sw	a5,-20(s0)
D:\CreateIC\01_CPIPC\riscv\RISCV_ENC_20220421\Firmware_true\app_prj\app_demo\Debug/../src/Bsp/Driver/hme_gpio.c:272
		ulTemParam = ulTemParam & (~ulChannels);
   1094c:	fe442783          	lw	a5,-28(s0)
   10950:	fff7c793          	not	a5,a5
   10954:	fec42703          	lw	a4,-20(s0)
   10958:	00f777b3          	and	a5,a4,a5
   1095c:	fef42623          	sw	a5,-20(s0)
D:\CreateIC\01_CPIPC\riscv\RISCV_ENC_20220421\Firmware_true\app_prj\app_demo\Debug/../src/Bsp/Driver/hme_gpio.c:273
		pstGpioObj->pstCtrller->PULLEN = ulTemParam;
   10960:	fdc42783          	lw	a5,-36(s0)
   10964:	0147a783          	lw	a5,20(a5)
   10968:	fec42703          	lw	a4,-20(s0)
   1096c:	04e7a023          	sw	a4,64(a5)
D:\CreateIC\01_CPIPC\riscv\RISCV_ENC_20220421\Firmware_true\app_prj\app_demo\Debug/../src/Bsp/Driver/hme_gpio.c:275
}
   10970:	00000013          	nop
   10974:	02c12083          	lw	ra,44(sp)
   10978:	02812403          	lw	s0,40(sp)
   1097c:	03010113          	addi	sp,sp,48
   10980:	00008067          	ret

00010984 <GpioBitsDebounceCfg>:
GpioBitsDebounceCfg():
D:\CreateIC\01_CPIPC\riscv\RISCV_ENC_20220421\Firmware_true\app_prj\app_demo\Debug/../src/Bsp/Driver/hme_gpio.c:307
 * @brief  GPIO防抖属性配置
 * @param  pstGpioObj：GPIO设备对象
 * @retval 无
 *****************************************************************/
void GpioBitsDebounceCfg(PST_GPIO_ATTR pstGpioObj)
{
   10984:	fd010113          	addi	sp,sp,-48
   10988:	02112623          	sw	ra,44(sp)
   1098c:	02812423          	sw	s0,40(sp)
   10990:	03010413          	addi	s0,sp,48
   10994:	fca42e23          	sw	a0,-36(s0)
D:\CreateIC\01_CPIPC\riscv\RISCV_ENC_20220421\Firmware_true\app_prj\app_demo\Debug/../src/Bsp/Driver/hme_gpio.c:308
	assert_param(NULL != pstGpioObj);
   10998:	fdc42783          	lw	a5,-36(s0)
   1099c:	00079a63          	bnez	a5,109b0 <GpioBitsDebounceCfg+0x2c>
D:\CreateIC\01_CPIPC\riscv\RISCV_ENC_20220421\Firmware_true\app_prj\app_demo\Debug/../src/Bsp/Driver/hme_gpio.c:308 (discriminator 1)
   109a0:	13400593          	li	a1,308
   109a4:	000157b7          	lui	a5,0x15
   109a8:	06c78513          	addi	a0,a5,108 # 1506c <__init_array_end>
   109ac:	1d5020ef          	jal	ra,13380 <assert_failed>
D:\CreateIC\01_CPIPC\riscv\RISCV_ENC_20220421\Firmware_true\app_prj\app_demo\Debug/../src/Bsp/Driver/hme_gpio.c:309
	assert_param(NULL != pstGpioObj->pstCtrller);
   109b0:	fdc42783          	lw	a5,-36(s0)
   109b4:	0147a783          	lw	a5,20(a5)
   109b8:	00079a63          	bnez	a5,109cc <GpioBitsDebounceCfg+0x48>
D:\CreateIC\01_CPIPC\riscv\RISCV_ENC_20220421\Firmware_true\app_prj\app_demo\Debug/../src/Bsp/Driver/hme_gpio.c:309 (discriminator 1)
   109bc:	13500593          	li	a1,309
   109c0:	000157b7          	lui	a5,0x15
   109c4:	06c78513          	addi	a0,a5,108 # 1506c <__init_array_end>
   109c8:	1b9020ef          	jal	ra,13380 <assert_failed>
D:\CreateIC\01_CPIPC\riscv\RISCV_ENC_20220421\Firmware_true\app_prj\app_demo\Debug/../src/Bsp/Driver/hme_gpio.c:311

	uint32_t ulTemParam = 0;
   109cc:	fe042623          	sw	zero,-20(s0)
D:\CreateIC\01_CPIPC\riscv\RISCV_ENC_20220421\Firmware_true\app_prj\app_demo\Debug/../src/Bsp/Driver/hme_gpio.c:312
	uint8_t  ucDbBounceEn = pstGpioObj->stCfgParam.ucDbBounceEn;
   109d0:	fdc42783          	lw	a5,-36(s0)
   109d4:	0077c783          	lbu	a5,7(a5)
   109d8:	fef405a3          	sb	a5,-21(s0)
D:\CreateIC\01_CPIPC\riscv\RISCV_ENC_20220421\Firmware_true\app_prj\app_demo\Debug/../src/Bsp/Driver/hme_gpio.c:313
	uint8_t  ucDbClkSel   = pstGpioObj->stCfgParam.ucDBClkSel;
   109dc:	fdc42783          	lw	a5,-36(s0)
   109e0:	0087c783          	lbu	a5,8(a5)
   109e4:	fef40523          	sb	a5,-22(s0)
D:\CreateIC\01_CPIPC\riscv\RISCV_ENC_20220421\Firmware_true\app_prj\app_demo\Debug/../src/Bsp/Driver/hme_gpio.c:314
	uint8_t  ucDBPreScale = pstGpioObj->stCfgParam.DBPreScale;
   109e8:	fdc42783          	lw	a5,-36(s0)
   109ec:	0097c783          	lbu	a5,9(a5)
   109f0:	fef404a3          	sb	a5,-23(s0)
D:\CreateIC\01_CPIPC\riscv\RISCV_ENC_20220421\Firmware_true\app_prj\app_demo\Debug/../src/Bsp/Driver/hme_gpio.c:315
	uint32_t ulChannels   = pstGpioObj->stCfgParam.ulChannels;
   109f4:	fdc42783          	lw	a5,-36(s0)
   109f8:	00c7a783          	lw	a5,12(a5)
   109fc:	fef42223          	sw	a5,-28(s0)
D:\CreateIC\01_CPIPC\riscv\RISCV_ENC_20220421\Firmware_true\app_prj\app_demo\Debug/../src/Bsp/Driver/hme_gpio.c:317

	assert_param(IS_GPIO_DIR_TYPE(ucDbBounceEn));
   10a00:	feb44783          	lbu	a5,-21(s0)
   10a04:	02078063          	beqz	a5,10a24 <GpioBitsDebounceCfg+0xa0>
D:\CreateIC\01_CPIPC\riscv\RISCV_ENC_20220421\Firmware_true\app_prj\app_demo\Debug/../src/Bsp/Driver/hme_gpio.c:317 (discriminator 1)
   10a08:	feb44703          	lbu	a4,-21(s0)
   10a0c:	00100793          	li	a5,1
   10a10:	00f70a63          	beq	a4,a5,10a24 <GpioBitsDebounceCfg+0xa0>
D:\CreateIC\01_CPIPC\riscv\RISCV_ENC_20220421\Firmware_true\app_prj\app_demo\Debug/../src/Bsp/Driver/hme_gpio.c:317 (discriminator 2)
   10a14:	13d00593          	li	a1,317
   10a18:	000157b7          	lui	a5,0x15
   10a1c:	06c78513          	addi	a0,a5,108 # 1506c <__init_array_end>
   10a20:	161020ef          	jal	ra,13380 <assert_failed>
D:\CreateIC\01_CPIPC\riscv\RISCV_ENC_20220421\Firmware_true\app_prj\app_demo\Debug/../src/Bsp/Driver/hme_gpio.c:318
    assert_param(IS_GPIO_DBCLK_TYPE(ucDbClkSel));
   10a24:	fea44783          	lbu	a5,-22(s0)
   10a28:	02078063          	beqz	a5,10a48 <GpioBitsDebounceCfg+0xc4>
D:\CreateIC\01_CPIPC\riscv\RISCV_ENC_20220421\Firmware_true\app_prj\app_demo\Debug/../src/Bsp/Driver/hme_gpio.c:318 (discriminator 1)
   10a2c:	fea44703          	lbu	a4,-22(s0)
   10a30:	00100793          	li	a5,1
   10a34:	00f70a63          	beq	a4,a5,10a48 <GpioBitsDebounceCfg+0xc4>
D:\CreateIC\01_CPIPC\riscv\RISCV_ENC_20220421\Firmware_true\app_prj\app_demo\Debug/../src/Bsp/Driver/hme_gpio.c:318 (discriminator 2)
   10a38:	13e00593          	li	a1,318
   10a3c:	000157b7          	lui	a5,0x15
   10a40:	06c78513          	addi	a0,a5,108 # 1506c <__init_array_end>
   10a44:	13d020ef          	jal	ra,13380 <assert_failed>
D:\CreateIC\01_CPIPC\riscv\RISCV_ENC_20220421\Firmware_true\app_prj\app_demo\Debug/../src/Bsp/Driver/hme_gpio.c:321

    //使能Gpio抖动使能和参数配置
	if (ucDbBounceEn == ENABLE)
   10a48:	feb44703          	lbu	a4,-21(s0)
   10a4c:	00100793          	li	a5,1
   10a50:	0af71c63          	bne	a4,a5,10b08 <GpioBitsDebounceCfg+0x184>
D:\CreateIC\01_CPIPC\riscv\RISCV_ENC_20220421\Firmware_true\app_prj\app_demo\Debug/../src/Bsp/Driver/hme_gpio.c:323
	{
		ulTemParam = pstGpioObj->pstCtrller->DEBOUNCECTRL;
   10a54:	fdc42783          	lw	a5,-36(s0)
   10a58:	0147a783          	lw	a5,20(a5)
   10a5c:	0747a783          	lw	a5,116(a5)
   10a60:	fef42623          	sw	a5,-20(s0)
D:\CreateIC\01_CPIPC\riscv\RISCV_ENC_20220421\Firmware_true\app_prj\app_demo\Debug/../src/Bsp/Driver/hme_gpio.c:324
		if (ucDbClkSel == EN_GPIO_DBCLK_TYPE_EXT)
   10a64:	fea44783          	lbu	a5,-22(s0)
   10a68:	02079e63          	bnez	a5,10aa4 <GpioBitsDebounceCfg+0x120>
D:\CreateIC\01_CPIPC\riscv\RISCV_ENC_20220421\Firmware_true\app_prj\app_demo\Debug/../src/Bsp/Driver/hme_gpio.c:326
		{
			ulTemParam = ulTemParam & (~(1 << 31));
   10a6c:	fec42703          	lw	a4,-20(s0)
   10a70:	800007b7          	lui	a5,0x80000
   10a74:	fff7c793          	not	a5,a5
   10a78:	00f777b3          	and	a5,a4,a5
   10a7c:	fef42623          	sw	a5,-20(s0)
D:\CreateIC\01_CPIPC\riscv\RISCV_ENC_20220421\Firmware_true\app_prj\app_demo\Debug/../src/Bsp/Driver/hme_gpio.c:327
			ulTemParam = ulTemParam | ucDBPreScale;
   10a80:	fe944783          	lbu	a5,-23(s0)
   10a84:	fec42703          	lw	a4,-20(s0)
   10a88:	00f767b3          	or	a5,a4,a5
   10a8c:	fef42623          	sw	a5,-20(s0)
D:\CreateIC\01_CPIPC\riscv\RISCV_ENC_20220421\Firmware_true\app_prj\app_demo\Debug/../src/Bsp/Driver/hme_gpio.c:328
			pstGpioObj->pstCtrller->DEBOUNCECTRL = ulTemParam;
   10a90:	fdc42783          	lw	a5,-36(s0)
   10a94:	0147a783          	lw	a5,20(a5) # 80000014 <__freertos_irq_stack_top+0x7ffc1a04>
   10a98:	fec42703          	lw	a4,-20(s0)
   10a9c:	06e7aa23          	sw	a4,116(a5)
   10aa0:	0340006f          	j	10ad4 <GpioBitsDebounceCfg+0x150>
D:\CreateIC\01_CPIPC\riscv\RISCV_ENC_20220421\Firmware_true\app_prj\app_demo\Debug/../src/Bsp/Driver/hme_gpio.c:332
		}
		else
		{
			ulTemParam = ulTemParam | (1 << 31);
   10aa4:	fec42703          	lw	a4,-20(s0)
   10aa8:	800007b7          	lui	a5,0x80000
   10aac:	00f767b3          	or	a5,a4,a5
   10ab0:	fef42623          	sw	a5,-20(s0)
D:\CreateIC\01_CPIPC\riscv\RISCV_ENC_20220421\Firmware_true\app_prj\app_demo\Debug/../src/Bsp/Driver/hme_gpio.c:333
			ulTemParam = ulTemParam | ucDBPreScale;
   10ab4:	fe944783          	lbu	a5,-23(s0)
   10ab8:	fec42703          	lw	a4,-20(s0)
   10abc:	00f767b3          	or	a5,a4,a5
   10ac0:	fef42623          	sw	a5,-20(s0)
D:\CreateIC\01_CPIPC\riscv\RISCV_ENC_20220421\Firmware_true\app_prj\app_demo\Debug/../src/Bsp/Driver/hme_gpio.c:334
			pstGpioObj->pstCtrller->DEBOUNCECTRL = ulTemParam;
   10ac4:	fdc42783          	lw	a5,-36(s0)
   10ac8:	0147a783          	lw	a5,20(a5) # 80000014 <__freertos_irq_stack_top+0x7ffc1a04>
   10acc:	fec42703          	lw	a4,-20(s0)
   10ad0:	06e7aa23          	sw	a4,116(a5)
D:\CreateIC\01_CPIPC\riscv\RISCV_ENC_20220421\Firmware_true\app_prj\app_demo\Debug/../src/Bsp/Driver/hme_gpio.c:338
		}


		ulTemParam = pstGpioObj->pstCtrller->DEBOUNCEEN;
   10ad4:	fdc42783          	lw	a5,-36(s0)
   10ad8:	0147a783          	lw	a5,20(a5)
   10adc:	0707a783          	lw	a5,112(a5)
   10ae0:	fef42623          	sw	a5,-20(s0)
D:\CreateIC\01_CPIPC\riscv\RISCV_ENC_20220421\Firmware_true\app_prj\app_demo\Debug/../src/Bsp/Driver/hme_gpio.c:339
		ulTemParam = ulTemParam | ulChannels;
   10ae4:	fec42703          	lw	a4,-20(s0)
   10ae8:	fe442783          	lw	a5,-28(s0)
   10aec:	00f767b3          	or	a5,a4,a5
   10af0:	fef42623          	sw	a5,-20(s0)
D:\CreateIC\01_CPIPC\riscv\RISCV_ENC_20220421\Firmware_true\app_prj\app_demo\Debug/../src/Bsp/Driver/hme_gpio.c:340
		pstGpioObj->pstCtrller->DEBOUNCEEN = ulTemParam;
   10af4:	fdc42783          	lw	a5,-36(s0)
   10af8:	0147a783          	lw	a5,20(a5)
   10afc:	fec42703          	lw	a4,-20(s0)
   10b00:	06e7a823          	sw	a4,112(a5)
D:\CreateIC\01_CPIPC\riscv\RISCV_ENC_20220421\Firmware_true\app_prj\app_demo\Debug/../src/Bsp/Driver/hme_gpio.c:349
		//禁止GPIO抖动设置
		ulTemParam = pstGpioObj->pstCtrller->DEBOUNCEEN;
		ulTemParam = ulTemParam & (~ulChannels);
		pstGpioObj->pstCtrller->DEBOUNCEEN = ulTemParam;
	}
}
   10b04:	0380006f          	j	10b3c <GpioBitsDebounceCfg+0x1b8>
D:\CreateIC\01_CPIPC\riscv\RISCV_ENC_20220421\Firmware_true\app_prj\app_demo\Debug/../src/Bsp/Driver/hme_gpio.c:345
		ulTemParam = pstGpioObj->pstCtrller->DEBOUNCEEN;
   10b08:	fdc42783          	lw	a5,-36(s0)
   10b0c:	0147a783          	lw	a5,20(a5)
   10b10:	0707a783          	lw	a5,112(a5)
   10b14:	fef42623          	sw	a5,-20(s0)
D:\CreateIC\01_CPIPC\riscv\RISCV_ENC_20220421\Firmware_true\app_prj\app_demo\Debug/../src/Bsp/Driver/hme_gpio.c:346
		ulTemParam = ulTemParam & (~ulChannels);
   10b18:	fe442783          	lw	a5,-28(s0)
   10b1c:	fff7c793          	not	a5,a5
   10b20:	fec42703          	lw	a4,-20(s0)
   10b24:	00f777b3          	and	a5,a4,a5
   10b28:	fef42623          	sw	a5,-20(s0)
D:\CreateIC\01_CPIPC\riscv\RISCV_ENC_20220421\Firmware_true\app_prj\app_demo\Debug/../src/Bsp/Driver/hme_gpio.c:347
		pstGpioObj->pstCtrller->DEBOUNCEEN = ulTemParam;
   10b2c:	fdc42783          	lw	a5,-36(s0)
   10b30:	0147a783          	lw	a5,20(a5)
   10b34:	fec42703          	lw	a4,-20(s0)
   10b38:	06e7a823          	sw	a4,112(a5)
D:\CreateIC\01_CPIPC\riscv\RISCV_ENC_20220421\Firmware_true\app_prj\app_demo\Debug/../src/Bsp/Driver/hme_gpio.c:349
}
   10b3c:	00000013          	nop
   10b40:	02c12083          	lw	ra,44(sp)
   10b44:	02812403          	lw	s0,40(sp)
   10b48:	03010113          	addi	sp,sp,48
   10b4c:	00008067          	ret

00010b50 <GpioBitsIntrCfg>:
GpioBitsIntrCfg():
D:\CreateIC\01_CPIPC\riscv\RISCV_ENC_20220421\Firmware_true\app_prj\app_demo\Debug/../src/Bsp/Driver/hme_gpio.c:382
 * @brief  GPIO中断使能配置
 * @param  pstGpioObj：GPIO设备对象
 * @retval 无
 *****************************************************************/
void GpioBitsIntrCfg(PST_GPIO_ATTR pstGpioObj)
{
   10b50:	fd010113          	addi	sp,sp,-48
   10b54:	02112623          	sw	ra,44(sp)
   10b58:	02812423          	sw	s0,40(sp)
   10b5c:	03010413          	addi	s0,sp,48
   10b60:	fca42e23          	sw	a0,-36(s0)
D:\CreateIC\01_CPIPC\riscv\RISCV_ENC_20220421\Firmware_true\app_prj\app_demo\Debug/../src/Bsp/Driver/hme_gpio.c:383
	assert_param(NULL != pstGpioObj);
   10b64:	fdc42783          	lw	a5,-36(s0)
   10b68:	00079a63          	bnez	a5,10b7c <GpioBitsIntrCfg+0x2c>
D:\CreateIC\01_CPIPC\riscv\RISCV_ENC_20220421\Firmware_true\app_prj\app_demo\Debug/../src/Bsp/Driver/hme_gpio.c:383 (discriminator 1)
   10b6c:	17f00593          	li	a1,383
   10b70:	000157b7          	lui	a5,0x15
   10b74:	06c78513          	addi	a0,a5,108 # 1506c <__init_array_end>
   10b78:	009020ef          	jal	ra,13380 <assert_failed>
D:\CreateIC\01_CPIPC\riscv\RISCV_ENC_20220421\Firmware_true\app_prj\app_demo\Debug/../src/Bsp/Driver/hme_gpio.c:384
	assert_param(NULL != pstGpioObj->pstCtrller);
   10b7c:	fdc42783          	lw	a5,-36(s0)
   10b80:	0147a783          	lw	a5,20(a5)
   10b84:	00079a63          	bnez	a5,10b98 <GpioBitsIntrCfg+0x48>
D:\CreateIC\01_CPIPC\riscv\RISCV_ENC_20220421\Firmware_true\app_prj\app_demo\Debug/../src/Bsp/Driver/hme_gpio.c:384 (discriminator 1)
   10b88:	18000593          	li	a1,384
   10b8c:	000157b7          	lui	a5,0x15
   10b90:	06c78513          	addi	a0,a5,108 # 1506c <__init_array_end>
   10b94:	7ec020ef          	jal	ra,13380 <assert_failed>
D:\CreateIC\01_CPIPC\riscv\RISCV_ENC_20220421\Firmware_true\app_prj\app_demo\Debug/../src/Bsp/Driver/hme_gpio.c:386

	uint32_t ulCount = 0;
   10b98:	fe042623          	sw	zero,-20(s0)
D:\CreateIC\01_CPIPC\riscv\RISCV_ENC_20220421\Firmware_true\app_prj\app_demo\Debug/../src/Bsp/Driver/hme_gpio.c:387
	uint32_t ulTemParam = 0;
   10b9c:	fe042423          	sw	zero,-24(s0)
D:\CreateIC\01_CPIPC\riscv\RISCV_ENC_20220421\Firmware_true\app_prj\app_demo\Debug/../src/Bsp/Driver/hme_gpio.c:388
	uint8_t  ucIntrEnFlag = pstGpioObj->stCfgParam.ucIntrEn;
   10ba0:	fdc42783          	lw	a5,-36(s0)
   10ba4:	0037c783          	lbu	a5,3(a5)
   10ba8:	fef403a3          	sb	a5,-25(s0)
D:\CreateIC\01_CPIPC\riscv\RISCV_ENC_20220421\Firmware_true\app_prj\app_demo\Debug/../src/Bsp/Driver/hme_gpio.c:389
	uint8_t  ucIntrMode   = pstGpioObj->stCfgParam.ucIntrMode;
   10bac:	fdc42783          	lw	a5,-36(s0)
   10bb0:	0047c783          	lbu	a5,4(a5)
   10bb4:	fef40323          	sb	a5,-26(s0)
D:\CreateIC\01_CPIPC\riscv\RISCV_ENC_20220421\Firmware_true\app_prj\app_demo\Debug/../src/Bsp/Driver/hme_gpio.c:390
	uint32_t ulChannels   = pstGpioObj->stCfgParam.ulChannels;
   10bb8:	fdc42783          	lw	a5,-36(s0)
   10bbc:	00c7a783          	lw	a5,12(a5)
   10bc0:	fef42023          	sw	a5,-32(s0)
D:\CreateIC\01_CPIPC\riscv\RISCV_ENC_20220421\Firmware_true\app_prj\app_demo\Debug/../src/Bsp/Driver/hme_gpio.c:392

	assert_param(IS_GPIO_ENABLE_TYPE(ucIntrEnFlag));
   10bc4:	fe744783          	lbu	a5,-25(s0)
   10bc8:	02078063          	beqz	a5,10be8 <GpioBitsIntrCfg+0x98>
D:\CreateIC\01_CPIPC\riscv\RISCV_ENC_20220421\Firmware_true\app_prj\app_demo\Debug/../src/Bsp/Driver/hme_gpio.c:392 (discriminator 1)
   10bcc:	fe744703          	lbu	a4,-25(s0)
   10bd0:	00100793          	li	a5,1
   10bd4:	00f70a63          	beq	a4,a5,10be8 <GpioBitsIntrCfg+0x98>
D:\CreateIC\01_CPIPC\riscv\RISCV_ENC_20220421\Firmware_true\app_prj\app_demo\Debug/../src/Bsp/Driver/hme_gpio.c:392 (discriminator 2)
   10bd8:	18800593          	li	a1,392
   10bdc:	000157b7          	lui	a5,0x15
   10be0:	06c78513          	addi	a0,a5,108 # 1506c <__init_array_end>
   10be4:	79c020ef          	jal	ra,13380 <assert_failed>
D:\CreateIC\01_CPIPC\riscv\RISCV_ENC_20220421\Firmware_true\app_prj\app_demo\Debug/../src/Bsp/Driver/hme_gpio.c:393
	assert_param(IS_GPIO_INTR_MODE(ucIntrMode));
   10be8:	fe644783          	lbu	a5,-26(s0)
   10bec:	04078863          	beqz	a5,10c3c <GpioBitsIntrCfg+0xec>
D:\CreateIC\01_CPIPC\riscv\RISCV_ENC_20220421\Firmware_true\app_prj\app_demo\Debug/../src/Bsp/Driver/hme_gpio.c:393 (discriminator 1)
   10bf0:	fe644703          	lbu	a4,-26(s0)
   10bf4:	00200793          	li	a5,2
   10bf8:	04f70263          	beq	a4,a5,10c3c <GpioBitsIntrCfg+0xec>
D:\CreateIC\01_CPIPC\riscv\RISCV_ENC_20220421\Firmware_true\app_prj\app_demo\Debug/../src/Bsp/Driver/hme_gpio.c:393 (discriminator 2)
   10bfc:	fe644703          	lbu	a4,-26(s0)
   10c00:	00300793          	li	a5,3
   10c04:	02f70c63          	beq	a4,a5,10c3c <GpioBitsIntrCfg+0xec>
D:\CreateIC\01_CPIPC\riscv\RISCV_ENC_20220421\Firmware_true\app_prj\app_demo\Debug/../src/Bsp/Driver/hme_gpio.c:393 (discriminator 3)
   10c08:	fe644703          	lbu	a4,-26(s0)
   10c0c:	00500793          	li	a5,5
   10c10:	02f70663          	beq	a4,a5,10c3c <GpioBitsIntrCfg+0xec>
D:\CreateIC\01_CPIPC\riscv\RISCV_ENC_20220421\Firmware_true\app_prj\app_demo\Debug/../src/Bsp/Driver/hme_gpio.c:393 (discriminator 4)
   10c14:	fe644703          	lbu	a4,-26(s0)
   10c18:	00600793          	li	a5,6
   10c1c:	02f70063          	beq	a4,a5,10c3c <GpioBitsIntrCfg+0xec>
D:\CreateIC\01_CPIPC\riscv\RISCV_ENC_20220421\Firmware_true\app_prj\app_demo\Debug/../src/Bsp/Driver/hme_gpio.c:393 (discriminator 5)
   10c20:	fe644703          	lbu	a4,-26(s0)
   10c24:	00700793          	li	a5,7
   10c28:	00f70a63          	beq	a4,a5,10c3c <GpioBitsIntrCfg+0xec>
D:\CreateIC\01_CPIPC\riscv\RISCV_ENC_20220421\Firmware_true\app_prj\app_demo\Debug/../src/Bsp/Driver/hme_gpio.c:393 (discriminator 6)
   10c2c:	18900593          	li	a1,393
   10c30:	000157b7          	lui	a5,0x15
   10c34:	06c78513          	addi	a0,a5,108 # 1506c <__init_array_end>
   10c38:	748020ef          	jal	ra,13380 <assert_failed>
D:\CreateIC\01_CPIPC\riscv\RISCV_ENC_20220421\Firmware_true\app_prj\app_demo\Debug/../src/Bsp/Driver/hme_gpio.c:395

	if (ucIntrEnFlag == ENABLE)
   10c3c:	fe744703          	lbu	a4,-25(s0)
   10c40:	00100793          	li	a5,1
   10c44:	1cf71463          	bne	a4,a5,10e0c <GpioBitsIntrCfg+0x2bc>
D:\CreateIC\01_CPIPC\riscv\RISCV_ENC_20220421\Firmware_true\app_prj\app_demo\Debug/../src/Bsp/Driver/hme_gpio.c:398
	{
        //GPIO设备中断使能配置
		ulTemParam = pstGpioObj->pstCtrller->INTREN;
   10c48:	fdc42783          	lw	a5,-36(s0)
   10c4c:	0147a783          	lw	a5,20(a5)
   10c50:	0507a783          	lw	a5,80(a5)
   10c54:	fef42423          	sw	a5,-24(s0)
D:\CreateIC\01_CPIPC\riscv\RISCV_ENC_20220421\Firmware_true\app_prj\app_demo\Debug/../src/Bsp/Driver/hme_gpio.c:399
		ulTemParam = ulTemParam | ulChannels;
   10c58:	fe842703          	lw	a4,-24(s0)
   10c5c:	fe042783          	lw	a5,-32(s0)
   10c60:	00f767b3          	or	a5,a4,a5
   10c64:	fef42423          	sw	a5,-24(s0)
D:\CreateIC\01_CPIPC\riscv\RISCV_ENC_20220421\Firmware_true\app_prj\app_demo\Debug/../src/Bsp/Driver/hme_gpio.c:400
		pstGpioObj->pstCtrller->INTREN = ulTemParam;
   10c68:	fdc42783          	lw	a5,-36(s0)
   10c6c:	0147a783          	lw	a5,20(a5)
   10c70:	fe842703          	lw	a4,-24(s0)
   10c74:	04e7a823          	sw	a4,80(a5)
D:\CreateIC\01_CPIPC\riscv\RISCV_ENC_20220421\Firmware_true\app_prj\app_demo\Debug/../src/Bsp/Driver/hme_gpio.c:401
		for (ulCount = 0; ulCount < 32; ulCount++)
   10c78:	fe042623          	sw	zero,-20(s0)
   10c7c:	1800006f          	j	10dfc <GpioBitsIntrCfg+0x2ac>
D:\CreateIC\01_CPIPC\riscv\RISCV_ENC_20220421\Firmware_true\app_prj\app_demo\Debug/../src/Bsp/Driver/hme_gpio.c:403
		{
			if (ulChannels & (1 << ulCount))
   10c80:	fec42783          	lw	a5,-20(s0)
   10c84:	00100713          	li	a4,1
   10c88:	00f717b3          	sll	a5,a4,a5
   10c8c:	00078713          	mv	a4,a5
   10c90:	fe042783          	lw	a5,-32(s0)
   10c94:	00f777b3          	and	a5,a4,a5
   10c98:	14078c63          	beqz	a5,10df0 <GpioBitsIntrCfg+0x2a0>
D:\CreateIC\01_CPIPC\riscv\RISCV_ENC_20220421\Firmware_true\app_prj\app_demo\Debug/../src/Bsp/Driver/hme_gpio.c:405
			{
				if (ulCount < 8)
   10c9c:	fec42703          	lw	a4,-20(s0)
   10ca0:	00700793          	li	a5,7
   10ca4:	04e7e463          	bltu	a5,a4,10cec <GpioBitsIntrCfg+0x19c>
D:\CreateIC\01_CPIPC\riscv\RISCV_ENC_20220421\Firmware_true\app_prj\app_demo\Debug/../src/Bsp/Driver/hme_gpio.c:407
				{
					ulTemParam = pstGpioObj->pstCtrller->INTRMODE0;
   10ca8:	fdc42783          	lw	a5,-36(s0)
   10cac:	0147a783          	lw	a5,20(a5)
   10cb0:	0547a783          	lw	a5,84(a5)
   10cb4:	fef42423          	sw	a5,-24(s0)
D:\CreateIC\01_CPIPC\riscv\RISCV_ENC_20220421\Firmware_true\app_prj\app_demo\Debug/../src/Bsp/Driver/hme_gpio.c:408
					ulTemParam = ulTemParam | (ucIntrMode << (ulCount * 4));
   10cb8:	fe644703          	lbu	a4,-26(s0)
   10cbc:	fec42783          	lw	a5,-20(s0)
   10cc0:	00279793          	slli	a5,a5,0x2
   10cc4:	00f717b3          	sll	a5,a4,a5
   10cc8:	00078713          	mv	a4,a5
   10ccc:	fe842783          	lw	a5,-24(s0)
   10cd0:	00e7e7b3          	or	a5,a5,a4
   10cd4:	fef42423          	sw	a5,-24(s0)
D:\CreateIC\01_CPIPC\riscv\RISCV_ENC_20220421\Firmware_true\app_prj\app_demo\Debug/../src/Bsp/Driver/hme_gpio.c:409
					pstGpioObj->pstCtrller->INTRMODE0 = ulTemParam;
   10cd8:	fdc42783          	lw	a5,-36(s0)
   10cdc:	0147a783          	lw	a5,20(a5)
   10ce0:	fe842703          	lw	a4,-24(s0)
   10ce4:	04e7aa23          	sw	a4,84(a5)
   10ce8:	1080006f          	j	10df0 <GpioBitsIntrCfg+0x2a0>
D:\CreateIC\01_CPIPC\riscv\RISCV_ENC_20220421\Firmware_true\app_prj\app_demo\Debug/../src/Bsp/Driver/hme_gpio.c:411
				}
				else if (ulCount < 16)
   10cec:	fec42703          	lw	a4,-20(s0)
   10cf0:	00f00793          	li	a5,15
   10cf4:	04e7ea63          	bltu	a5,a4,10d48 <GpioBitsIntrCfg+0x1f8>
D:\CreateIC\01_CPIPC\riscv\RISCV_ENC_20220421\Firmware_true\app_prj\app_demo\Debug/../src/Bsp/Driver/hme_gpio.c:413
				{
					ulTemParam = pstGpioObj->pstCtrller->INTRMODE1;
   10cf8:	fdc42783          	lw	a5,-36(s0)
   10cfc:	0147a783          	lw	a5,20(a5)
   10d00:	0587a783          	lw	a5,88(a5)
   10d04:	fef42423          	sw	a5,-24(s0)
D:\CreateIC\01_CPIPC\riscv\RISCV_ENC_20220421\Firmware_true\app_prj\app_demo\Debug/../src/Bsp/Driver/hme_gpio.c:414
					ulTemParam = ulTemParam | (ucIntrMode << ((ulCount - 8) * 4));
   10d08:	fe644703          	lbu	a4,-26(s0)
   10d0c:	fec42683          	lw	a3,-20(s0)
   10d10:	400007b7          	lui	a5,0x40000
   10d14:	ff878793          	addi	a5,a5,-8 # 3ffffff8 <__freertos_irq_stack_top+0x3ffc19e8>
   10d18:	00f687b3          	add	a5,a3,a5
   10d1c:	00279793          	slli	a5,a5,0x2
   10d20:	00f717b3          	sll	a5,a4,a5
   10d24:	00078713          	mv	a4,a5
   10d28:	fe842783          	lw	a5,-24(s0)
   10d2c:	00e7e7b3          	or	a5,a5,a4
   10d30:	fef42423          	sw	a5,-24(s0)
D:\CreateIC\01_CPIPC\riscv\RISCV_ENC_20220421\Firmware_true\app_prj\app_demo\Debug/../src/Bsp/Driver/hme_gpio.c:415
					pstGpioObj->pstCtrller->INTRMODE0 = ulTemParam;
   10d34:	fdc42783          	lw	a5,-36(s0)
   10d38:	0147a783          	lw	a5,20(a5)
   10d3c:	fe842703          	lw	a4,-24(s0)
   10d40:	04e7aa23          	sw	a4,84(a5)
   10d44:	0ac0006f          	j	10df0 <GpioBitsIntrCfg+0x2a0>
D:\CreateIC\01_CPIPC\riscv\RISCV_ENC_20220421\Firmware_true\app_prj\app_demo\Debug/../src/Bsp/Driver/hme_gpio.c:417
				}
				else if (ulCount < 24)
   10d48:	fec42703          	lw	a4,-20(s0)
   10d4c:	01700793          	li	a5,23
   10d50:	04e7ea63          	bltu	a5,a4,10da4 <GpioBitsIntrCfg+0x254>
D:\CreateIC\01_CPIPC\riscv\RISCV_ENC_20220421\Firmware_true\app_prj\app_demo\Debug/../src/Bsp/Driver/hme_gpio.c:419
				{
					ulTemParam = pstGpioObj->pstCtrller->INTRMODE2;
   10d54:	fdc42783          	lw	a5,-36(s0)
   10d58:	0147a783          	lw	a5,20(a5)
   10d5c:	05c7a783          	lw	a5,92(a5)
   10d60:	fef42423          	sw	a5,-24(s0)
D:\CreateIC\01_CPIPC\riscv\RISCV_ENC_20220421\Firmware_true\app_prj\app_demo\Debug/../src/Bsp/Driver/hme_gpio.c:420
					ulTemParam = ulTemParam | (ucIntrMode << ((ulCount - 16) * 4));
   10d64:	fe644703          	lbu	a4,-26(s0)
   10d68:	fec42683          	lw	a3,-20(s0)
   10d6c:	400007b7          	lui	a5,0x40000
   10d70:	ff078793          	addi	a5,a5,-16 # 3ffffff0 <__freertos_irq_stack_top+0x3ffc19e0>
   10d74:	00f687b3          	add	a5,a3,a5
   10d78:	00279793          	slli	a5,a5,0x2
   10d7c:	00f717b3          	sll	a5,a4,a5
   10d80:	00078713          	mv	a4,a5
   10d84:	fe842783          	lw	a5,-24(s0)
   10d88:	00e7e7b3          	or	a5,a5,a4
   10d8c:	fef42423          	sw	a5,-24(s0)
D:\CreateIC\01_CPIPC\riscv\RISCV_ENC_20220421\Firmware_true\app_prj\app_demo\Debug/../src/Bsp/Driver/hme_gpio.c:421
					pstGpioObj->pstCtrller->INTRMODE0 = ulTemParam;
   10d90:	fdc42783          	lw	a5,-36(s0)
   10d94:	0147a783          	lw	a5,20(a5)
   10d98:	fe842703          	lw	a4,-24(s0)
   10d9c:	04e7aa23          	sw	a4,84(a5)
   10da0:	0500006f          	j	10df0 <GpioBitsIntrCfg+0x2a0>
D:\CreateIC\01_CPIPC\riscv\RISCV_ENC_20220421\Firmware_true\app_prj\app_demo\Debug/../src/Bsp/Driver/hme_gpio.c:425
				}
				else
				{
					ulTemParam = pstGpioObj->pstCtrller->INTRMODE3;
   10da4:	fdc42783          	lw	a5,-36(s0)
   10da8:	0147a783          	lw	a5,20(a5)
   10dac:	0607a783          	lw	a5,96(a5)
   10db0:	fef42423          	sw	a5,-24(s0)
D:\CreateIC\01_CPIPC\riscv\RISCV_ENC_20220421\Firmware_true\app_prj\app_demo\Debug/../src/Bsp/Driver/hme_gpio.c:426
					ulTemParam = ulTemParam | (ucIntrMode << ((ulCount - 24) * 4));
   10db4:	fe644703          	lbu	a4,-26(s0)
   10db8:	fec42683          	lw	a3,-20(s0)
   10dbc:	400007b7          	lui	a5,0x40000
   10dc0:	fe878793          	addi	a5,a5,-24 # 3fffffe8 <__freertos_irq_stack_top+0x3ffc19d8>
   10dc4:	00f687b3          	add	a5,a3,a5
   10dc8:	00279793          	slli	a5,a5,0x2
   10dcc:	00f717b3          	sll	a5,a4,a5
   10dd0:	00078713          	mv	a4,a5
   10dd4:	fe842783          	lw	a5,-24(s0)
   10dd8:	00e7e7b3          	or	a5,a5,a4
   10ddc:	fef42423          	sw	a5,-24(s0)
D:\CreateIC\01_CPIPC\riscv\RISCV_ENC_20220421\Firmware_true\app_prj\app_demo\Debug/../src/Bsp/Driver/hme_gpio.c:427
					pstGpioObj->pstCtrller->INTRMODE0 = ulTemParam;
   10de0:	fdc42783          	lw	a5,-36(s0)
   10de4:	0147a783          	lw	a5,20(a5)
   10de8:	fe842703          	lw	a4,-24(s0)
   10dec:	04e7aa23          	sw	a4,84(a5)
D:\CreateIC\01_CPIPC\riscv\RISCV_ENC_20220421\Firmware_true\app_prj\app_demo\Debug/../src/Bsp/Driver/hme_gpio.c:401 (discriminator 2)
		for (ulCount = 0; ulCount < 32; ulCount++)
   10df0:	fec42783          	lw	a5,-20(s0)
   10df4:	00178793          	addi	a5,a5,1
   10df8:	fef42623          	sw	a5,-20(s0)
D:\CreateIC\01_CPIPC\riscv\RISCV_ENC_20220421\Firmware_true\app_prj\app_demo\Debug/../src/Bsp/Driver/hme_gpio.c:401 (discriminator 1)
   10dfc:	fec42703          	lw	a4,-20(s0)
   10e00:	01f00793          	li	a5,31
   10e04:	e6e7fee3          	bgeu	a5,a4,10c80 <GpioBitsIntrCfg+0x130>
D:\CreateIC\01_CPIPC\riscv\RISCV_ENC_20220421\Firmware_true\app_prj\app_demo\Debug/../src/Bsp/Driver/hme_gpio.c:437
	else
	{
		/***中断对应位禁止使能***/
		GpioBitsIntrDisable(pstGpioObj);
	}
}
   10e08:	00c0006f          	j	10e14 <GpioBitsIntrCfg+0x2c4>
D:\CreateIC\01_CPIPC\riscv\RISCV_ENC_20220421\Firmware_true\app_prj\app_demo\Debug/../src/Bsp/Driver/hme_gpio.c:435
		GpioBitsIntrDisable(pstGpioObj);
   10e0c:	fdc42503          	lw	a0,-36(s0)
   10e10:	018000ef          	jal	ra,10e28 <GpioBitsIntrDisable>
D:\CreateIC\01_CPIPC\riscv\RISCV_ENC_20220421\Firmware_true\app_prj\app_demo\Debug/../src/Bsp/Driver/hme_gpio.c:437
}
   10e14:	00000013          	nop
   10e18:	02c12083          	lw	ra,44(sp)
   10e1c:	02812403          	lw	s0,40(sp)
   10e20:	03010113          	addi	sp,sp,48
   10e24:	00008067          	ret

00010e28 <GpioBitsIntrDisable>:
GpioBitsIntrDisable():
D:\CreateIC\01_CPIPC\riscv\RISCV_ENC_20220421\Firmware_true\app_prj\app_demo\Debug/../src/Bsp/Driver/hme_gpio.c:500
 * @brief  GPIO中断禁止
 * @param  pstGpioObj：GPIO设备对象
 * @retval 无
 *****************************************************************/
void GpioBitsIntrDisable(PST_GPIO_ATTR pstGpioObj)
{
   10e28:	fd010113          	addi	sp,sp,-48
   10e2c:	02112623          	sw	ra,44(sp)
   10e30:	02812423          	sw	s0,40(sp)
   10e34:	03010413          	addi	s0,sp,48
   10e38:	fca42e23          	sw	a0,-36(s0)
D:\CreateIC\01_CPIPC\riscv\RISCV_ENC_20220421\Firmware_true\app_prj\app_demo\Debug/../src/Bsp/Driver/hme_gpio.c:501
	assert_param(NULL != pstGpioObj);
   10e3c:	fdc42783          	lw	a5,-36(s0)
   10e40:	00079a63          	bnez	a5,10e54 <GpioBitsIntrDisable+0x2c>
D:\CreateIC\01_CPIPC\riscv\RISCV_ENC_20220421\Firmware_true\app_prj\app_demo\Debug/../src/Bsp/Driver/hme_gpio.c:501 (discriminator 1)
   10e44:	1f500593          	li	a1,501
   10e48:	000157b7          	lui	a5,0x15
   10e4c:	06c78513          	addi	a0,a5,108 # 1506c <__init_array_end>
   10e50:	530020ef          	jal	ra,13380 <assert_failed>
D:\CreateIC\01_CPIPC\riscv\RISCV_ENC_20220421\Firmware_true\app_prj\app_demo\Debug/../src/Bsp/Driver/hme_gpio.c:502
	assert_param(NULL != pstGpioObj->pstCtrller);
   10e54:	fdc42783          	lw	a5,-36(s0)
   10e58:	0147a783          	lw	a5,20(a5)
   10e5c:	00079a63          	bnez	a5,10e70 <GpioBitsIntrDisable+0x48>
D:\CreateIC\01_CPIPC\riscv\RISCV_ENC_20220421\Firmware_true\app_prj\app_demo\Debug/../src/Bsp/Driver/hme_gpio.c:502 (discriminator 1)
   10e60:	1f600593          	li	a1,502
   10e64:	000157b7          	lui	a5,0x15
   10e68:	06c78513          	addi	a0,a5,108 # 1506c <__init_array_end>
   10e6c:	514020ef          	jal	ra,13380 <assert_failed>
D:\CreateIC\01_CPIPC\riscv\RISCV_ENC_20220421\Firmware_true\app_prj\app_demo\Debug/../src/Bsp/Driver/hme_gpio.c:504

	uint32_t ulTemParam = 0;
   10e70:	fe042623          	sw	zero,-20(s0)
D:\CreateIC\01_CPIPC\riscv\RISCV_ENC_20220421\Firmware_true\app_prj\app_demo\Debug/../src/Bsp/Driver/hme_gpio.c:505
	uint32_t ulChannels = pstGpioObj->stCfgParam.ulChannels;
   10e74:	fdc42783          	lw	a5,-36(s0)
   10e78:	00c7a783          	lw	a5,12(a5)
   10e7c:	fef42423          	sw	a5,-24(s0)
D:\CreateIC\01_CPIPC\riscv\RISCV_ENC_20220421\Firmware_true\app_prj\app_demo\Debug/../src/Bsp/Driver/hme_gpio.c:507

	ulTemParam = pstGpioObj->pstCtrller->INTREN;
   10e80:	fdc42783          	lw	a5,-36(s0)
   10e84:	0147a783          	lw	a5,20(a5)
   10e88:	0507a783          	lw	a5,80(a5)
   10e8c:	fef42623          	sw	a5,-20(s0)
D:\CreateIC\01_CPIPC\riscv\RISCV_ENC_20220421\Firmware_true\app_prj\app_demo\Debug/../src/Bsp/Driver/hme_gpio.c:508
	ulTemParam = ulTemParam & (~ulChannels);
   10e90:	fe842783          	lw	a5,-24(s0)
   10e94:	fff7c793          	not	a5,a5
   10e98:	fec42703          	lw	a4,-20(s0)
   10e9c:	00f777b3          	and	a5,a4,a5
   10ea0:	fef42623          	sw	a5,-20(s0)
D:\CreateIC\01_CPIPC\riscv\RISCV_ENC_20220421\Firmware_true\app_prj\app_demo\Debug/../src/Bsp/Driver/hme_gpio.c:509
	pstGpioObj->pstCtrller->INTREN = ulTemParam;
   10ea4:	fdc42783          	lw	a5,-36(s0)
   10ea8:	0147a783          	lw	a5,20(a5)
   10eac:	fec42703          	lw	a4,-20(s0)
   10eb0:	04e7a823          	sw	a4,80(a5)
D:\CreateIC\01_CPIPC\riscv\RISCV_ENC_20220421\Firmware_true\app_prj\app_demo\Debug/../src/Bsp/Driver/hme_gpio.c:510
}
   10eb4:	00000013          	nop
   10eb8:	02c12083          	lw	ra,44(sp)
   10ebc:	02812403          	lw	s0,40(sp)
   10ec0:	03010113          	addi	sp,sp,48
   10ec4:	00008067          	ret

00010ec8 <GpioIntrStateGet>:
GpioIntrStateGet():
D:\CreateIC\01_CPIPC\riscv\RISCV_ENC_20220421\Firmware_true\app_prj\app_demo\Debug/../src/Bsp/Driver/hme_gpio.c:518
 * @brief  GPIO中断状态获取
 * @param  pstGpioObj：GPIO设备对象
 * @retval 无
 *****************************************************************/
uint32_t GpioIntrStateGet(PST_GPIO_ATTR pstGpioObj)
{
   10ec8:	fe010113          	addi	sp,sp,-32
   10ecc:	00112e23          	sw	ra,28(sp)
   10ed0:	00812c23          	sw	s0,24(sp)
   10ed4:	02010413          	addi	s0,sp,32
   10ed8:	fea42623          	sw	a0,-20(s0)
D:\CreateIC\01_CPIPC\riscv\RISCV_ENC_20220421\Firmware_true\app_prj\app_demo\Debug/../src/Bsp/Driver/hme_gpio.c:519
	assert_param(NULL != pstGpioObj);
   10edc:	fec42783          	lw	a5,-20(s0)
   10ee0:	00079a63          	bnez	a5,10ef4 <GpioIntrStateGet+0x2c>
D:\CreateIC\01_CPIPC\riscv\RISCV_ENC_20220421\Firmware_true\app_prj\app_demo\Debug/../src/Bsp/Driver/hme_gpio.c:519 (discriminator 1)
   10ee4:	20700593          	li	a1,519
   10ee8:	000157b7          	lui	a5,0x15
   10eec:	06c78513          	addi	a0,a5,108 # 1506c <__init_array_end>
   10ef0:	490020ef          	jal	ra,13380 <assert_failed>
D:\CreateIC\01_CPIPC\riscv\RISCV_ENC_20220421\Firmware_true\app_prj\app_demo\Debug/../src/Bsp/Driver/hme_gpio.c:520
	assert_param(NULL != pstGpioObj->pstCtrller);
   10ef4:	fec42783          	lw	a5,-20(s0)
   10ef8:	0147a783          	lw	a5,20(a5)
   10efc:	00079a63          	bnez	a5,10f10 <GpioIntrStateGet+0x48>
D:\CreateIC\01_CPIPC\riscv\RISCV_ENC_20220421\Firmware_true\app_prj\app_demo\Debug/../src/Bsp/Driver/hme_gpio.c:520 (discriminator 1)
   10f00:	20800593          	li	a1,520
   10f04:	000157b7          	lui	a5,0x15
   10f08:	06c78513          	addi	a0,a5,108 # 1506c <__init_array_end>
   10f0c:	474020ef          	jal	ra,13380 <assert_failed>
D:\CreateIC\01_CPIPC\riscv\RISCV_ENC_20220421\Firmware_true\app_prj\app_demo\Debug/../src/Bsp/Driver/hme_gpio.c:522

	return pstGpioObj->pstCtrller->INTRSTATUS;
   10f10:	fec42783          	lw	a5,-20(s0)
   10f14:	0147a783          	lw	a5,20(a5)
   10f18:	0647a783          	lw	a5,100(a5)
D:\CreateIC\01_CPIPC\riscv\RISCV_ENC_20220421\Firmware_true\app_prj\app_demo\Debug/../src/Bsp/Driver/hme_gpio.c:523
}
   10f1c:	00078513          	mv	a0,a5
   10f20:	01c12083          	lw	ra,28(sp)
   10f24:	01812403          	lw	s0,24(sp)
   10f28:	02010113          	addi	sp,sp,32
   10f2c:	00008067          	ret

00010f30 <GpioIntrStateClear>:
GpioIntrStateClear():
D:\CreateIC\01_CPIPC\riscv\RISCV_ENC_20220421\Firmware_true\app_prj\app_demo\Debug/../src/Bsp/Driver/hme_gpio.c:531
 * @brief  GPIO中断状态清除
 * @param  pstGpioObj：GPIO设备对象，ulIntrClearParam：中断清除端口参数
 * @retval 无
 *****************************************************************/
void GpioIntrStateClear(PST_GPIO_ATTR pstGpioObj, uint32_t ulIntrClearParam)
{
   10f30:	fe010113          	addi	sp,sp,-32
   10f34:	00112e23          	sw	ra,28(sp)
   10f38:	00812c23          	sw	s0,24(sp)
   10f3c:	02010413          	addi	s0,sp,32
   10f40:	fea42623          	sw	a0,-20(s0)
   10f44:	feb42423          	sw	a1,-24(s0)
D:\CreateIC\01_CPIPC\riscv\RISCV_ENC_20220421\Firmware_true\app_prj\app_demo\Debug/../src/Bsp/Driver/hme_gpio.c:532
	assert_param(NULL != pstGpioObj);
   10f48:	fec42783          	lw	a5,-20(s0)
   10f4c:	00079a63          	bnez	a5,10f60 <GpioIntrStateClear+0x30>
D:\CreateIC\01_CPIPC\riscv\RISCV_ENC_20220421\Firmware_true\app_prj\app_demo\Debug/../src/Bsp/Driver/hme_gpio.c:532 (discriminator 1)
   10f50:	21400593          	li	a1,532
   10f54:	000157b7          	lui	a5,0x15
   10f58:	06c78513          	addi	a0,a5,108 # 1506c <__init_array_end>
   10f5c:	424020ef          	jal	ra,13380 <assert_failed>
D:\CreateIC\01_CPIPC\riscv\RISCV_ENC_20220421\Firmware_true\app_prj\app_demo\Debug/../src/Bsp/Driver/hme_gpio.c:533
	assert_param(NULL != pstGpioObj->pstCtrller);
   10f60:	fec42783          	lw	a5,-20(s0)
   10f64:	0147a783          	lw	a5,20(a5)
   10f68:	00079a63          	bnez	a5,10f7c <GpioIntrStateClear+0x4c>
D:\CreateIC\01_CPIPC\riscv\RISCV_ENC_20220421\Firmware_true\app_prj\app_demo\Debug/../src/Bsp/Driver/hme_gpio.c:533 (discriminator 1)
   10f6c:	21500593          	li	a1,533
   10f70:	000157b7          	lui	a5,0x15
   10f74:	06c78513          	addi	a0,a5,108 # 1506c <__init_array_end>
   10f78:	408020ef          	jal	ra,13380 <assert_failed>
D:\CreateIC\01_CPIPC\riscv\RISCV_ENC_20220421\Firmware_true\app_prj\app_demo\Debug/../src/Bsp/Driver/hme_gpio.c:535

    pstGpioObj->pstCtrller->INTRSTATUS = ulIntrClearParam;
   10f7c:	fec42783          	lw	a5,-20(s0)
   10f80:	0147a783          	lw	a5,20(a5)
   10f84:	fe842703          	lw	a4,-24(s0)
   10f88:	06e7a223          	sw	a4,100(a5)
D:\CreateIC\01_CPIPC\riscv\RISCV_ENC_20220421\Firmware_true\app_prj\app_demo\Debug/../src/Bsp/Driver/hme_gpio.c:536
}
   10f8c:	00000013          	nop
   10f90:	01c12083          	lw	ra,28(sp)
   10f94:	01812403          	lw	s0,24(sp)
   10f98:	02010113          	addi	sp,sp,32
   10f9c:	00008067          	ret

00010fa0 <PlicGpioHandle>:
PlicGpioHandle():
D:\CreateIC\01_CPIPC\riscv\RISCV_ENC_20220421\Firmware_true\app_prj\app_demo\Debug/../src/Bsp/Driver/hme_gpio.c:544
 * @brief  GPIO中断处理接口
 * @param  ptrBackCall：回调参数
 * @retval 无
 *****************************************************************/
void PlicGpioHandle(void * ptrBackCall)
{
   10fa0:	fd010113          	addi	sp,sp,-48
   10fa4:	02112623          	sw	ra,44(sp)
   10fa8:	02812423          	sw	s0,40(sp)
   10fac:	03010413          	addi	s0,sp,48
   10fb0:	fca42e23          	sw	a0,-36(s0)
D:\CreateIC\01_CPIPC\riscv\RISCV_ENC_20220421\Firmware_true\app_prj\app_demo\Debug/../src/Bsp/Driver/hme_gpio.c:545
	uint32_t ulIntrState = 0;
   10fb4:	fe042623          	sw	zero,-20(s0)
D:\CreateIC\01_CPIPC\riscv\RISCV_ENC_20220421\Firmware_true\app_prj\app_demo\Debug/../src/Bsp/Driver/hme_gpio.c:546
	PST_GPIO_ATTR ptrGpioObj = NULL;
   10fb8:	fe042423          	sw	zero,-24(s0)
D:\CreateIC\01_CPIPC\riscv\RISCV_ENC_20220421\Firmware_true\app_prj\app_demo\Debug/../src/Bsp/Driver/hme_gpio.c:547
	if (NULL != ptrBackCall)
   10fbc:	fdc42783          	lw	a5,-36(s0)
   10fc0:	02078a63          	beqz	a5,10ff4 <PlicGpioHandle+0x54>
D:\CreateIC\01_CPIPC\riscv\RISCV_ENC_20220421\Firmware_true\app_prj\app_demo\Debug/../src/Bsp/Driver/hme_gpio.c:549
	{
		ptrGpioObj = (PST_GPIO_ATTR)ptrBackCall;
   10fc4:	fdc42783          	lw	a5,-36(s0)
   10fc8:	fef42423          	sw	a5,-24(s0)
D:\CreateIC\01_CPIPC\riscv\RISCV_ENC_20220421\Firmware_true\app_prj\app_demo\Debug/../src/Bsp/Driver/hme_gpio.c:551
		//读取中断状态
		ulIntrState = GpioIntrStateGet(ptrGpioObj);
   10fcc:	fe842503          	lw	a0,-24(s0)
   10fd0:	ef9ff0ef          	jal	ra,10ec8 <GpioIntrStateGet>
   10fd4:	fea42623          	sw	a0,-20(s0)
D:\CreateIC\01_CPIPC\riscv\RISCV_ENC_20220421\Firmware_true\app_prj\app_demo\Debug/../src/Bsp/Driver/hme_gpio.c:553
		//执行中断检索和调度
		GpioIntrDispatch(ptrGpioObj, ulIntrState);
   10fd8:	fec42583          	lw	a1,-20(s0)
   10fdc:	fe842503          	lw	a0,-24(s0)
   10fe0:	034000ef          	jal	ra,11014 <GpioIntrDispatch>
D:\CreateIC\01_CPIPC\riscv\RISCV_ENC_20220421\Firmware_true\app_prj\app_demo\Debug/../src/Bsp/Driver/hme_gpio.c:555
		//清楚GPIO的中断 写中断状态对应的bit位
		GpioIntrStateClear(ptrGpioObj, ulIntrState);
   10fe4:	fec42583          	lw	a1,-20(s0)
   10fe8:	fe842503          	lw	a0,-24(s0)
   10fec:	f45ff0ef          	jal	ra,10f30 <GpioIntrStateClear>
D:\CreateIC\01_CPIPC\riscv\RISCV_ENC_20220421\Firmware_true\app_prj\app_demo\Debug/../src/Bsp/Driver/hme_gpio.c:561
	}
	else
	{
		printf("PLIC Gpio Interrupt Err...!\n");
	}
}
   10ff0:	0100006f          	j	11000 <PlicGpioHandle+0x60>
D:\CreateIC\01_CPIPC\riscv\RISCV_ENC_20220421\Firmware_true\app_prj\app_demo\Debug/../src/Bsp/Driver/hme_gpio.c:559
		printf("PLIC Gpio Interrupt Err...!\n");
   10ff4:	000157b7          	lui	a5,0x15
   10ff8:	08c78513          	addi	a0,a5,140 # 1508c <__init_array_end+0x20>
   10ffc:	69d020ef          	jal	ra,13e98 <puts>
D:\CreateIC\01_CPIPC\riscv\RISCV_ENC_20220421\Firmware_true\app_prj\app_demo\Debug/../src/Bsp/Driver/hme_gpio.c:561
}
   11000:	00000013          	nop
   11004:	02c12083          	lw	ra,44(sp)
   11008:	02812403          	lw	s0,40(sp)
   1100c:	03010113          	addi	sp,sp,48
   11010:	00008067          	ret

00011014 <GpioIntrDispatch>:
GpioIntrDispatch():
D:\CreateIC\01_CPIPC\riscv\RISCV_ENC_20220421\Firmware_true\app_prj\app_demo\Debug/../src/Bsp/Driver/hme_gpio.c:569
 * @brief  GPIO中断分配
 * @param  pstGpioObj: GPIO设备对象指针， ulIntrParam：分配参数
 * @retval 无
 *****************************************************************/
void GpioIntrDispatch(PST_GPIO_ATTR pstGpioObj, uint32_t ulIntrParam)
{
   11014:	fd010113          	addi	sp,sp,-48
   11018:	02112623          	sw	ra,44(sp)
   1101c:	02812423          	sw	s0,40(sp)
   11020:	03010413          	addi	s0,sp,48
   11024:	fca42e23          	sw	a0,-36(s0)
   11028:	fcb42c23          	sw	a1,-40(s0)
D:\CreateIC\01_CPIPC\riscv\RISCV_ENC_20220421\Firmware_true\app_prj\app_demo\Debug/../src/Bsp/Driver/hme_gpio.c:570
	uint32_t ulCount = 0;
   1102c:	fe042623          	sw	zero,-20(s0)
D:\CreateIC\01_CPIPC\riscv\RISCV_ENC_20220421\Firmware_true\app_prj\app_demo\Debug/../src/Bsp/Driver/hme_gpio.c:571
	for (ulCount = 0; ulCount < 32; ulCount++)
   11030:	fe042623          	sw	zero,-20(s0)
   11034:	02c0006f          	j	11060 <GpioIntrDispatch+0x4c>
D:\CreateIC\01_CPIPC\riscv\RISCV_ENC_20220421\Firmware_true\app_prj\app_demo\Debug/../src/Bsp/Driver/hme_gpio.c:573
	{
		if (ulIntrParam & (1 << ulCount))
   11038:	fec42783          	lw	a5,-20(s0)
   1103c:	00100713          	li	a4,1
   11040:	00f717b3          	sll	a5,a4,a5
   11044:	00078713          	mv	a4,a5
   11048:	fd842783          	lw	a5,-40(s0)
   1104c:	00f777b3          	and	a5,a4,a5
   11050:	02079063          	bnez	a5,11070 <GpioIntrDispatch+0x5c>
D:\CreateIC\01_CPIPC\riscv\RISCV_ENC_20220421\Firmware_true\app_prj\app_demo\Debug/../src/Bsp/Driver/hme_gpio.c:571 (discriminator 2)
	for (ulCount = 0; ulCount < 32; ulCount++)
   11054:	fec42783          	lw	a5,-20(s0)
   11058:	00178793          	addi	a5,a5,1
   1105c:	fef42623          	sw	a5,-20(s0)
D:\CreateIC\01_CPIPC\riscv\RISCV_ENC_20220421\Firmware_true\app_prj\app_demo\Debug/../src/Bsp/Driver/hme_gpio.c:571 (discriminator 1)
   11060:	fec42703          	lw	a4,-20(s0)
   11064:	01f00793          	li	a5,31
   11068:	fce7f8e3          	bgeu	a5,a4,11038 <GpioIntrDispatch+0x24>
   1106c:	0080006f          	j	11074 <GpioIntrDispatch+0x60>
D:\CreateIC\01_CPIPC\riscv\RISCV_ENC_20220421\Firmware_true\app_prj\app_demo\Debug/../src/Bsp/Driver/hme_gpio.c:575
		{
			break;
   11070:	00000013          	nop
   11074:	fec42783          	lw	a5,-20(s0)
   11078:	fff78713          	addi	a4,a5,-1
D:\CreateIC\01_CPIPC\riscv\RISCV_ENC_20220421\Firmware_true\app_prj\app_demo\Debug/../src/Bsp/Driver/hme_gpio.c:579
		}
	}

	switch (ulCount)
   1107c:	01f00793          	li	a5,31
   11080:	00e7e863          	bltu	a5,a4,11090 <GpioIntrDispatch+0x7c>
D:\CreateIC\01_CPIPC\riscv\RISCV_ENC_20220421\Firmware_true\app_prj\app_demo\Debug/../src/Bsp/Driver/hme_gpio.c:614
	    case 29:
	    case 30:
	    case 31:
	    case 32:
	    {
	    	GpioIntrExecute(pstGpioObj);
   11084:	fdc42503          	lw	a0,-36(s0)
   11088:	020000ef          	jal	ra,110a8 <GpioIntrExecute>
D:\CreateIC\01_CPIPC\riscv\RISCV_ENC_20220421\Firmware_true\app_prj\app_demo\Debug/../src/Bsp/Driver/hme_gpio.c:615
	    	break;
   1108c:	0080006f          	j	11094 <GpioIntrDispatch+0x80>
D:\CreateIC\01_CPIPC\riscv\RISCV_ENC_20220421\Firmware_true\app_prj\app_demo\Debug/../src/Bsp/Driver/hme_gpio.c:618
	    }
	    default:
	    	break;
   11090:	00000013          	nop
D:\CreateIC\01_CPIPC\riscv\RISCV_ENC_20220421\Firmware_true\app_prj\app_demo\Debug/../src/Bsp/Driver/hme_gpio.c:621
	}

}
   11094:	00000013          	nop
   11098:	02c12083          	lw	ra,44(sp)
   1109c:	02812403          	lw	s0,40(sp)
   110a0:	03010113          	addi	sp,sp,48
   110a4:	00008067          	ret

000110a8 <GpioIntrExecute>:
GpioIntrExecute():
D:\CreateIC\01_CPIPC\riscv\RISCV_ENC_20220421\Firmware_true\app_prj\app_demo\Debug/../src/Bsp/Driver/hme_gpio.c:630
 * @param  pstGpioObj：GPIO设备对象指针
 * @retval 无
 * 注意：该接口预留，只作为测试处理
 *****************************************************************/
void GpioIntrExecute(PST_GPIO_ATTR pstGpioObj)
{
   110a8:	fe010113          	addi	sp,sp,-32
   110ac:	00112e23          	sw	ra,28(sp)
   110b0:	00812c23          	sw	s0,24(sp)
   110b4:	02010413          	addi	s0,sp,32
   110b8:	fea42623          	sw	a0,-20(s0)
D:\CreateIC\01_CPIPC\riscv\RISCV_ENC_20220421\Firmware_true\app_prj\app_demo\Debug/../src/Bsp/Driver/hme_gpio.c:631
	printf ("PLIC Gpio Interrupt Execute....\n");
   110bc:	000157b7          	lui	a5,0x15
   110c0:	0a878513          	addi	a0,a5,168 # 150a8 <__init_array_end+0x3c>
   110c4:	5d5020ef          	jal	ra,13e98 <puts>
D:\CreateIC\01_CPIPC\riscv\RISCV_ENC_20220421\Firmware_true\app_prj\app_demo\Debug/../src/Bsp/Driver/hme_gpio.c:632
}
   110c8:	00000013          	nop
   110cc:	01c12083          	lw	ra,28(sp)
   110d0:	01812403          	lw	s0,24(sp)
   110d4:	02010113          	addi	sp,sp,32
   110d8:	00008067          	ret

000110dc <PlicClaimGet>:
PlicClaimGet():
D:\CreateIC\01_CPIPC\riscv\RISCV_ENC_20220421\Firmware_true\app_prj\app_demo\Debug/../src/Bsp/Driver/hme_plic.c:41
 * @brief  PLIC中断通知获取
 * @param  无
 * @retval uint16_t：返回中断ID
 *****************************************************************/
uint16_t PlicClaimGet(void)
{
   110dc:	fe010113          	addi	sp,sp,-32
   110e0:	00812e23          	sw	s0,28(sp)
   110e4:	02010413          	addi	s0,sp,32
D:\CreateIC\01_CPIPC\riscv\RISCV_ENC_20220421\Firmware_true\app_prj\app_demo\Debug/../src/Bsp/Driver/hme_plic.c:42
	uint16_t usClaimVal = EN_DEV_ID_0;
   110e8:	fe041723          	sh	zero,-18(s0)
D:\CreateIC\01_CPIPC\riscv\RISCV_ENC_20220421\Firmware_true\app_prj\app_demo\Debug/../src/Bsp/Driver/hme_plic.c:43
	usClaimVal = ReadReg32(PLIC_BASE_ADDR + DEF_PLIC_INT_CLAIM_OFFSET);
   110ec:	f8e007b7          	lui	a5,0xf8e00
   110f0:	00478793          	addi	a5,a5,4 # f8e00004 <__freertos_irq_stack_top+0xf8dc19f4>
   110f4:	0007a783          	lw	a5,0(a5)
   110f8:	fef41723          	sh	a5,-18(s0)
D:\CreateIC\01_CPIPC\riscv\RISCV_ENC_20220421\Firmware_true\app_prj\app_demo\Debug/../src/Bsp/Driver/hme_plic.c:44
    return usClaimVal;
   110fc:	fee45783          	lhu	a5,-18(s0)
D:\CreateIC\01_CPIPC\riscv\RISCV_ENC_20220421\Firmware_true\app_prj\app_demo\Debug/../src/Bsp/Driver/hme_plic.c:45
}
   11100:	00078513          	mv	a0,a5
   11104:	01c12403          	lw	s0,28(sp)
   11108:	02010113          	addi	sp,sp,32
   1110c:	00008067          	ret

00011110 <PlicFinishNotice>:
PlicFinishNotice():
D:\CreateIC\01_CPIPC\riscv\RISCV_ENC_20220421\Firmware_true\app_prj\app_demo\Debug/../src/Bsp/Driver/hme_plic.c:53
 * @brief  PLIC中断完成通知
 * @param  usIntrId：中断ID
 * @retval 无
 *****************************************************************/
void PlicFinishNotice(uint16_t usIntrId)
{
   11110:	fe010113          	addi	sp,sp,-32
   11114:	00812e23          	sw	s0,28(sp)
   11118:	02010413          	addi	s0,sp,32
   1111c:	00050793          	mv	a5,a0
   11120:	fef41723          	sh	a5,-18(s0)
D:\CreateIC\01_CPIPC\riscv\RISCV_ENC_20220421\Firmware_true\app_prj\app_demo\Debug/../src/Bsp/Driver/hme_plic.c:54
	WriteReg32(PLIC_BASE_ADDR + DEF_PLIC_INT_FINISH_OFFSET, usIntrId);
   11124:	f8e007b7          	lui	a5,0xf8e00
   11128:	00478793          	addi	a5,a5,4 # f8e00004 <__freertos_irq_stack_top+0xf8dc19f4>
   1112c:	fee45703          	lhu	a4,-18(s0)
   11130:	00e7a023          	sw	a4,0(a5)
D:\CreateIC\01_CPIPC\riscv\RISCV_ENC_20220421\Firmware_true\app_prj\app_demo\Debug/../src/Bsp/Driver/hme_plic.c:55
}
   11134:	00000013          	nop
   11138:	01c12403          	lw	s0,28(sp)
   1113c:	02010113          	addi	sp,sp,32
   11140:	00008067          	ret

00011144 <DevIntrIdTableGet>:
DevIntrIdTableGet():
D:\CreateIC\01_CPIPC\riscv\RISCV_ENC_20220421\Firmware_true\app_prj\app_demo\Debug/../src/Bsp/Driver/hme_plic.c:84
 * @brief  根据设备ID查找中断ID
 * @param  usDevId：设备ID
 * @retval uint16_t：返回中断ID
 *****************************************************************/
uint16_t DevIntrIdTableGet(uint16_t usDevId)
{
   11144:	fe010113          	addi	sp,sp,-32
   11148:	00112e23          	sw	ra,28(sp)
   1114c:	00812c23          	sw	s0,24(sp)
   11150:	02010413          	addi	s0,sp,32
   11154:	00050793          	mv	a5,a0
   11158:	fef41723          	sh	a5,-18(s0)
D:\CreateIC\01_CPIPC\riscv\RISCV_ENC_20220421\Firmware_true\app_prj\app_demo\Debug/../src/Bsp/Driver/hme_plic.c:85
	assert_param(IS_DEV_ID(usDevId));
   1115c:	fee45783          	lhu	a5,-18(s0)
   11160:	0a078263          	beqz	a5,11204 <DevIntrIdTableGet+0xc0>
D:\CreateIC\01_CPIPC\riscv\RISCV_ENC_20220421\Firmware_true\app_prj\app_demo\Debug/../src/Bsp/Driver/hme_plic.c:85 (discriminator 1)
   11164:	fee45703          	lhu	a4,-18(s0)
   11168:	00100793          	li	a5,1
   1116c:	08f70c63          	beq	a4,a5,11204 <DevIntrIdTableGet+0xc0>
D:\CreateIC\01_CPIPC\riscv\RISCV_ENC_20220421\Firmware_true\app_prj\app_demo\Debug/../src/Bsp/Driver/hme_plic.c:85 (discriminator 2)
   11170:	fee45703          	lhu	a4,-18(s0)
   11174:	00200793          	li	a5,2
   11178:	08f70663          	beq	a4,a5,11204 <DevIntrIdTableGet+0xc0>
D:\CreateIC\01_CPIPC\riscv\RISCV_ENC_20220421\Firmware_true\app_prj\app_demo\Debug/../src/Bsp/Driver/hme_plic.c:85 (discriminator 3)
   1117c:	fee45703          	lhu	a4,-18(s0)
   11180:	00300793          	li	a5,3
   11184:	08f70063          	beq	a4,a5,11204 <DevIntrIdTableGet+0xc0>
D:\CreateIC\01_CPIPC\riscv\RISCV_ENC_20220421\Firmware_true\app_prj\app_demo\Debug/../src/Bsp/Driver/hme_plic.c:85 (discriminator 4)
   11188:	fee45703          	lhu	a4,-18(s0)
   1118c:	00400793          	li	a5,4
   11190:	06f70a63          	beq	a4,a5,11204 <DevIntrIdTableGet+0xc0>
D:\CreateIC\01_CPIPC\riscv\RISCV_ENC_20220421\Firmware_true\app_prj\app_demo\Debug/../src/Bsp/Driver/hme_plic.c:85 (discriminator 5)
   11194:	fee45703          	lhu	a4,-18(s0)
   11198:	00500793          	li	a5,5
   1119c:	06f70463          	beq	a4,a5,11204 <DevIntrIdTableGet+0xc0>
D:\CreateIC\01_CPIPC\riscv\RISCV_ENC_20220421\Firmware_true\app_prj\app_demo\Debug/../src/Bsp/Driver/hme_plic.c:85 (discriminator 6)
   111a0:	fee45703          	lhu	a4,-18(s0)
   111a4:	00600793          	li	a5,6
   111a8:	04f70e63          	beq	a4,a5,11204 <DevIntrIdTableGet+0xc0>
D:\CreateIC\01_CPIPC\riscv\RISCV_ENC_20220421\Firmware_true\app_prj\app_demo\Debug/../src/Bsp/Driver/hme_plic.c:85 (discriminator 7)
   111ac:	fee45703          	lhu	a4,-18(s0)
   111b0:	00700793          	li	a5,7
   111b4:	04f70863          	beq	a4,a5,11204 <DevIntrIdTableGet+0xc0>
D:\CreateIC\01_CPIPC\riscv\RISCV_ENC_20220421\Firmware_true\app_prj\app_demo\Debug/../src/Bsp/Driver/hme_plic.c:85 (discriminator 8)
   111b8:	fee45703          	lhu	a4,-18(s0)
   111bc:	00800793          	li	a5,8
   111c0:	04f70263          	beq	a4,a5,11204 <DevIntrIdTableGet+0xc0>
D:\CreateIC\01_CPIPC\riscv\RISCV_ENC_20220421\Firmware_true\app_prj\app_demo\Debug/../src/Bsp/Driver/hme_plic.c:85 (discriminator 9)
   111c4:	fee45703          	lhu	a4,-18(s0)
   111c8:	00900793          	li	a5,9
   111cc:	02f70c63          	beq	a4,a5,11204 <DevIntrIdTableGet+0xc0>
D:\CreateIC\01_CPIPC\riscv\RISCV_ENC_20220421\Firmware_true\app_prj\app_demo\Debug/../src/Bsp/Driver/hme_plic.c:85 (discriminator 10)
   111d0:	fee45703          	lhu	a4,-18(s0)
   111d4:	00a00793          	li	a5,10
   111d8:	02f70663          	beq	a4,a5,11204 <DevIntrIdTableGet+0xc0>
D:\CreateIC\01_CPIPC\riscv\RISCV_ENC_20220421\Firmware_true\app_prj\app_demo\Debug/../src/Bsp/Driver/hme_plic.c:85 (discriminator 11)
   111dc:	fee45703          	lhu	a4,-18(s0)
   111e0:	00b00793          	li	a5,11
   111e4:	02f70063          	beq	a4,a5,11204 <DevIntrIdTableGet+0xc0>
D:\CreateIC\01_CPIPC\riscv\RISCV_ENC_20220421\Firmware_true\app_prj\app_demo\Debug/../src/Bsp/Driver/hme_plic.c:85 (discriminator 12)
   111e8:	fee45703          	lhu	a4,-18(s0)
   111ec:	00c00793          	li	a5,12
   111f0:	00f70a63          	beq	a4,a5,11204 <DevIntrIdTableGet+0xc0>
D:\CreateIC\01_CPIPC\riscv\RISCV_ENC_20220421\Firmware_true\app_prj\app_demo\Debug/../src/Bsp/Driver/hme_plic.c:85 (discriminator 13)
   111f4:	05500593          	li	a1,85
   111f8:	000157b7          	lui	a5,0x15
   111fc:	0c878513          	addi	a0,a5,200 # 150c8 <__init_array_end+0x5c>
   11200:	180020ef          	jal	ra,13380 <assert_failed>
D:\CreateIC\01_CPIPC\riscv\RISCV_ENC_20220421\Firmware_true\app_prj\app_demo\Debug/../src/Bsp/Driver/hme_plic.c:87

	return astDevParam[usDevId].usIntrId;
   11204:	fee45783          	lhu	a5,-18(s0)
   11208:	00015737          	lui	a4,0x15
   1120c:	3b470713          	addi	a4,a4,948 # 153b4 <astDevParam>
   11210:	00479793          	slli	a5,a5,0x4
   11214:	00f707b3          	add	a5,a4,a5
   11218:	0027d783          	lhu	a5,2(a5)
D:\CreateIC\01_CPIPC\riscv\RISCV_ENC_20220421\Firmware_true\app_prj\app_demo\Debug/../src/Bsp/Driver/hme_plic.c:88
}
   1121c:	00078513          	mv	a0,a5
   11220:	01c12083          	lw	ra,28(sp)
   11224:	01812403          	lw	s0,24(sp)
   11228:	02010113          	addi	sp,sp,32
   1122c:	00008067          	ret

00011230 <DevPriorityOffsetTableGet>:
DevPriorityOffsetTableGet():
D:\CreateIC\01_CPIPC\riscv\RISCV_ENC_20220421\Firmware_true\app_prj\app_demo\Debug/../src/Bsp/Driver/hme_plic.c:96
 * @brief  根据设备ID查找优先级配置寄存器的偏移地址
 * @param  usDevId：设备ID
 * @retval uint32_t：返回优先级寄存器偏移地址
 *****************************************************************/
uint32_t DevPriorityOffsetTableGet(uint16_t usDevId)
{
   11230:	fe010113          	addi	sp,sp,-32
   11234:	00112e23          	sw	ra,28(sp)
   11238:	00812c23          	sw	s0,24(sp)
   1123c:	02010413          	addi	s0,sp,32
   11240:	00050793          	mv	a5,a0
   11244:	fef41723          	sh	a5,-18(s0)
D:\CreateIC\01_CPIPC\riscv\RISCV_ENC_20220421\Firmware_true\app_prj\app_demo\Debug/../src/Bsp/Driver/hme_plic.c:97
	assert_param(IS_DEV_ID(usDevId));
   11248:	fee45783          	lhu	a5,-18(s0)
   1124c:	0a078263          	beqz	a5,112f0 <DevPriorityOffsetTableGet+0xc0>
D:\CreateIC\01_CPIPC\riscv\RISCV_ENC_20220421\Firmware_true\app_prj\app_demo\Debug/../src/Bsp/Driver/hme_plic.c:97 (discriminator 1)
   11250:	fee45703          	lhu	a4,-18(s0)
   11254:	00100793          	li	a5,1
   11258:	08f70c63          	beq	a4,a5,112f0 <DevPriorityOffsetTableGet+0xc0>
D:\CreateIC\01_CPIPC\riscv\RISCV_ENC_20220421\Firmware_true\app_prj\app_demo\Debug/../src/Bsp/Driver/hme_plic.c:97 (discriminator 2)
   1125c:	fee45703          	lhu	a4,-18(s0)
   11260:	00200793          	li	a5,2
   11264:	08f70663          	beq	a4,a5,112f0 <DevPriorityOffsetTableGet+0xc0>
D:\CreateIC\01_CPIPC\riscv\RISCV_ENC_20220421\Firmware_true\app_prj\app_demo\Debug/../src/Bsp/Driver/hme_plic.c:97 (discriminator 3)
   11268:	fee45703          	lhu	a4,-18(s0)
   1126c:	00300793          	li	a5,3
   11270:	08f70063          	beq	a4,a5,112f0 <DevPriorityOffsetTableGet+0xc0>
D:\CreateIC\01_CPIPC\riscv\RISCV_ENC_20220421\Firmware_true\app_prj\app_demo\Debug/../src/Bsp/Driver/hme_plic.c:97 (discriminator 4)
   11274:	fee45703          	lhu	a4,-18(s0)
   11278:	00400793          	li	a5,4
   1127c:	06f70a63          	beq	a4,a5,112f0 <DevPriorityOffsetTableGet+0xc0>
D:\CreateIC\01_CPIPC\riscv\RISCV_ENC_20220421\Firmware_true\app_prj\app_demo\Debug/../src/Bsp/Driver/hme_plic.c:97 (discriminator 5)
   11280:	fee45703          	lhu	a4,-18(s0)
   11284:	00500793          	li	a5,5
   11288:	06f70463          	beq	a4,a5,112f0 <DevPriorityOffsetTableGet+0xc0>
D:\CreateIC\01_CPIPC\riscv\RISCV_ENC_20220421\Firmware_true\app_prj\app_demo\Debug/../src/Bsp/Driver/hme_plic.c:97 (discriminator 6)
   1128c:	fee45703          	lhu	a4,-18(s0)
   11290:	00600793          	li	a5,6
   11294:	04f70e63          	beq	a4,a5,112f0 <DevPriorityOffsetTableGet+0xc0>
D:\CreateIC\01_CPIPC\riscv\RISCV_ENC_20220421\Firmware_true\app_prj\app_demo\Debug/../src/Bsp/Driver/hme_plic.c:97 (discriminator 7)
   11298:	fee45703          	lhu	a4,-18(s0)
   1129c:	00700793          	li	a5,7
   112a0:	04f70863          	beq	a4,a5,112f0 <DevPriorityOffsetTableGet+0xc0>
D:\CreateIC\01_CPIPC\riscv\RISCV_ENC_20220421\Firmware_true\app_prj\app_demo\Debug/../src/Bsp/Driver/hme_plic.c:97 (discriminator 8)
   112a4:	fee45703          	lhu	a4,-18(s0)
   112a8:	00800793          	li	a5,8
   112ac:	04f70263          	beq	a4,a5,112f0 <DevPriorityOffsetTableGet+0xc0>
D:\CreateIC\01_CPIPC\riscv\RISCV_ENC_20220421\Firmware_true\app_prj\app_demo\Debug/../src/Bsp/Driver/hme_plic.c:97 (discriminator 9)
   112b0:	fee45703          	lhu	a4,-18(s0)
   112b4:	00900793          	li	a5,9
   112b8:	02f70c63          	beq	a4,a5,112f0 <DevPriorityOffsetTableGet+0xc0>
D:\CreateIC\01_CPIPC\riscv\RISCV_ENC_20220421\Firmware_true\app_prj\app_demo\Debug/../src/Bsp/Driver/hme_plic.c:97 (discriminator 10)
   112bc:	fee45703          	lhu	a4,-18(s0)
   112c0:	00a00793          	li	a5,10
   112c4:	02f70663          	beq	a4,a5,112f0 <DevPriorityOffsetTableGet+0xc0>
D:\CreateIC\01_CPIPC\riscv\RISCV_ENC_20220421\Firmware_true\app_prj\app_demo\Debug/../src/Bsp/Driver/hme_plic.c:97 (discriminator 11)
   112c8:	fee45703          	lhu	a4,-18(s0)
   112cc:	00b00793          	li	a5,11
   112d0:	02f70063          	beq	a4,a5,112f0 <DevPriorityOffsetTableGet+0xc0>
D:\CreateIC\01_CPIPC\riscv\RISCV_ENC_20220421\Firmware_true\app_prj\app_demo\Debug/../src/Bsp/Driver/hme_plic.c:97 (discriminator 12)
   112d4:	fee45703          	lhu	a4,-18(s0)
   112d8:	00c00793          	li	a5,12
   112dc:	00f70a63          	beq	a4,a5,112f0 <DevPriorityOffsetTableGet+0xc0>
D:\CreateIC\01_CPIPC\riscv\RISCV_ENC_20220421\Firmware_true\app_prj\app_demo\Debug/../src/Bsp/Driver/hme_plic.c:97 (discriminator 13)
   112e0:	06100593          	li	a1,97
   112e4:	000157b7          	lui	a5,0x15
   112e8:	0c878513          	addi	a0,a5,200 # 150c8 <__init_array_end+0x5c>
   112ec:	094020ef          	jal	ra,13380 <assert_failed>
D:\CreateIC\01_CPIPC\riscv\RISCV_ENC_20220421\Firmware_true\app_prj\app_demo\Debug/../src/Bsp/Driver/hme_plic.c:99

	return astDevParam[usDevId].ulPriorityOffset;
   112f0:	fee45783          	lhu	a5,-18(s0)
   112f4:	00015737          	lui	a4,0x15
   112f8:	3b470713          	addi	a4,a4,948 # 153b4 <astDevParam>
   112fc:	00479793          	slli	a5,a5,0x4
   11300:	00f707b3          	add	a5,a4,a5
   11304:	0047a783          	lw	a5,4(a5)
D:\CreateIC\01_CPIPC\riscv\RISCV_ENC_20220421\Firmware_true\app_prj\app_demo\Debug/../src/Bsp/Driver/hme_plic.c:100
}
   11308:	00078513          	mv	a0,a5
   1130c:	01c12083          	lw	ra,28(sp)
   11310:	01812403          	lw	s0,24(sp)
   11314:	02010113          	addi	sp,sp,32
   11318:	00008067          	ret

0001131c <DevIntrEnTableGet>:
DevIntrEnTableGet():
D:\CreateIC\01_CPIPC\riscv\RISCV_ENC_20220421\Firmware_true\app_prj\app_demo\Debug/../src/Bsp/Driver/hme_plic.c:120
 * @brief  根据设备ID查找中断使能配置值
 * @param  usDevId：设备ID
 * @retval uint32_t：返回使能配置值
 *****************************************************************/
uint32_t DevIntrEnTableGet(uint16_t usDevId)
{
   1131c:	fe010113          	addi	sp,sp,-32
   11320:	00112e23          	sw	ra,28(sp)
   11324:	00812c23          	sw	s0,24(sp)
   11328:	02010413          	addi	s0,sp,32
   1132c:	00050793          	mv	a5,a0
   11330:	fef41723          	sh	a5,-18(s0)
D:\CreateIC\01_CPIPC\riscv\RISCV_ENC_20220421\Firmware_true\app_prj\app_demo\Debug/../src/Bsp/Driver/hme_plic.c:121
	assert_param(IS_DEV_ID(usDevId));
   11334:	fee45783          	lhu	a5,-18(s0)
   11338:	0a078263          	beqz	a5,113dc <DevIntrEnTableGet+0xc0>
D:\CreateIC\01_CPIPC\riscv\RISCV_ENC_20220421\Firmware_true\app_prj\app_demo\Debug/../src/Bsp/Driver/hme_plic.c:121 (discriminator 1)
   1133c:	fee45703          	lhu	a4,-18(s0)
   11340:	00100793          	li	a5,1
   11344:	08f70c63          	beq	a4,a5,113dc <DevIntrEnTableGet+0xc0>
D:\CreateIC\01_CPIPC\riscv\RISCV_ENC_20220421\Firmware_true\app_prj\app_demo\Debug/../src/Bsp/Driver/hme_plic.c:121 (discriminator 2)
   11348:	fee45703          	lhu	a4,-18(s0)
   1134c:	00200793          	li	a5,2
   11350:	08f70663          	beq	a4,a5,113dc <DevIntrEnTableGet+0xc0>
D:\CreateIC\01_CPIPC\riscv\RISCV_ENC_20220421\Firmware_true\app_prj\app_demo\Debug/../src/Bsp/Driver/hme_plic.c:121 (discriminator 3)
   11354:	fee45703          	lhu	a4,-18(s0)
   11358:	00300793          	li	a5,3
   1135c:	08f70063          	beq	a4,a5,113dc <DevIntrEnTableGet+0xc0>
D:\CreateIC\01_CPIPC\riscv\RISCV_ENC_20220421\Firmware_true\app_prj\app_demo\Debug/../src/Bsp/Driver/hme_plic.c:121 (discriminator 4)
   11360:	fee45703          	lhu	a4,-18(s0)
   11364:	00400793          	li	a5,4
   11368:	06f70a63          	beq	a4,a5,113dc <DevIntrEnTableGet+0xc0>
D:\CreateIC\01_CPIPC\riscv\RISCV_ENC_20220421\Firmware_true\app_prj\app_demo\Debug/../src/Bsp/Driver/hme_plic.c:121 (discriminator 5)
   1136c:	fee45703          	lhu	a4,-18(s0)
   11370:	00500793          	li	a5,5
   11374:	06f70463          	beq	a4,a5,113dc <DevIntrEnTableGet+0xc0>
D:\CreateIC\01_CPIPC\riscv\RISCV_ENC_20220421\Firmware_true\app_prj\app_demo\Debug/../src/Bsp/Driver/hme_plic.c:121 (discriminator 6)
   11378:	fee45703          	lhu	a4,-18(s0)
   1137c:	00600793          	li	a5,6
   11380:	04f70e63          	beq	a4,a5,113dc <DevIntrEnTableGet+0xc0>
D:\CreateIC\01_CPIPC\riscv\RISCV_ENC_20220421\Firmware_true\app_prj\app_demo\Debug/../src/Bsp/Driver/hme_plic.c:121 (discriminator 7)
   11384:	fee45703          	lhu	a4,-18(s0)
   11388:	00700793          	li	a5,7
   1138c:	04f70863          	beq	a4,a5,113dc <DevIntrEnTableGet+0xc0>
D:\CreateIC\01_CPIPC\riscv\RISCV_ENC_20220421\Firmware_true\app_prj\app_demo\Debug/../src/Bsp/Driver/hme_plic.c:121 (discriminator 8)
   11390:	fee45703          	lhu	a4,-18(s0)
   11394:	00800793          	li	a5,8
   11398:	04f70263          	beq	a4,a5,113dc <DevIntrEnTableGet+0xc0>
D:\CreateIC\01_CPIPC\riscv\RISCV_ENC_20220421\Firmware_true\app_prj\app_demo\Debug/../src/Bsp/Driver/hme_plic.c:121 (discriminator 9)
   1139c:	fee45703          	lhu	a4,-18(s0)
   113a0:	00900793          	li	a5,9
   113a4:	02f70c63          	beq	a4,a5,113dc <DevIntrEnTableGet+0xc0>
D:\CreateIC\01_CPIPC\riscv\RISCV_ENC_20220421\Firmware_true\app_prj\app_demo\Debug/../src/Bsp/Driver/hme_plic.c:121 (discriminator 10)
   113a8:	fee45703          	lhu	a4,-18(s0)
   113ac:	00a00793          	li	a5,10
   113b0:	02f70663          	beq	a4,a5,113dc <DevIntrEnTableGet+0xc0>
D:\CreateIC\01_CPIPC\riscv\RISCV_ENC_20220421\Firmware_true\app_prj\app_demo\Debug/../src/Bsp/Driver/hme_plic.c:121 (discriminator 11)
   113b4:	fee45703          	lhu	a4,-18(s0)
   113b8:	00b00793          	li	a5,11
   113bc:	02f70063          	beq	a4,a5,113dc <DevIntrEnTableGet+0xc0>
D:\CreateIC\01_CPIPC\riscv\RISCV_ENC_20220421\Firmware_true\app_prj\app_demo\Debug/../src/Bsp/Driver/hme_plic.c:121 (discriminator 12)
   113c0:	fee45703          	lhu	a4,-18(s0)
   113c4:	00c00793          	li	a5,12
   113c8:	00f70a63          	beq	a4,a5,113dc <DevIntrEnTableGet+0xc0>
D:\CreateIC\01_CPIPC\riscv\RISCV_ENC_20220421\Firmware_true\app_prj\app_demo\Debug/../src/Bsp/Driver/hme_plic.c:121 (discriminator 13)
   113cc:	07900593          	li	a1,121
   113d0:	000157b7          	lui	a5,0x15
   113d4:	0c878513          	addi	a0,a5,200 # 150c8 <__init_array_end+0x5c>
   113d8:	7a9010ef          	jal	ra,13380 <assert_failed>
D:\CreateIC\01_CPIPC\riscv\RISCV_ENC_20220421\Firmware_true\app_prj\app_demo\Debug/../src/Bsp/Driver/hme_plic.c:123

	return astDevParam[usDevId].ulIntrEnable;
   113dc:	fee45783          	lhu	a5,-18(s0)
   113e0:	00015737          	lui	a4,0x15
   113e4:	3b470713          	addi	a4,a4,948 # 153b4 <astDevParam>
   113e8:	00479793          	slli	a5,a5,0x4
   113ec:	00f707b3          	add	a5,a4,a5
   113f0:	00c7a783          	lw	a5,12(a5)
D:\CreateIC\01_CPIPC\riscv\RISCV_ENC_20220421\Firmware_true\app_prj\app_demo\Debug/../src/Bsp/Driver/hme_plic.c:124
}
   113f4:	00078513          	mv	a0,a5
   113f8:	01c12083          	lw	ra,28(sp)
   113fc:	01812403          	lw	s0,24(sp)
   11400:	02010113          	addi	sp,sp,32
   11404:	00008067          	ret

00011408 <IntrPrioritySet>:
IntrPrioritySet():
D:\CreateIC\01_CPIPC\riscv\RISCV_ENC_20220421\Firmware_true\app_prj\app_demo\Debug/../src/Bsp/Driver/hme_plic.c:132
 * @brief  根据设备ID配置中断优先级
 * @param  usDevId：设备ID， ucPriority优先级参数
 * @retval 无
 *****************************************************************/
void IntrPrioritySet(uint16_t usDevId, uint8_t ucPriority)
{
   11408:	fd010113          	addi	sp,sp,-48
   1140c:	02112623          	sw	ra,44(sp)
   11410:	02812423          	sw	s0,40(sp)
   11414:	03010413          	addi	s0,sp,48
   11418:	00050793          	mv	a5,a0
   1141c:	00058713          	mv	a4,a1
   11420:	fcf41f23          	sh	a5,-34(s0)
   11424:	00070793          	mv	a5,a4
   11428:	fcf40ea3          	sb	a5,-35(s0)
D:\CreateIC\01_CPIPC\riscv\RISCV_ENC_20220421\Firmware_true\app_prj\app_demo\Debug/../src/Bsp/Driver/hme_plic.c:133
	assert_param(IS_DEV_ID(usDevId));
   1142c:	fde45783          	lhu	a5,-34(s0)
   11430:	0a078263          	beqz	a5,114d4 <IntrPrioritySet+0xcc>
D:\CreateIC\01_CPIPC\riscv\RISCV_ENC_20220421\Firmware_true\app_prj\app_demo\Debug/../src/Bsp/Driver/hme_plic.c:133 (discriminator 1)
   11434:	fde45703          	lhu	a4,-34(s0)
   11438:	00100793          	li	a5,1
   1143c:	08f70c63          	beq	a4,a5,114d4 <IntrPrioritySet+0xcc>
D:\CreateIC\01_CPIPC\riscv\RISCV_ENC_20220421\Firmware_true\app_prj\app_demo\Debug/../src/Bsp/Driver/hme_plic.c:133 (discriminator 2)
   11440:	fde45703          	lhu	a4,-34(s0)
   11444:	00200793          	li	a5,2
   11448:	08f70663          	beq	a4,a5,114d4 <IntrPrioritySet+0xcc>
D:\CreateIC\01_CPIPC\riscv\RISCV_ENC_20220421\Firmware_true\app_prj\app_demo\Debug/../src/Bsp/Driver/hme_plic.c:133 (discriminator 3)
   1144c:	fde45703          	lhu	a4,-34(s0)
   11450:	00300793          	li	a5,3
   11454:	08f70063          	beq	a4,a5,114d4 <IntrPrioritySet+0xcc>
D:\CreateIC\01_CPIPC\riscv\RISCV_ENC_20220421\Firmware_true\app_prj\app_demo\Debug/../src/Bsp/Driver/hme_plic.c:133 (discriminator 4)
   11458:	fde45703          	lhu	a4,-34(s0)
   1145c:	00400793          	li	a5,4
   11460:	06f70a63          	beq	a4,a5,114d4 <IntrPrioritySet+0xcc>
D:\CreateIC\01_CPIPC\riscv\RISCV_ENC_20220421\Firmware_true\app_prj\app_demo\Debug/../src/Bsp/Driver/hme_plic.c:133 (discriminator 5)
   11464:	fde45703          	lhu	a4,-34(s0)
   11468:	00500793          	li	a5,5
   1146c:	06f70463          	beq	a4,a5,114d4 <IntrPrioritySet+0xcc>
D:\CreateIC\01_CPIPC\riscv\RISCV_ENC_20220421\Firmware_true\app_prj\app_demo\Debug/../src/Bsp/Driver/hme_plic.c:133 (discriminator 6)
   11470:	fde45703          	lhu	a4,-34(s0)
   11474:	00600793          	li	a5,6
   11478:	04f70e63          	beq	a4,a5,114d4 <IntrPrioritySet+0xcc>
D:\CreateIC\01_CPIPC\riscv\RISCV_ENC_20220421\Firmware_true\app_prj\app_demo\Debug/../src/Bsp/Driver/hme_plic.c:133 (discriminator 7)
   1147c:	fde45703          	lhu	a4,-34(s0)
   11480:	00700793          	li	a5,7
   11484:	04f70863          	beq	a4,a5,114d4 <IntrPrioritySet+0xcc>
D:\CreateIC\01_CPIPC\riscv\RISCV_ENC_20220421\Firmware_true\app_prj\app_demo\Debug/../src/Bsp/Driver/hme_plic.c:133 (discriminator 8)
   11488:	fde45703          	lhu	a4,-34(s0)
   1148c:	00800793          	li	a5,8
   11490:	04f70263          	beq	a4,a5,114d4 <IntrPrioritySet+0xcc>
D:\CreateIC\01_CPIPC\riscv\RISCV_ENC_20220421\Firmware_true\app_prj\app_demo\Debug/../src/Bsp/Driver/hme_plic.c:133 (discriminator 9)
   11494:	fde45703          	lhu	a4,-34(s0)
   11498:	00900793          	li	a5,9
   1149c:	02f70c63          	beq	a4,a5,114d4 <IntrPrioritySet+0xcc>
D:\CreateIC\01_CPIPC\riscv\RISCV_ENC_20220421\Firmware_true\app_prj\app_demo\Debug/../src/Bsp/Driver/hme_plic.c:133 (discriminator 10)
   114a0:	fde45703          	lhu	a4,-34(s0)
   114a4:	00a00793          	li	a5,10
   114a8:	02f70663          	beq	a4,a5,114d4 <IntrPrioritySet+0xcc>
D:\CreateIC\01_CPIPC\riscv\RISCV_ENC_20220421\Firmware_true\app_prj\app_demo\Debug/../src/Bsp/Driver/hme_plic.c:133 (discriminator 11)
   114ac:	fde45703          	lhu	a4,-34(s0)
   114b0:	00b00793          	li	a5,11
   114b4:	02f70063          	beq	a4,a5,114d4 <IntrPrioritySet+0xcc>
D:\CreateIC\01_CPIPC\riscv\RISCV_ENC_20220421\Firmware_true\app_prj\app_demo\Debug/../src/Bsp/Driver/hme_plic.c:133 (discriminator 12)
   114b8:	fde45703          	lhu	a4,-34(s0)
   114bc:	00c00793          	li	a5,12
   114c0:	00f70a63          	beq	a4,a5,114d4 <IntrPrioritySet+0xcc>
D:\CreateIC\01_CPIPC\riscv\RISCV_ENC_20220421\Firmware_true\app_prj\app_demo\Debug/../src/Bsp/Driver/hme_plic.c:133 (discriminator 13)
   114c4:	08500593          	li	a1,133
   114c8:	000157b7          	lui	a5,0x15
   114cc:	0c878513          	addi	a0,a5,200 # 150c8 <__init_array_end+0x5c>
   114d0:	6b1010ef          	jal	ra,13380 <assert_failed>
D:\CreateIC\01_CPIPC\riscv\RISCV_ENC_20220421\Firmware_true\app_prj\app_demo\Debug/../src/Bsp/Driver/hme_plic.c:134
	assert_param(IS_PLIC_PRIORITY(ucPriority));
   114d4:	fdd44783          	lbu	a5,-35(s0)
   114d8:	02078c63          	beqz	a5,11510 <IntrPrioritySet+0x108>
D:\CreateIC\01_CPIPC\riscv\RISCV_ENC_20220421\Firmware_true\app_prj\app_demo\Debug/../src/Bsp/Driver/hme_plic.c:134 (discriminator 1)
   114dc:	fdd44703          	lbu	a4,-35(s0)
   114e0:	00100793          	li	a5,1
   114e4:	02f70663          	beq	a4,a5,11510 <IntrPrioritySet+0x108>
D:\CreateIC\01_CPIPC\riscv\RISCV_ENC_20220421\Firmware_true\app_prj\app_demo\Debug/../src/Bsp/Driver/hme_plic.c:134 (discriminator 2)
   114e8:	fdd44703          	lbu	a4,-35(s0)
   114ec:	00200793          	li	a5,2
   114f0:	02f70063          	beq	a4,a5,11510 <IntrPrioritySet+0x108>
D:\CreateIC\01_CPIPC\riscv\RISCV_ENC_20220421\Firmware_true\app_prj\app_demo\Debug/../src/Bsp/Driver/hme_plic.c:134 (discriminator 3)
   114f4:	fdd44703          	lbu	a4,-35(s0)
   114f8:	00300793          	li	a5,3
   114fc:	00f70a63          	beq	a4,a5,11510 <IntrPrioritySet+0x108>
D:\CreateIC\01_CPIPC\riscv\RISCV_ENC_20220421\Firmware_true\app_prj\app_demo\Debug/../src/Bsp/Driver/hme_plic.c:134 (discriminator 4)
   11500:	08600593          	li	a1,134
   11504:	000157b7          	lui	a5,0x15
   11508:	0c878513          	addi	a0,a5,200 # 150c8 <__init_array_end+0x5c>
   1150c:	675010ef          	jal	ra,13380 <assert_failed>
D:\CreateIC\01_CPIPC\riscv\RISCV_ENC_20220421\Firmware_true\app_prj\app_demo\Debug/../src/Bsp/Driver/hme_plic.c:136

	uint32_t ulPriorityOffset = 0;
   11510:	fe042623          	sw	zero,-20(s0)
D:\CreateIC\01_CPIPC\riscv\RISCV_ENC_20220421\Firmware_true\app_prj\app_demo\Debug/../src/Bsp/Driver/hme_plic.c:138

	ulPriorityOffset = DevPriorityOffsetTableGet(usDevId);
   11514:	fde45783          	lhu	a5,-34(s0)
   11518:	00078513          	mv	a0,a5
   1151c:	d15ff0ef          	jal	ra,11230 <DevPriorityOffsetTableGet>
   11520:	fea42623          	sw	a0,-20(s0)
D:\CreateIC\01_CPIPC\riscv\RISCV_ENC_20220421\Firmware_true\app_prj\app_demo\Debug/../src/Bsp/Driver/hme_plic.c:139
    WriteReg32(PLIC_BASE_ADDR + ulPriorityOffset, ucPriority);
   11524:	fec42703          	lw	a4,-20(s0)
   11528:	f8c007b7          	lui	a5,0xf8c00
   1152c:	00f707b3          	add	a5,a4,a5
   11530:	00078713          	mv	a4,a5
   11534:	fdd44783          	lbu	a5,-35(s0)
   11538:	00f72023          	sw	a5,0(a4)
D:\CreateIC\01_CPIPC\riscv\RISCV_ENC_20220421\Firmware_true\app_prj\app_demo\Debug/../src/Bsp/Driver/hme_plic.c:140
}
   1153c:	00000013          	nop
   11540:	02c12083          	lw	ra,44(sp)
   11544:	02812403          	lw	s0,40(sp)
   11548:	03010113          	addi	sp,sp,48
   1154c:	00008067          	ret

00011550 <IntrPriorityGet>:
IntrPriorityGet():
D:\CreateIC\01_CPIPC\riscv\RISCV_ENC_20220421\Firmware_true\app_prj\app_demo\Debug/../src/Bsp/Driver/hme_plic.c:148
 * @brief  根据设备ID获取中断优先级
 * @param  usDevId：设备ID
 * @retval uint32_t：返回中断优先级的值
 *****************************************************************/
uint32_t IntrPriorityGet(uint16_t usDevId)
{
   11550:	fd010113          	addi	sp,sp,-48
   11554:	02112623          	sw	ra,44(sp)
   11558:	02812423          	sw	s0,40(sp)
   1155c:	03010413          	addi	s0,sp,48
   11560:	00050793          	mv	a5,a0
   11564:	fcf41f23          	sh	a5,-34(s0)
D:\CreateIC\01_CPIPC\riscv\RISCV_ENC_20220421\Firmware_true\app_prj\app_demo\Debug/../src/Bsp/Driver/hme_plic.c:149
	assert_param(IS_DEV_ID(usDevId));
   11568:	fde45783          	lhu	a5,-34(s0)
   1156c:	0a078263          	beqz	a5,11610 <IntrPriorityGet+0xc0>
D:\CreateIC\01_CPIPC\riscv\RISCV_ENC_20220421\Firmware_true\app_prj\app_demo\Debug/../src/Bsp/Driver/hme_plic.c:149 (discriminator 1)
   11570:	fde45703          	lhu	a4,-34(s0)
   11574:	00100793          	li	a5,1
   11578:	08f70c63          	beq	a4,a5,11610 <IntrPriorityGet+0xc0>
D:\CreateIC\01_CPIPC\riscv\RISCV_ENC_20220421\Firmware_true\app_prj\app_demo\Debug/../src/Bsp/Driver/hme_plic.c:149 (discriminator 2)
   1157c:	fde45703          	lhu	a4,-34(s0)
   11580:	00200793          	li	a5,2
   11584:	08f70663          	beq	a4,a5,11610 <IntrPriorityGet+0xc0>
D:\CreateIC\01_CPIPC\riscv\RISCV_ENC_20220421\Firmware_true\app_prj\app_demo\Debug/../src/Bsp/Driver/hme_plic.c:149 (discriminator 3)
   11588:	fde45703          	lhu	a4,-34(s0)
   1158c:	00300793          	li	a5,3
   11590:	08f70063          	beq	a4,a5,11610 <IntrPriorityGet+0xc0>
D:\CreateIC\01_CPIPC\riscv\RISCV_ENC_20220421\Firmware_true\app_prj\app_demo\Debug/../src/Bsp/Driver/hme_plic.c:149 (discriminator 4)
   11594:	fde45703          	lhu	a4,-34(s0)
   11598:	00400793          	li	a5,4
   1159c:	06f70a63          	beq	a4,a5,11610 <IntrPriorityGet+0xc0>
D:\CreateIC\01_CPIPC\riscv\RISCV_ENC_20220421\Firmware_true\app_prj\app_demo\Debug/../src/Bsp/Driver/hme_plic.c:149 (discriminator 5)
   115a0:	fde45703          	lhu	a4,-34(s0)
   115a4:	00500793          	li	a5,5
   115a8:	06f70463          	beq	a4,a5,11610 <IntrPriorityGet+0xc0>
D:\CreateIC\01_CPIPC\riscv\RISCV_ENC_20220421\Firmware_true\app_prj\app_demo\Debug/../src/Bsp/Driver/hme_plic.c:149 (discriminator 6)
   115ac:	fde45703          	lhu	a4,-34(s0)
   115b0:	00600793          	li	a5,6
   115b4:	04f70e63          	beq	a4,a5,11610 <IntrPriorityGet+0xc0>
D:\CreateIC\01_CPIPC\riscv\RISCV_ENC_20220421\Firmware_true\app_prj\app_demo\Debug/../src/Bsp/Driver/hme_plic.c:149 (discriminator 7)
   115b8:	fde45703          	lhu	a4,-34(s0)
   115bc:	00700793          	li	a5,7
   115c0:	04f70863          	beq	a4,a5,11610 <IntrPriorityGet+0xc0>
D:\CreateIC\01_CPIPC\riscv\RISCV_ENC_20220421\Firmware_true\app_prj\app_demo\Debug/../src/Bsp/Driver/hme_plic.c:149 (discriminator 8)
   115c4:	fde45703          	lhu	a4,-34(s0)
   115c8:	00800793          	li	a5,8
   115cc:	04f70263          	beq	a4,a5,11610 <IntrPriorityGet+0xc0>
D:\CreateIC\01_CPIPC\riscv\RISCV_ENC_20220421\Firmware_true\app_prj\app_demo\Debug/../src/Bsp/Driver/hme_plic.c:149 (discriminator 9)
   115d0:	fde45703          	lhu	a4,-34(s0)
   115d4:	00900793          	li	a5,9
   115d8:	02f70c63          	beq	a4,a5,11610 <IntrPriorityGet+0xc0>
D:\CreateIC\01_CPIPC\riscv\RISCV_ENC_20220421\Firmware_true\app_prj\app_demo\Debug/../src/Bsp/Driver/hme_plic.c:149 (discriminator 10)
   115dc:	fde45703          	lhu	a4,-34(s0)
   115e0:	00a00793          	li	a5,10
   115e4:	02f70663          	beq	a4,a5,11610 <IntrPriorityGet+0xc0>
D:\CreateIC\01_CPIPC\riscv\RISCV_ENC_20220421\Firmware_true\app_prj\app_demo\Debug/../src/Bsp/Driver/hme_plic.c:149 (discriminator 11)
   115e8:	fde45703          	lhu	a4,-34(s0)
   115ec:	00b00793          	li	a5,11
   115f0:	02f70063          	beq	a4,a5,11610 <IntrPriorityGet+0xc0>
D:\CreateIC\01_CPIPC\riscv\RISCV_ENC_20220421\Firmware_true\app_prj\app_demo\Debug/../src/Bsp/Driver/hme_plic.c:149 (discriminator 12)
   115f4:	fde45703          	lhu	a4,-34(s0)
   115f8:	00c00793          	li	a5,12
   115fc:	00f70a63          	beq	a4,a5,11610 <IntrPriorityGet+0xc0>
D:\CreateIC\01_CPIPC\riscv\RISCV_ENC_20220421\Firmware_true\app_prj\app_demo\Debug/../src/Bsp/Driver/hme_plic.c:149 (discriminator 13)
   11600:	09500593          	li	a1,149
   11604:	000157b7          	lui	a5,0x15
   11608:	0c878513          	addi	a0,a5,200 # 150c8 <__init_array_end+0x5c>
   1160c:	575010ef          	jal	ra,13380 <assert_failed>
D:\CreateIC\01_CPIPC\riscv\RISCV_ENC_20220421\Firmware_true\app_prj\app_demo\Debug/../src/Bsp/Driver/hme_plic.c:151

	uint32_t ulPriority = EN_PRIORITY_MAX;
   11610:	00400793          	li	a5,4
   11614:	fef42623          	sw	a5,-20(s0)
D:\CreateIC\01_CPIPC\riscv\RISCV_ENC_20220421\Firmware_true\app_prj\app_demo\Debug/../src/Bsp/Driver/hme_plic.c:152
	uint32_t ulPriorityOffset = 0;
   11618:	fe042423          	sw	zero,-24(s0)
D:\CreateIC\01_CPIPC\riscv\RISCV_ENC_20220421\Firmware_true\app_prj\app_demo\Debug/../src/Bsp/Driver/hme_plic.c:154

	ulPriorityOffset = DevPriorityOffsetTableGet(usDevId);
   1161c:	fde45783          	lhu	a5,-34(s0)
   11620:	00078513          	mv	a0,a5
   11624:	c0dff0ef          	jal	ra,11230 <DevPriorityOffsetTableGet>
   11628:	fea42423          	sw	a0,-24(s0)
D:\CreateIC\01_CPIPC\riscv\RISCV_ENC_20220421\Firmware_true\app_prj\app_demo\Debug/../src/Bsp/Driver/hme_plic.c:155
	ulPriority = ReadReg32(PLIC_BASE_ADDR + ulPriorityOffset);
   1162c:	fe842703          	lw	a4,-24(s0)
   11630:	f8c007b7          	lui	a5,0xf8c00
   11634:	00f707b3          	add	a5,a4,a5
   11638:	0007a783          	lw	a5,0(a5) # f8c00000 <__freertos_irq_stack_top+0xf8bc19f0>
   1163c:	fef42623          	sw	a5,-20(s0)
D:\CreateIC\01_CPIPC\riscv\RISCV_ENC_20220421\Firmware_true\app_prj\app_demo\Debug/../src/Bsp/Driver/hme_plic.c:157

	return ulPriority;
   11640:	fec42783          	lw	a5,-20(s0)
D:\CreateIC\01_CPIPC\riscv\RISCV_ENC_20220421\Firmware_true\app_prj\app_demo\Debug/../src/Bsp/Driver/hme_plic.c:158
}
   11644:	00078513          	mv	a0,a5
   11648:	02c12083          	lw	ra,44(sp)
   1164c:	02812403          	lw	s0,40(sp)
   11650:	03010113          	addi	sp,sp,48
   11654:	00008067          	ret

00011658 <PlicEnableSet>:
PlicEnableSet():
D:\CreateIC\01_CPIPC\riscv\RISCV_ENC_20220421\Firmware_true\app_prj\app_demo\Debug/../src/Bsp/Driver/hme_plic.c:184
 * @brief  设备PLIC的中断使能配置
 * @param  ulEnable：中断使能值
 * @retval 无
 *****************************************************************/
void PlicEnableSet(uint32_t ulEnable)
{
   11658:	fd010113          	addi	sp,sp,-48
   1165c:	02112623          	sw	ra,44(sp)
   11660:	02812423          	sw	s0,40(sp)
   11664:	03010413          	addi	s0,sp,48
   11668:	fca42e23          	sw	a0,-36(s0)
D:\CreateIC\01_CPIPC\riscv\RISCV_ENC_20220421\Firmware_true\app_prj\app_demo\Debug/../src/Bsp/Driver/hme_plic.c:185
	uint32_t ulTemRmableVal = 0;
   1166c:	fe042623          	sw	zero,-20(s0)
D:\CreateIC\01_CPIPC\riscv\RISCV_ENC_20220421\Firmware_true\app_prj\app_demo\Debug/../src/Bsp/Driver/hme_plic.c:186
	ulTemRmableVal = PlicEnableGet();
   11670:	038000ef          	jal	ra,116a8 <PlicEnableGet>
   11674:	fea42623          	sw	a0,-20(s0)
D:\CreateIC\01_CPIPC\riscv\RISCV_ENC_20220421\Firmware_true\app_prj\app_demo\Debug/../src/Bsp/Driver/hme_plic.c:187
	ulTemRmableVal = ulTemRmableVal | ulEnable;
   11678:	fec42703          	lw	a4,-20(s0)
   1167c:	fdc42783          	lw	a5,-36(s0)
   11680:	00f767b3          	or	a5,a4,a5
   11684:	fef42623          	sw	a5,-20(s0)
D:\CreateIC\01_CPIPC\riscv\RISCV_ENC_20220421\Firmware_true\app_prj\app_demo\Debug/../src/Bsp/Driver/hme_plic.c:188
	WriteReg32(PLIC_BASE_ADDR + DEF_PLIC_INT_IE_OFFSET, ulTemRmableVal);
   11688:	f8c027b7          	lui	a5,0xf8c02
   1168c:	fec42703          	lw	a4,-20(s0)
   11690:	00e7a023          	sw	a4,0(a5) # f8c02000 <__freertos_irq_stack_top+0xf8bc39f0>
D:\CreateIC\01_CPIPC\riscv\RISCV_ENC_20220421\Firmware_true\app_prj\app_demo\Debug/../src/Bsp/Driver/hme_plic.c:189
}
   11694:	00000013          	nop
   11698:	02c12083          	lw	ra,44(sp)
   1169c:	02812403          	lw	s0,40(sp)
   116a0:	03010113          	addi	sp,sp,48
   116a4:	00008067          	ret

000116a8 <PlicEnableGet>:
PlicEnableGet():
D:\CreateIC\01_CPIPC\riscv\RISCV_ENC_20220421\Firmware_true\app_prj\app_demo\Debug/../src/Bsp/Driver/hme_plic.c:197
 * @brief  设备PLIC的中断使能值获取
 * @param  无
 * @retval uint32_t：返回中断使能控制参数
 *****************************************************************/
uint32_t PlicEnableGet(void)
{
   116a8:	ff010113          	addi	sp,sp,-16
   116ac:	00812623          	sw	s0,12(sp)
   116b0:	01010413          	addi	s0,sp,16
D:\CreateIC\01_CPIPC\riscv\RISCV_ENC_20220421\Firmware_true\app_prj\app_demo\Debug/../src/Bsp/Driver/hme_plic.c:198
	return ReadReg32(PLIC_BASE_ADDR + DEF_PLIC_INT_IE_OFFSET);
   116b4:	f8c027b7          	lui	a5,0xf8c02
   116b8:	0007a783          	lw	a5,0(a5) # f8c02000 <__freertos_irq_stack_top+0xf8bc39f0>
D:\CreateIC\01_CPIPC\riscv\RISCV_ENC_20220421\Firmware_true\app_prj\app_demo\Debug/../src/Bsp/Driver/hme_plic.c:199
}
   116bc:	00078513          	mv	a0,a5
   116c0:	00c12403          	lw	s0,12(sp)
   116c4:	01010113          	addi	sp,sp,16
   116c8:	00008067          	ret

000116cc <PlicThresholdSet>:
PlicThresholdSet():
D:\CreateIC\01_CPIPC\riscv\RISCV_ENC_20220421\Firmware_true\app_prj\app_demo\Debug/../src/Bsp/Driver/hme_plic.c:207
 * @brief  PLIC的中断阈值设置
 * @param  ucPlicThreshold：中断阈值参数
 * @retval 无
 *****************************************************************/
void PlicThresholdSet(uint8_t ucPlicThreshold)
{
   116cc:	fe010113          	addi	sp,sp,-32
   116d0:	00112e23          	sw	ra,28(sp)
   116d4:	00812c23          	sw	s0,24(sp)
   116d8:	02010413          	addi	s0,sp,32
   116dc:	00050793          	mv	a5,a0
   116e0:	fef407a3          	sb	a5,-17(s0)
D:\CreateIC\01_CPIPC\riscv\RISCV_ENC_20220421\Firmware_true\app_prj\app_demo\Debug/../src/Bsp/Driver/hme_plic.c:208
	assert_param(IS_PLIC_PRIORITY(ucPlicThreshold));
   116e4:	fef44783          	lbu	a5,-17(s0)
   116e8:	02078c63          	beqz	a5,11720 <PlicThresholdSet+0x54>
D:\CreateIC\01_CPIPC\riscv\RISCV_ENC_20220421\Firmware_true\app_prj\app_demo\Debug/../src/Bsp/Driver/hme_plic.c:208 (discriminator 1)
   116ec:	fef44703          	lbu	a4,-17(s0)
   116f0:	00100793          	li	a5,1
   116f4:	02f70663          	beq	a4,a5,11720 <PlicThresholdSet+0x54>
D:\CreateIC\01_CPIPC\riscv\RISCV_ENC_20220421\Firmware_true\app_prj\app_demo\Debug/../src/Bsp/Driver/hme_plic.c:208 (discriminator 2)
   116f8:	fef44703          	lbu	a4,-17(s0)
   116fc:	00200793          	li	a5,2
   11700:	02f70063          	beq	a4,a5,11720 <PlicThresholdSet+0x54>
D:\CreateIC\01_CPIPC\riscv\RISCV_ENC_20220421\Firmware_true\app_prj\app_demo\Debug/../src/Bsp/Driver/hme_plic.c:208 (discriminator 3)
   11704:	fef44703          	lbu	a4,-17(s0)
   11708:	00300793          	li	a5,3
   1170c:	00f70a63          	beq	a4,a5,11720 <PlicThresholdSet+0x54>
D:\CreateIC\01_CPIPC\riscv\RISCV_ENC_20220421\Firmware_true\app_prj\app_demo\Debug/../src/Bsp/Driver/hme_plic.c:208 (discriminator 4)
   11710:	0d000593          	li	a1,208
   11714:	000157b7          	lui	a5,0x15
   11718:	0c878513          	addi	a0,a5,200 # 150c8 <__init_array_end+0x5c>
   1171c:	465010ef          	jal	ra,13380 <assert_failed>
D:\CreateIC\01_CPIPC\riscv\RISCV_ENC_20220421\Firmware_true\app_prj\app_demo\Debug/../src/Bsp/Driver/hme_plic.c:210

	WriteReg32(PLIC_BASE_ADDR + DEF_PLIC_INT_THRESHOLD_OFFSET, ucPlicThreshold);
   11720:	f8e007b7          	lui	a5,0xf8e00
   11724:	fef44703          	lbu	a4,-17(s0)
   11728:	00e7a023          	sw	a4,0(a5) # f8e00000 <__freertos_irq_stack_top+0xf8dc19f0>
D:\CreateIC\01_CPIPC\riscv\RISCV_ENC_20220421\Firmware_true\app_prj\app_demo\Debug/../src/Bsp/Driver/hme_plic.c:211
}
   1172c:	00000013          	nop
   11730:	01c12083          	lw	ra,28(sp)
   11734:	01812403          	lw	s0,24(sp)
   11738:	02010113          	addi	sp,sp,32
   1173c:	00008067          	ret

00011740 <PlicThresholdGet>:
PlicThresholdGet():
D:\CreateIC\01_CPIPC\riscv\RISCV_ENC_20220421\Firmware_true\app_prj\app_demo\Debug/../src/Bsp/Driver/hme_plic.c:219
 * @brief  PLIC的中断阈值获取
 * @param  无
 * @retval uint8_t：返回中断阈值
 *****************************************************************/
uint8_t PlicThresholdGet(void)
{
   11740:	ff010113          	addi	sp,sp,-16
   11744:	00812623          	sw	s0,12(sp)
   11748:	01010413          	addi	s0,sp,16
D:\CreateIC\01_CPIPC\riscv\RISCV_ENC_20220421\Firmware_true\app_prj\app_demo\Debug/../src/Bsp/Driver/hme_plic.c:220
    return ReadReg32(PLIC_BASE_ADDR + DEF_PLIC_INT_THRESHOLD_OFFSET);
   1174c:	f8e007b7          	lui	a5,0xf8e00
   11750:	0007a783          	lw	a5,0(a5) # f8e00000 <__freertos_irq_stack_top+0xf8dc19f0>
   11754:	0ff7f793          	andi	a5,a5,255
D:\CreateIC\01_CPIPC\riscv\RISCV_ENC_20220421\Firmware_true\app_prj\app_demo\Debug/../src/Bsp/Driver/hme_plic.c:221
}
   11758:	00078513          	mv	a0,a5
   1175c:	00c12403          	lw	s0,12(sp)
   11760:	01010113          	addi	sp,sp,16
   11764:	00008067          	ret

00011768 <PlicIntrHandleRegister>:
PlicIntrHandleRegister():
D:\CreateIC\01_CPIPC\riscv\RISCV_ENC_20220421\Firmware_true\app_prj\app_demo\Debug/../src/Bsp/Driver/hme_plic.c:229
 * @brief  PLIC的中断注册函数
 * @param  pstRegParam：中断注册参数指针， usDevId：设备ID
 * @retval 无
 *****************************************************************/
void PlicIntrHandleRegister(PST_PLIC_REG_PARAM pstRegParam, uint16_t usDevId)
{
   11768:	fe010113          	addi	sp,sp,-32
   1176c:	00112e23          	sw	ra,28(sp)
   11770:	00812c23          	sw	s0,24(sp)
   11774:	02010413          	addi	s0,sp,32
   11778:	fea42623          	sw	a0,-20(s0)
   1177c:	00058793          	mv	a5,a1
   11780:	fef41523          	sh	a5,-22(s0)
D:\CreateIC\01_CPIPC\riscv\RISCV_ENC_20220421\Firmware_true\app_prj\app_demo\Debug/../src/Bsp/Driver/hme_plic.c:230
	assert_param(IS_DEV_ID(usDevId));
   11784:	fea45783          	lhu	a5,-22(s0)
   11788:	0a078263          	beqz	a5,1182c <PlicIntrHandleRegister+0xc4>
D:\CreateIC\01_CPIPC\riscv\RISCV_ENC_20220421\Firmware_true\app_prj\app_demo\Debug/../src/Bsp/Driver/hme_plic.c:230 (discriminator 1)
   1178c:	fea45703          	lhu	a4,-22(s0)
   11790:	00100793          	li	a5,1
   11794:	08f70c63          	beq	a4,a5,1182c <PlicIntrHandleRegister+0xc4>
D:\CreateIC\01_CPIPC\riscv\RISCV_ENC_20220421\Firmware_true\app_prj\app_demo\Debug/../src/Bsp/Driver/hme_plic.c:230 (discriminator 2)
   11798:	fea45703          	lhu	a4,-22(s0)
   1179c:	00200793          	li	a5,2
   117a0:	08f70663          	beq	a4,a5,1182c <PlicIntrHandleRegister+0xc4>
D:\CreateIC\01_CPIPC\riscv\RISCV_ENC_20220421\Firmware_true\app_prj\app_demo\Debug/../src/Bsp/Driver/hme_plic.c:230 (discriminator 3)
   117a4:	fea45703          	lhu	a4,-22(s0)
   117a8:	00300793          	li	a5,3
   117ac:	08f70063          	beq	a4,a5,1182c <PlicIntrHandleRegister+0xc4>
D:\CreateIC\01_CPIPC\riscv\RISCV_ENC_20220421\Firmware_true\app_prj\app_demo\Debug/../src/Bsp/Driver/hme_plic.c:230 (discriminator 4)
   117b0:	fea45703          	lhu	a4,-22(s0)
   117b4:	00400793          	li	a5,4
   117b8:	06f70a63          	beq	a4,a5,1182c <PlicIntrHandleRegister+0xc4>
D:\CreateIC\01_CPIPC\riscv\RISCV_ENC_20220421\Firmware_true\app_prj\app_demo\Debug/../src/Bsp/Driver/hme_plic.c:230 (discriminator 5)
   117bc:	fea45703          	lhu	a4,-22(s0)
   117c0:	00500793          	li	a5,5
   117c4:	06f70463          	beq	a4,a5,1182c <PlicIntrHandleRegister+0xc4>
D:\CreateIC\01_CPIPC\riscv\RISCV_ENC_20220421\Firmware_true\app_prj\app_demo\Debug/../src/Bsp/Driver/hme_plic.c:230 (discriminator 6)
   117c8:	fea45703          	lhu	a4,-22(s0)
   117cc:	00600793          	li	a5,6
   117d0:	04f70e63          	beq	a4,a5,1182c <PlicIntrHandleRegister+0xc4>
D:\CreateIC\01_CPIPC\riscv\RISCV_ENC_20220421\Firmware_true\app_prj\app_demo\Debug/../src/Bsp/Driver/hme_plic.c:230 (discriminator 7)
   117d4:	fea45703          	lhu	a4,-22(s0)
   117d8:	00700793          	li	a5,7
   117dc:	04f70863          	beq	a4,a5,1182c <PlicIntrHandleRegister+0xc4>
D:\CreateIC\01_CPIPC\riscv\RISCV_ENC_20220421\Firmware_true\app_prj\app_demo\Debug/../src/Bsp/Driver/hme_plic.c:230 (discriminator 8)
   117e0:	fea45703          	lhu	a4,-22(s0)
   117e4:	00800793          	li	a5,8
   117e8:	04f70263          	beq	a4,a5,1182c <PlicIntrHandleRegister+0xc4>
D:\CreateIC\01_CPIPC\riscv\RISCV_ENC_20220421\Firmware_true\app_prj\app_demo\Debug/../src/Bsp/Driver/hme_plic.c:230 (discriminator 9)
   117ec:	fea45703          	lhu	a4,-22(s0)
   117f0:	00900793          	li	a5,9
   117f4:	02f70c63          	beq	a4,a5,1182c <PlicIntrHandleRegister+0xc4>
D:\CreateIC\01_CPIPC\riscv\RISCV_ENC_20220421\Firmware_true\app_prj\app_demo\Debug/../src/Bsp/Driver/hme_plic.c:230 (discriminator 10)
   117f8:	fea45703          	lhu	a4,-22(s0)
   117fc:	00a00793          	li	a5,10
   11800:	02f70663          	beq	a4,a5,1182c <PlicIntrHandleRegister+0xc4>
D:\CreateIC\01_CPIPC\riscv\RISCV_ENC_20220421\Firmware_true\app_prj\app_demo\Debug/../src/Bsp/Driver/hme_plic.c:230 (discriminator 11)
   11804:	fea45703          	lhu	a4,-22(s0)
   11808:	00b00793          	li	a5,11
   1180c:	02f70063          	beq	a4,a5,1182c <PlicIntrHandleRegister+0xc4>
D:\CreateIC\01_CPIPC\riscv\RISCV_ENC_20220421\Firmware_true\app_prj\app_demo\Debug/../src/Bsp/Driver/hme_plic.c:230 (discriminator 12)
   11810:	fea45703          	lhu	a4,-22(s0)
   11814:	00c00793          	li	a5,12
   11818:	00f70a63          	beq	a4,a5,1182c <PlicIntrHandleRegister+0xc4>
D:\CreateIC\01_CPIPC\riscv\RISCV_ENC_20220421\Firmware_true\app_prj\app_demo\Debug/../src/Bsp/Driver/hme_plic.c:230 (discriminator 13)
   1181c:	0e600593          	li	a1,230
   11820:	000157b7          	lui	a5,0x15
   11824:	0c878513          	addi	a0,a5,200 # 150c8 <__init_array_end+0x5c>
   11828:	359010ef          	jal	ra,13380 <assert_failed>
D:\CreateIC\01_CPIPC\riscv\RISCV_ENC_20220421\Firmware_true\app_prj\app_demo\Debug/../src/Bsp/Driver/hme_plic.c:231
	assert_param(NULL != pstRegParam);
   1182c:	fec42783          	lw	a5,-20(s0)
   11830:	00079a63          	bnez	a5,11844 <PlicIntrHandleRegister+0xdc>
D:\CreateIC\01_CPIPC\riscv\RISCV_ENC_20220421\Firmware_true\app_prj\app_demo\Debug/../src/Bsp/Driver/hme_plic.c:231 (discriminator 1)
   11834:	0e700593          	li	a1,231
   11838:	000157b7          	lui	a5,0x15
   1183c:	0c878513          	addi	a0,a5,200 # 150c8 <__init_array_end+0x5c>
   11840:	341010ef          	jal	ra,13380 <assert_failed>
D:\CreateIC\01_CPIPC\riscv\RISCV_ENC_20220421\Firmware_true\app_prj\app_demo\Debug/../src/Bsp/Driver/hme_plic.c:233

	astPlicReg[usDevId].usIntrId = pstRegParam->usIntrId;
   11844:	fea45703          	lhu	a4,-22(s0)
   11848:	fec42783          	lw	a5,-20(s0)
   1184c:	0007d683          	lhu	a3,0(a5)
   11850:	000157b7          	lui	a5,0x15
   11854:	51078613          	addi	a2,a5,1296 # 15510 <astPlicReg>
   11858:	00070793          	mv	a5,a4
   1185c:	00179793          	slli	a5,a5,0x1
   11860:	00e787b3          	add	a5,a5,a4
   11864:	00279793          	slli	a5,a5,0x2
   11868:	00f607b3          	add	a5,a2,a5
   1186c:	00d79023          	sh	a3,0(a5)
D:\CreateIC\01_CPIPC\riscv\RISCV_ENC_20220421\Firmware_true\app_prj\app_demo\Debug/../src/Bsp/Driver/hme_plic.c:234
	astPlicReg[usDevId].IntrHander = pstRegParam->IntrHander;
   11870:	fea45703          	lhu	a4,-22(s0)
   11874:	fec42783          	lw	a5,-20(s0)
   11878:	0047a683          	lw	a3,4(a5)
   1187c:	000157b7          	lui	a5,0x15
   11880:	51078613          	addi	a2,a5,1296 # 15510 <astPlicReg>
   11884:	00070793          	mv	a5,a4
   11888:	00179793          	slli	a5,a5,0x1
   1188c:	00e787b3          	add	a5,a5,a4
   11890:	00279793          	slli	a5,a5,0x2
   11894:	00f607b3          	add	a5,a2,a5
   11898:	00d7a223          	sw	a3,4(a5)
D:\CreateIC\01_CPIPC\riscv\RISCV_ENC_20220421\Firmware_true\app_prj\app_demo\Debug/../src/Bsp/Driver/hme_plic.c:235
	astPlicReg[usDevId].ptrBackCall = pstRegParam->ptrBackCall;
   1189c:	fea45703          	lhu	a4,-22(s0)
   118a0:	fec42783          	lw	a5,-20(s0)
   118a4:	0087a683          	lw	a3,8(a5)
   118a8:	000157b7          	lui	a5,0x15
   118ac:	51078613          	addi	a2,a5,1296 # 15510 <astPlicReg>
   118b0:	00070793          	mv	a5,a4
   118b4:	00179793          	slli	a5,a5,0x1
   118b8:	00e787b3          	add	a5,a5,a4
   118bc:	00279793          	slli	a5,a5,0x2
   118c0:	00f607b3          	add	a5,a2,a5
   118c4:	00d7a423          	sw	a3,8(a5)
D:\CreateIC\01_CPIPC\riscv\RISCV_ENC_20220421\Firmware_true\app_prj\app_demo\Debug/../src/Bsp/Driver/hme_plic.c:236
}
   118c8:	00000013          	nop
   118cc:	01c12083          	lw	ra,28(sp)
   118d0:	01812403          	lw	s0,24(sp)
   118d4:	02010113          	addi	sp,sp,32
   118d8:	00008067          	ret

000118dc <ExternalInterruptExcute>:
ExternalInterruptExcute():
D:\CreateIC\01_CPIPC\riscv\RISCV_ENC_20220421\Firmware_true\app_prj\app_demo\Debug/../src/Bsp/Driver/hme_plic.c:244
 * @brief  PLIC中断执行接口
 * @param  无
 * @retval 无
 *****************************************************************/
void ExternalInterruptExcute(void)
{
   118dc:	fd010113          	addi	sp,sp,-48
   118e0:	02112623          	sw	ra,44(sp)
   118e4:	02812423          	sw	s0,40(sp)
   118e8:	03010413          	addi	s0,sp,48
D:\CreateIC\01_CPIPC\riscv\RISCV_ENC_20220421\Firmware_true\app_prj\app_demo\Debug/../src/Bsp/Driver/hme_plic.c:245
	uint16_t usIntrExcFlage = 0;
   118ec:	fe041123          	sh	zero,-30(s0)
D:\CreateIC\01_CPIPC\riscv\RISCV_ENC_20220421\Firmware_true\app_prj\app_demo\Debug/../src/Bsp/Driver/hme_plic.c:246
	uint16_t usIntrId = 0;
   118f0:	fe041023          	sh	zero,-32(s0)
D:\CreateIC\01_CPIPC\riscv\RISCV_ENC_20220421\Firmware_true\app_prj\app_demo\Debug/../src/Bsp/Driver/hme_plic.c:247
	uint16_t usRegTableIntrId = 0;
   118f4:	fe041723          	sh	zero,-18(s0)
D:\CreateIC\01_CPIPC\riscv\RISCV_ENC_20220421\Firmware_true\app_prj\app_demo\Debug/../src/Bsp/Driver/hme_plic.c:248
	uint16_t usIntrTableId = 0;
   118f8:	fc041f23          	sh	zero,-34(s0)
D:\CreateIC\01_CPIPC\riscv\RISCV_ENC_20220421\Firmware_true\app_prj\app_demo\Debug/../src/Bsp/Driver/hme_plic.c:249
	uint8_t ulPriority = 0;
   118fc:	fc040ea3          	sb	zero,-35(s0)
D:\CreateIC\01_CPIPC\riscv\RISCV_ENC_20220421\Firmware_true\app_prj\app_demo\Debug/../src/Bsp/Driver/hme_plic.c:250
	uint8_t ulThresholdVal = 0;
   11900:	fc040e23          	sb	zero,-36(s0)
D:\CreateIC\01_CPIPC\riscv\RISCV_ENC_20220421\Firmware_true\app_prj\app_demo\Debug/../src/Bsp/Driver/hme_plic.c:251
	EN_DEV_ID enDevTableId = EN_DEV_ID_MAX;
   11904:	00d00793          	li	a5,13
   11908:	fef42423          	sw	a5,-24(s0)
D:\CreateIC\01_CPIPC\riscv\RISCV_ENC_20220421\Firmware_true\app_prj\app_demo\Debug/../src/Bsp/Driver/hme_plic.c:252
	EN_DEV_ID enIdCnt = EN_DEV_ID_0;
   1190c:	fe042223          	sw	zero,-28(s0)
D:\CreateIC\01_CPIPC\riscv\RISCV_ENC_20220421\Firmware_true\app_prj\app_demo\Debug/../src/Bsp/Driver/hme_plic.c:255


	uint32_t ulMstatus = csr_read(mstatus);
   11910:	300027f3          	csrr	a5,mstatus
   11914:	00078093          	mv	ra,a5
   11918:	00008793          	mv	a5,ra
   1191c:	fcf42c23          	sw	a5,-40(s0)
D:\CreateIC\01_CPIPC\riscv\RISCV_ENC_20220421\Firmware_true\app_prj\app_demo\Debug/../src/Bsp/Driver/hme_plic.c:257

	ulThresholdVal = PlicThresholdGet();
   11920:	e21ff0ef          	jal	ra,11740 <PlicThresholdGet>
   11924:	00050793          	mv	a5,a0
   11928:	fcf40e23          	sb	a5,-36(s0)
D:\CreateIC\01_CPIPC\riscv\RISCV_ENC_20220421\Firmware_true\app_prj\app_demo\Debug/../src/Bsp/Driver/hme_plic.c:258
	usIntrId = PlicClaimGet();
   1192c:	fb0ff0ef          	jal	ra,110dc <PlicClaimGet>
   11930:	00050793          	mv	a5,a0
   11934:	fef41023          	sh	a5,-32(s0)
D:\CreateIC\01_CPIPC\riscv\RISCV_ENC_20220421\Firmware_true\app_prj\app_demo\Debug/../src/Bsp/Driver/hme_plic.c:259
	for (enIdCnt = EN_DEV_ID_0; enIdCnt < EN_DEV_ID_MAX;  enIdCnt = enIdCnt + 1)
   11938:	fe042223          	sw	zero,-28(s0)
   1193c:	0580006f          	j	11994 <ExternalInterruptExcute+0xb8>
D:\CreateIC\01_CPIPC\riscv\RISCV_ENC_20220421\Firmware_true\app_prj\app_demo\Debug/../src/Bsp/Driver/hme_plic.c:261
	{
		usIntrTableId = astDevParam[enIdCnt].usIntrId;
   11940:	000157b7          	lui	a5,0x15
   11944:	3b478713          	addi	a4,a5,948 # 153b4 <astDevParam>
   11948:	fe442783          	lw	a5,-28(s0)
   1194c:	00479793          	slli	a5,a5,0x4
   11950:	00f707b3          	add	a5,a4,a5
   11954:	0027d783          	lhu	a5,2(a5)
   11958:	fcf41f23          	sh	a5,-34(s0)
D:\CreateIC\01_CPIPC\riscv\RISCV_ENC_20220421\Firmware_true\app_prj\app_demo\Debug/../src/Bsp/Driver/hme_plic.c:262
		if(usIntrId == usIntrTableId)
   1195c:	fe045703          	lhu	a4,-32(s0)
   11960:	fde45783          	lhu	a5,-34(s0)
   11964:	02f71263          	bne	a4,a5,11988 <ExternalInterruptExcute+0xac>
D:\CreateIC\01_CPIPC\riscv\RISCV_ENC_20220421\Firmware_true\app_prj\app_demo\Debug/../src/Bsp/Driver/hme_plic.c:264
		{
			enDevTableId = astDevParam[enIdCnt].usDevId;
   11968:	000157b7          	lui	a5,0x15
   1196c:	3b478713          	addi	a4,a5,948 # 153b4 <astDevParam>
   11970:	fe442783          	lw	a5,-28(s0)
   11974:	00479793          	slli	a5,a5,0x4
   11978:	00f707b3          	add	a5,a4,a5
   1197c:	0007d783          	lhu	a5,0(a5)
   11980:	fef42423          	sw	a5,-24(s0)
D:\CreateIC\01_CPIPC\riscv\RISCV_ENC_20220421\Firmware_true\app_prj\app_demo\Debug/../src/Bsp/Driver/hme_plic.c:265
			break;
   11984:	01c0006f          	j	119a0 <ExternalInterruptExcute+0xc4>
D:\CreateIC\01_CPIPC\riscv\RISCV_ENC_20220421\Firmware_true\app_prj\app_demo\Debug/../src/Bsp/Driver/hme_plic.c:259 (discriminator 2)
	for (enIdCnt = EN_DEV_ID_0; enIdCnt < EN_DEV_ID_MAX;  enIdCnt = enIdCnt + 1)
   11988:	fe442783          	lw	a5,-28(s0)
   1198c:	00178793          	addi	a5,a5,1
   11990:	fef42223          	sw	a5,-28(s0)
D:\CreateIC\01_CPIPC\riscv\RISCV_ENC_20220421\Firmware_true\app_prj\app_demo\Debug/../src/Bsp/Driver/hme_plic.c:259 (discriminator 1)
   11994:	fe442703          	lw	a4,-28(s0)
   11998:	00c00793          	li	a5,12
   1199c:	fae7f2e3          	bgeu	a5,a4,11940 <ExternalInterruptExcute+0x64>
D:\CreateIC\01_CPIPC\riscv\RISCV_ENC_20220421\Firmware_true\app_prj\app_demo\Debug/../src/Bsp/Driver/hme_plic.c:269
		}
	}

    if (enDevTableId < EN_DEV_ID_MAX)
   119a0:	fe842703          	lw	a4,-24(s0)
   119a4:	00c00793          	li	a5,12
   119a8:	06e7e663          	bltu	a5,a4,11a14 <ExternalInterruptExcute+0x138>
D:\CreateIC\01_CPIPC\riscv\RISCV_ENC_20220421\Firmware_true\app_prj\app_demo\Debug/../src/Bsp/Driver/hme_plic.c:271
    {
    	ulPriority =IntrPriorityGet(enDevTableId);
   119ac:	fe842783          	lw	a5,-24(s0)
   119b0:	01079793          	slli	a5,a5,0x10
   119b4:	0107d793          	srli	a5,a5,0x10
   119b8:	00078513          	mv	a0,a5
   119bc:	b95ff0ef          	jal	ra,11550 <IntrPriorityGet>
   119c0:	00050793          	mv	a5,a0
   119c4:	fcf40ea3          	sb	a5,-35(s0)
D:\CreateIC\01_CPIPC\riscv\RISCV_ENC_20220421\Firmware_true\app_prj\app_demo\Debug/../src/Bsp/Driver/hme_plic.c:272
    	PlicThresholdSet(ulPriority);
   119c8:	fdd44783          	lbu	a5,-35(s0)
   119cc:	00078513          	mv	a0,a5
   119d0:	cfdff0ef          	jal	ra,116cc <PlicThresholdSet>
D:\CreateIC\01_CPIPC\riscv\RISCV_ENC_20220421\Firmware_true\app_prj\app_demo\Debug/../src/Bsp/Driver/hme_plic.c:273
    	csr_write(mstatus, ulMstatus | MSTATUS_MIE);
   119d4:	fd842783          	lw	a5,-40(s0)
   119d8:	0087e793          	ori	a5,a5,8
   119dc:	fcf42a23          	sw	a5,-44(s0)
   119e0:	fd442783          	lw	a5,-44(s0)
   119e4:	30079073          	csrw	mstatus,a5
D:\CreateIC\01_CPIPC\riscv\RISCV_ENC_20220421\Firmware_true\app_prj\app_demo\Debug/../src/Bsp/Driver/hme_plic.c:274
    	usRegTableIntrId = astPlicReg[enDevTableId].usIntrId;
   119e8:	000157b7          	lui	a5,0x15
   119ec:	51078693          	addi	a3,a5,1296 # 15510 <astPlicReg>
   119f0:	fe842703          	lw	a4,-24(s0)
   119f4:	00070793          	mv	a5,a4
   119f8:	00179793          	slli	a5,a5,0x1
   119fc:	00e787b3          	add	a5,a5,a4
   11a00:	00279793          	slli	a5,a5,0x2
   11a04:	00f687b3          	add	a5,a3,a5
   11a08:	0007d783          	lhu	a5,0(a5)
   11a0c:	fef41723          	sh	a5,-18(s0)
   11a10:	0080006f          	j	11a18 <ExternalInterruptExcute+0x13c>
D:\CreateIC\01_CPIPC\riscv\RISCV_ENC_20220421\Firmware_true\app_prj\app_demo\Debug/../src/Bsp/Driver/hme_plic.c:278
    }
    else
    {
    	PlicErrExcute();
   11a14:	0bc000ef          	jal	ra,11ad0 <PlicErrExcute>
D:\CreateIC\01_CPIPC\riscv\RISCV_ENC_20220421\Firmware_true\app_prj\app_demo\Debug/../src/Bsp/Driver/hme_plic.c:281
    }

    if ((usRegTableIntrId == usIntrId) && ( NULL != astPlicReg[enDevTableId].IntrHander))
   11a18:	fee45703          	lhu	a4,-18(s0)
   11a1c:	fe045783          	lhu	a5,-32(s0)
   11a20:	08f71c63          	bne	a4,a5,11ab8 <ExternalInterruptExcute+0x1dc>
D:\CreateIC\01_CPIPC\riscv\RISCV_ENC_20220421\Firmware_true\app_prj\app_demo\Debug/../src/Bsp/Driver/hme_plic.c:281 (discriminator 1)
   11a24:	000157b7          	lui	a5,0x15
   11a28:	51078693          	addi	a3,a5,1296 # 15510 <astPlicReg>
   11a2c:	fe842703          	lw	a4,-24(s0)
   11a30:	00070793          	mv	a5,a4
   11a34:	00179793          	slli	a5,a5,0x1
   11a38:	00e787b3          	add	a5,a5,a4
   11a3c:	00279793          	slli	a5,a5,0x2
   11a40:	00f687b3          	add	a5,a3,a5
   11a44:	0047a783          	lw	a5,4(a5)
   11a48:	06078863          	beqz	a5,11ab8 <ExternalInterruptExcute+0x1dc>
D:\CreateIC\01_CPIPC\riscv\RISCV_ENC_20220421\Firmware_true\app_prj\app_demo\Debug/../src/Bsp/Driver/hme_plic.c:283
    {
    	astPlicReg[enDevTableId].IntrHander(astPlicReg[enDevTableId].ptrBackCall);
   11a4c:	000157b7          	lui	a5,0x15
   11a50:	51078693          	addi	a3,a5,1296 # 15510 <astPlicReg>
   11a54:	fe842703          	lw	a4,-24(s0)
   11a58:	00070793          	mv	a5,a4
   11a5c:	00179793          	slli	a5,a5,0x1
   11a60:	00e787b3          	add	a5,a5,a4
   11a64:	00279793          	slli	a5,a5,0x2
   11a68:	00f687b3          	add	a5,a3,a5
   11a6c:	0047a603          	lw	a2,4(a5)
   11a70:	000157b7          	lui	a5,0x15
   11a74:	51078693          	addi	a3,a5,1296 # 15510 <astPlicReg>
   11a78:	fe842703          	lw	a4,-24(s0)
   11a7c:	00070793          	mv	a5,a4
   11a80:	00179793          	slli	a5,a5,0x1
   11a84:	00e787b3          	add	a5,a5,a4
   11a88:	00279793          	slli	a5,a5,0x2
   11a8c:	00f687b3          	add	a5,a3,a5
   11a90:	0087a783          	lw	a5,8(a5)
   11a94:	00078513          	mv	a0,a5
   11a98:	000600e7          	jalr	a2
D:\CreateIC\01_CPIPC\riscv\RISCV_ENC_20220421\Firmware_true\app_prj\app_demo\Debug/../src/Bsp/Driver/hme_plic.c:284
    	PlicFinishNotice(usIntrId);
   11a9c:	fe045783          	lhu	a5,-32(s0)
   11aa0:	00078513          	mv	a0,a5
   11aa4:	e6cff0ef          	jal	ra,11110 <PlicFinishNotice>
D:\CreateIC\01_CPIPC\riscv\RISCV_ENC_20220421\Firmware_true\app_prj\app_demo\Debug/../src/Bsp/Driver/hme_plic.c:285
    	PlicThresholdSet(ulThresholdVal);
   11aa8:	fdc44783          	lbu	a5,-36(s0)
   11aac:	00078513          	mv	a0,a5
   11ab0:	c1dff0ef          	jal	ra,116cc <PlicThresholdSet>
   11ab4:	0080006f          	j	11abc <ExternalInterruptExcute+0x1e0>
D:\CreateIC\01_CPIPC\riscv\RISCV_ENC_20220421\Firmware_true\app_prj\app_demo\Debug/../src/Bsp/Driver/hme_plic.c:289
    }
    else
    {
    	PlicErrExcute();
   11ab8:	018000ef          	jal	ra,11ad0 <PlicErrExcute>
D:\CreateIC\01_CPIPC\riscv\RISCV_ENC_20220421\Firmware_true\app_prj\app_demo\Debug/../src/Bsp/Driver/hme_plic.c:291
    }
}
   11abc:	00000013          	nop
   11ac0:	02c12083          	lw	ra,44(sp)
   11ac4:	02812403          	lw	s0,40(sp)
   11ac8:	03010113          	addi	sp,sp,48
   11acc:	00008067          	ret

00011ad0 <PlicErrExcute>:
PlicErrExcute():
D:\CreateIC\01_CPIPC\riscv\RISCV_ENC_20220421\Firmware_true\app_prj\app_demo\Debug/../src/Bsp/Driver/hme_plic.c:295


void PlicErrExcute(void)
{
   11ad0:	ff010113          	addi	sp,sp,-16
   11ad4:	00112623          	sw	ra,12(sp)
   11ad8:	00812423          	sw	s0,8(sp)
   11adc:	01010413          	addi	s0,sp,16
D:\CreateIC\01_CPIPC\riscv\RISCV_ENC_20220421\Firmware_true\app_prj\app_demo\Debug/../src/Bsp/Driver/hme_plic.c:296
	printf("\n __PLIC Excute Err! \n");
   11ae0:	000157b7          	lui	a5,0x15
   11ae4:	0e878513          	addi	a0,a5,232 # 150e8 <__init_array_end+0x7c>
   11ae8:	3b0020ef          	jal	ra,13e98 <puts>
D:\CreateIC\01_CPIPC\riscv\RISCV_ENC_20220421\Firmware_true\app_prj\app_demo\Debug/../src/Bsp/Driver/hme_plic.c:297
}
   11aec:	00000013          	nop
   11af0:	00c12083          	lw	ra,12(sp)
   11af4:	00812403          	lw	s0,8(sp)
   11af8:	01010113          	addi	sp,sp,16
   11afc:	00008067          	ret

00011b00 <MachineTimerObjStructDeInit>:
MachineTimerObjStructDeInit():
D:\CreateIC\01_CPIPC\riscv\RISCV_ENC_20220421\Firmware_true\app_prj\app_demo\Debug/../src/Bsp/Driver/hme_timer.c:19
 * @brief  MachineTimer结构体默认初始化
 * @param  pstTimerObj：TImer对象
 * @retval 无
*****************************************************************/
void MachineTimerObjStructDeInit(PST_TIMER_ATTR pstTimerObj)
{
   11b00:	fe010113          	addi	sp,sp,-32
   11b04:	00112e23          	sw	ra,28(sp)
   11b08:	00812c23          	sw	s0,24(sp)
   11b0c:	02010413          	addi	s0,sp,32
   11b10:	fea42623          	sw	a0,-20(s0)
D:\CreateIC\01_CPIPC\riscv\RISCV_ENC_20220421\Firmware_true\app_prj\app_demo\Debug/../src/Bsp/Driver/hme_timer.c:20
	assert_param(NULL != pstTimerObj);
   11b14:	fec42783          	lw	a5,-20(s0)
   11b18:	00079a63          	bnez	a5,11b2c <MachineTimerObjStructDeInit+0x2c>
D:\CreateIC\01_CPIPC\riscv\RISCV_ENC_20220421\Firmware_true\app_prj\app_demo\Debug/../src/Bsp/Driver/hme_timer.c:20 (discriminator 1)
   11b1c:	01400593          	li	a1,20
   11b20:	000157b7          	lui	a5,0x15
   11b24:	10078513          	addi	a0,a5,256 # 15100 <__init_array_end+0x94>
   11b28:	059010ef          	jal	ra,13380 <assert_failed>
D:\CreateIC\01_CPIPC\riscv\RISCV_ENC_20220421\Firmware_true\app_prj\app_demo\Debug/../src/Bsp/Driver/hme_timer.c:22

    pstTimerObj->usDevId = DEF_MACHINE_TIMER_ID;
   11b2c:	fec42783          	lw	a5,-20(s0)
   11b30:	00079023          	sh	zero,0(a5)
D:\CreateIC\01_CPIPC\riscv\RISCV_ENC_20220421\Firmware_true\app_prj\app_demo\Debug/../src/Bsp/Driver/hme_timer.c:23
    pstTimerObj->ulCurTimerL = 0;
   11b34:	fec42783          	lw	a5,-20(s0)
   11b38:	0007a423          	sw	zero,8(a5)
D:\CreateIC\01_CPIPC\riscv\RISCV_ENC_20220421\Firmware_true\app_prj\app_demo\Debug/../src/Bsp/Driver/hme_timer.c:24
    pstTimerObj->ulCurTimerH = 0;
   11b3c:	fec42783          	lw	a5,-20(s0)
   11b40:	0007a623          	sw	zero,12(a5)
D:\CreateIC\01_CPIPC\riscv\RISCV_ENC_20220421\Firmware_true\app_prj\app_demo\Debug/../src/Bsp/Driver/hme_timer.c:25
    pstTimerObj->stPlicCfgParam.ucIntrEnFlage = ENABLE;
   11b44:	fec42783          	lw	a5,-20(s0)
   11b48:	00100713          	li	a4,1
   11b4c:	00e78823          	sb	a4,16(a5)
D:\CreateIC\01_CPIPC\riscv\RISCV_ENC_20220421\Firmware_true\app_prj\app_demo\Debug/../src/Bsp/Driver/hme_timer.c:26
    pstTimerObj->stPlicCfgParam.ucPriority = EN_PRIORITY_1;
   11b50:	fec42783          	lw	a5,-20(s0)
   11b54:	00100713          	li	a4,1
   11b58:	00e788a3          	sb	a4,17(a5)
D:\CreateIC\01_CPIPC\riscv\RISCV_ENC_20220421\Firmware_true\app_prj\app_demo\Debug/../src/Bsp/Driver/hme_timer.c:27
    pstTimerObj->ulIntrPeriod = DEF_TIMER_PERIOD;
   11b5c:	fec42783          	lw	a5,-20(s0)
   11b60:	027bd737          	lui	a4,0x27bd
   11b64:	86a70713          	addi	a4,a4,-1942 # 27bc86a <__freertos_irq_stack_top+0x277e25a>
   11b68:	00e7a223          	sw	a4,4(a5)
D:\CreateIC\01_CPIPC\riscv\RISCV_ENC_20220421\Firmware_true\app_prj\app_demo\Debug/../src/Bsp/Driver/hme_timer.c:28
    pstTimerObj->pstCtrller = DEV_MACH_TIMER;
   11b6c:	fec42783          	lw	a5,-20(s0)
   11b70:	f8001737          	lui	a4,0xf8001
   11b74:	00e7aa23          	sw	a4,20(a5)
D:\CreateIC\01_CPIPC\riscv\RISCV_ENC_20220421\Firmware_true\app_prj\app_demo\Debug/../src/Bsp/Driver/hme_timer.c:29
}
   11b78:	00000013          	nop
   11b7c:	01c12083          	lw	ra,28(sp)
   11b80:	01812403          	lw	s0,24(sp)
   11b84:	02010113          	addi	sp,sp,32
   11b88:	00008067          	ret

00011b8c <MachineTimerObjConfigInit>:
MachineTimerObjConfigInit():
D:\CreateIC\01_CPIPC\riscv\RISCV_ENC_20220421\Firmware_true\app_prj\app_demo\Debug/../src/Bsp/Driver/hme_timer.c:57
 * @brief  MachineTimer寄存器参数初始化
 * @param  pstTimerObj：TImer对象
 * @retval 无
*****************************************************************/
void MachineTimerObjConfigInit(PST_TIMER_ATTR pstTimerObj)
{
   11b8c:	fd010113          	addi	sp,sp,-48
   11b90:	02112623          	sw	ra,44(sp)
   11b94:	02812423          	sw	s0,40(sp)
   11b98:	03010413          	addi	s0,sp,48
   11b9c:	fca42e23          	sw	a0,-36(s0)
D:\CreateIC\01_CPIPC\riscv\RISCV_ENC_20220421\Firmware_true\app_prj\app_demo\Debug/../src/Bsp/Driver/hme_timer.c:58
	assert_param(NULL != pstTimerObj);
   11ba0:	fdc42783          	lw	a5,-36(s0)
   11ba4:	00079a63          	bnez	a5,11bb8 <MachineTimerObjConfigInit+0x2c>
D:\CreateIC\01_CPIPC\riscv\RISCV_ENC_20220421\Firmware_true\app_prj\app_demo\Debug/../src/Bsp/Driver/hme_timer.c:58 (discriminator 1)
   11ba8:	03a00593          	li	a1,58
   11bac:	000157b7          	lui	a5,0x15
   11bb0:	10078513          	addi	a0,a5,256 # 15100 <__init_array_end+0x94>
   11bb4:	7cc010ef          	jal	ra,13380 <assert_failed>
D:\CreateIC\01_CPIPC\riscv\RISCV_ENC_20220421\Firmware_true\app_prj\app_demo\Debug/../src/Bsp/Driver/hme_timer.c:59
	assert_param(NULL != pstTimerObj->pstCtrller);
   11bb8:	fdc42783          	lw	a5,-36(s0)
   11bbc:	0147a783          	lw	a5,20(a5)
   11bc0:	00079a63          	bnez	a5,11bd4 <MachineTimerObjConfigInit+0x48>
D:\CreateIC\01_CPIPC\riscv\RISCV_ENC_20220421\Firmware_true\app_prj\app_demo\Debug/../src/Bsp/Driver/hme_timer.c:59 (discriminator 1)
   11bc4:	03b00593          	li	a1,59
   11bc8:	000157b7          	lui	a5,0x15
   11bcc:	10078513          	addi	a0,a5,256 # 15100 <__init_array_end+0x94>
   11bd0:	7b0010ef          	jal	ra,13380 <assert_failed>
D:\CreateIC\01_CPIPC\riscv\RISCV_ENC_20220421\Firmware_true\app_prj\app_demo\Debug/../src/Bsp/Driver/hme_timer.c:60
	assert_param(pstTimerObj->usDevId == DEF_MACHINE_TIMER_ID);
   11bd4:	fdc42783          	lw	a5,-36(s0)
   11bd8:	0007d783          	lhu	a5,0(a5)
   11bdc:	00078a63          	beqz	a5,11bf0 <MachineTimerObjConfigInit+0x64>
D:\CreateIC\01_CPIPC\riscv\RISCV_ENC_20220421\Firmware_true\app_prj\app_demo\Debug/../src/Bsp/Driver/hme_timer.c:60 (discriminator 1)
   11be0:	03c00593          	li	a1,60
   11be4:	000157b7          	lui	a5,0x15
   11be8:	10078513          	addi	a0,a5,256 # 15100 <__init_array_end+0x94>
   11bec:	794010ef          	jal	ra,13380 <assert_failed>
D:\CreateIC\01_CPIPC\riscv\RISCV_ENC_20220421\Firmware_true\app_prj\app_demo\Debug/../src/Bsp/Driver/hme_timer.c:62

	ST_PLIC_REG_PARAM stTimerRegParam = {0};
   11bf0:	fe042023          	sw	zero,-32(s0)
   11bf4:	fe042223          	sw	zero,-28(s0)
   11bf8:	fe042423          	sw	zero,-24(s0)
D:\CreateIC\01_CPIPC\riscv\RISCV_ENC_20220421\Firmware_true\app_prj\app_demo\Debug/../src/Bsp/Driver/hme_timer.c:63
	uint32_t ulTimerEnVal= 0;
   11bfc:	fe042623          	sw	zero,-20(s0)
D:\CreateIC\01_CPIPC\riscv\RISCV_ENC_20220421\Firmware_true\app_prj\app_demo\Debug/../src/Bsp/Driver/hme_timer.c:65

    ulTimerEnVal = DevIntrEnTableGet(pstTimerObj->usDevId);
   11c00:	fdc42783          	lw	a5,-36(s0)
   11c04:	0007d783          	lhu	a5,0(a5)
   11c08:	00078513          	mv	a0,a5
   11c0c:	f10ff0ef          	jal	ra,1131c <DevIntrEnTableGet>
   11c10:	fea42623          	sw	a0,-20(s0)
D:\CreateIC\01_CPIPC\riscv\RISCV_ENC_20220421\Firmware_true\app_prj\app_demo\Debug/../src/Bsp/Driver/hme_timer.c:67

    stTimerRegParam.usIntrId    = DevIntrIdTableGet(pstTimerObj->usDevId);
   11c14:	fdc42783          	lw	a5,-36(s0)
   11c18:	0007d783          	lhu	a5,0(a5)
   11c1c:	00078513          	mv	a0,a5
   11c20:	d24ff0ef          	jal	ra,11144 <DevIntrIdTableGet>
   11c24:	00050793          	mv	a5,a0
   11c28:	fef41023          	sh	a5,-32(s0)
D:\CreateIC\01_CPIPC\riscv\RISCV_ENC_20220421\Firmware_true\app_prj\app_demo\Debug/../src/Bsp/Driver/hme_timer.c:68
    stTimerRegParam.IntrHander  = PlicMachineTimerHandle;
   11c2c:	000127b7          	lui	a5,0x12
   11c30:	f1878793          	addi	a5,a5,-232 # 11f18 <PlicMachineTimerHandle>
   11c34:	fef42223          	sw	a5,-28(s0)
D:\CreateIC\01_CPIPC\riscv\RISCV_ENC_20220421\Firmware_true\app_prj\app_demo\Debug/../src/Bsp/Driver/hme_timer.c:69
    stTimerRegParam.ptrBackCall = pstTimerObj;
   11c38:	fdc42783          	lw	a5,-36(s0)
   11c3c:	fef42423          	sw	a5,-24(s0)
D:\CreateIC\01_CPIPC\riscv\RISCV_ENC_20220421\Firmware_true\app_prj\app_demo\Debug/../src/Bsp/Driver/hme_timer.c:71

    if (pstTimerObj->stPlicCfgParam.ucIntrEnFlage)
   11c40:	fdc42783          	lw	a5,-36(s0)
   11c44:	0107c783          	lbu	a5,16(a5)
   11c48:	04078063          	beqz	a5,11c88 <MachineTimerObjConfigInit+0xfc>
D:\CreateIC\01_CPIPC\riscv\RISCV_ENC_20220421\Firmware_true\app_prj\app_demo\Debug/../src/Bsp/Driver/hme_timer.c:74
    {
    	//intr Priority set
    	IntrPrioritySet(pstTimerObj->usDevId, pstTimerObj->stPlicCfgParam.ucPriority);
   11c4c:	fdc42783          	lw	a5,-36(s0)
   11c50:	0007d703          	lhu	a4,0(a5)
   11c54:	fdc42783          	lw	a5,-36(s0)
   11c58:	0117c783          	lbu	a5,17(a5)
   11c5c:	00078593          	mv	a1,a5
   11c60:	00070513          	mv	a0,a4
   11c64:	fa4ff0ef          	jal	ra,11408 <IntrPrioritySet>
D:\CreateIC\01_CPIPC\riscv\RISCV_ENC_20220421\Firmware_true\app_prj\app_demo\Debug/../src/Bsp/Driver/hme_timer.c:76
        //intr handle register
    	PlicIntrHandleRegister(&stTimerRegParam, pstTimerObj->usDevId);
   11c68:	fdc42783          	lw	a5,-36(s0)
   11c6c:	0007d703          	lhu	a4,0(a5)
   11c70:	fe040793          	addi	a5,s0,-32
   11c74:	00070593          	mv	a1,a4
   11c78:	00078513          	mv	a0,a5
   11c7c:	aedff0ef          	jal	ra,11768 <PlicIntrHandleRegister>
D:\CreateIC\01_CPIPC\riscv\RISCV_ENC_20220421\Firmware_true\app_prj\app_demo\Debug/../src/Bsp/Driver/hme_timer.c:78
    	//intr handle enable
    	PlicEnableSet(ulTimerEnVal);
   11c80:	fec42503          	lw	a0,-20(s0)
   11c84:	9d5ff0ef          	jal	ra,11658 <PlicEnableSet>
D:\CreateIC\01_CPIPC\riscv\RISCV_ENC_20220421\Firmware_true\app_prj\app_demo\Debug/../src/Bsp/Driver/hme_timer.c:81
    }

    MachineTimerCmpAdjuct(pstTimerObj);
   11c88:	fdc42503          	lw	a0,-36(s0)
   11c8c:	018000ef          	jal	ra,11ca4 <MachineTimerCmpAdjuct>
D:\CreateIC\01_CPIPC\riscv\RISCV_ENC_20220421\Firmware_true\app_prj\app_demo\Debug/../src/Bsp/Driver/hme_timer.c:82
}
   11c90:	00000013          	nop
   11c94:	02c12083          	lw	ra,44(sp)
   11c98:	02812403          	lw	s0,40(sp)
   11c9c:	03010113          	addi	sp,sp,48
   11ca0:	00008067          	ret

00011ca4 <MachineTimerCmpAdjuct>:
MachineTimerCmpAdjuct():
D:\CreateIC\01_CPIPC\riscv\RISCV_ENC_20220421\Firmware_true\app_prj\app_demo\Debug/../src/Bsp/Driver/hme_timer.c:106
 * @brief  MachineTimer比较寄存器调整
 * @param  pstTimerObj：TImer对象
 * @retval 无
*****************************************************************/
void MachineTimerCmpAdjuct(PST_TIMER_ATTR pstTimerObj)
{
   11ca4:	fb010113          	addi	sp,sp,-80
   11ca8:	04112623          	sw	ra,76(sp)
   11cac:	04812423          	sw	s0,72(sp)
   11cb0:	05212223          	sw	s2,68(sp)
   11cb4:	05312023          	sw	s3,64(sp)
   11cb8:	03412e23          	sw	s4,60(sp)
   11cbc:	03512c23          	sw	s5,56(sp)
   11cc0:	03612a23          	sw	s6,52(sp)
   11cc4:	03712823          	sw	s7,48(sp)
   11cc8:	03812623          	sw	s8,44(sp)
   11ccc:	03912423          	sw	s9,40(sp)
   11cd0:	05010413          	addi	s0,sp,80
   11cd4:	faa42e23          	sw	a0,-68(s0)
D:\CreateIC\01_CPIPC\riscv\RISCV_ENC_20220421\Firmware_true\app_prj\app_demo\Debug/../src/Bsp/Driver/hme_timer.c:107
	assert_param(NULL != pstTimerObj);
   11cd8:	fbc42783          	lw	a5,-68(s0)
   11cdc:	00079a63          	bnez	a5,11cf0 <MachineTimerCmpAdjuct+0x4c>
D:\CreateIC\01_CPIPC\riscv\RISCV_ENC_20220421\Firmware_true\app_prj\app_demo\Debug/../src/Bsp/Driver/hme_timer.c:107 (discriminator 1)
   11ce0:	06b00593          	li	a1,107
   11ce4:	000157b7          	lui	a5,0x15
   11ce8:	10078513          	addi	a0,a5,256 # 15100 <__init_array_end+0x94>
   11cec:	694010ef          	jal	ra,13380 <assert_failed>
D:\CreateIC\01_CPIPC\riscv\RISCV_ENC_20220421\Firmware_true\app_prj\app_demo\Debug/../src/Bsp/Driver/hme_timer.c:108
	assert_param(NULL != pstTimerObj->pstCtrller);
   11cf0:	fbc42783          	lw	a5,-68(s0)
   11cf4:	0147a783          	lw	a5,20(a5)
   11cf8:	00079a63          	bnez	a5,11d0c <MachineTimerCmpAdjuct+0x68>
D:\CreateIC\01_CPIPC\riscv\RISCV_ENC_20220421\Firmware_true\app_prj\app_demo\Debug/../src/Bsp/Driver/hme_timer.c:108 (discriminator 1)
   11cfc:	06c00593          	li	a1,108
   11d00:	000157b7          	lui	a5,0x15
   11d04:	10078513          	addi	a0,a5,256 # 15100 <__init_array_end+0x94>
   11d08:	678010ef          	jal	ra,13380 <assert_failed>
D:\CreateIC\01_CPIPC\riscv\RISCV_ENC_20220421\Firmware_true\app_prj\app_demo\Debug/../src/Bsp/Driver/hme_timer.c:110

	uint32_t ulCurTimerL = 0;
   11d0c:	fc042623          	sw	zero,-52(s0)
D:\CreateIC\01_CPIPC\riscv\RISCV_ENC_20220421\Firmware_true\app_prj\app_demo\Debug/../src/Bsp/Driver/hme_timer.c:111
	uint32_t ulCurTimerH = 0;
   11d10:	fc042423          	sw	zero,-56(s0)
D:\CreateIC\01_CPIPC\riscv\RISCV_ENC_20220421\Firmware_true\app_prj\app_demo\Debug/../src/Bsp/Driver/hme_timer.c:112
	uint64_t ulCurTimer = 0;
   11d14:	00000793          	li	a5,0
   11d18:	00000813          	li	a6,0
   11d1c:	fcf42023          	sw	a5,-64(s0)
   11d20:	fd042223          	sw	a6,-60(s0)
D:\CreateIC\01_CPIPC\riscv\RISCV_ENC_20220421\Firmware_true\app_prj\app_demo\Debug/../src/Bsp/Driver/hme_timer.c:114

    ulCurTimerL = MachineTimerCtrllerCurTimeLGet(pstTimerObj->pstCtrller);
   11d24:	fbc42783          	lw	a5,-68(s0)
   11d28:	0147a783          	lw	a5,20(a5)
   11d2c:	00078513          	mv	a0,a5
   11d30:	0d0000ef          	jal	ra,11e00 <MachineTimerCtrllerCurTimeLGet>
   11d34:	fca42623          	sw	a0,-52(s0)
D:\CreateIC\01_CPIPC\riscv\RISCV_ENC_20220421\Firmware_true\app_prj\app_demo\Debug/../src/Bsp/Driver/hme_timer.c:115
    ulCurTimerH = MachineTimerCtrllerCurTimeHGet(pstTimerObj->pstCtrller);
   11d38:	fbc42783          	lw	a5,-68(s0)
   11d3c:	0147a783          	lw	a5,20(a5)
   11d40:	00078513          	mv	a0,a5
   11d44:	104000ef          	jal	ra,11e48 <MachineTimerCtrllerCurTimeHGet>
   11d48:	fca42423          	sw	a0,-56(s0)
D:\CreateIC\01_CPIPC\riscv\RISCV_ENC_20220421\Firmware_true\app_prj\app_demo\Debug/../src/Bsp/Driver/hme_timer.c:116
    ulCurTimer = (((uint64_t)ulCurTimerH << 32) | ulCurTimerL);
   11d4c:	fc842783          	lw	a5,-56(s0)
   11d50:	00078c13          	mv	s8,a5
   11d54:	00000c93          	li	s9,0
   11d58:	000c1993          	slli	s3,s8,0x0
   11d5c:	00000913          	li	s2,0
   11d60:	fcc42783          	lw	a5,-52(s0)
   11d64:	00078b13          	mv	s6,a5
   11d68:	00000b93          	li	s7,0
   11d6c:	016967b3          	or	a5,s2,s6
   11d70:	fcf42023          	sw	a5,-64(s0)
   11d74:	0179e7b3          	or	a5,s3,s7
   11d78:	fcf42223          	sw	a5,-60(s0)
D:\CreateIC\01_CPIPC\riscv\RISCV_ENC_20220421\Firmware_true\app_prj\app_demo\Debug/../src/Bsp/Driver/hme_timer.c:117
    ulCurTimer = ulCurTimer + pstTimerObj->ulIntrPeriod;
   11d7c:	fbc42783          	lw	a5,-68(s0)
   11d80:	0047a783          	lw	a5,4(a5)
   11d84:	00078a13          	mv	s4,a5
   11d88:	00000a93          	li	s5,0
   11d8c:	fc042683          	lw	a3,-64(s0)
   11d90:	fc442703          	lw	a4,-60(s0)
   11d94:	014687b3          	add	a5,a3,s4
   11d98:	00078613          	mv	a2,a5
   11d9c:	00d63633          	sltu	a2,a2,a3
   11da0:	01570833          	add	a6,a4,s5
   11da4:	01060733          	add	a4,a2,a6
   11da8:	00070813          	mv	a6,a4
   11dac:	fcf42023          	sw	a5,-64(s0)
   11db0:	fd042223          	sw	a6,-60(s0)
D:\CreateIC\01_CPIPC\riscv\RISCV_ENC_20220421\Firmware_true\app_prj\app_demo\Debug/../src/Bsp/Driver/hme_timer.c:118
    MachineTimerCtrllerCmpSet(pstTimerObj->pstCtrller, ulCurTimer);
   11db4:	fbc42783          	lw	a5,-68(s0)
   11db8:	0147a783          	lw	a5,20(a5)
   11dbc:	fc042583          	lw	a1,-64(s0)
   11dc0:	fc442603          	lw	a2,-60(s0)
   11dc4:	00078513          	mv	a0,a5
   11dc8:	0c8000ef          	jal	ra,11e90 <MachineTimerCtrllerCmpSet>
D:\CreateIC\01_CPIPC\riscv\RISCV_ENC_20220421\Firmware_true\app_prj\app_demo\Debug/../src/Bsp/Driver/hme_timer.c:119
}
   11dcc:	00000013          	nop
   11dd0:	04c12083          	lw	ra,76(sp)
   11dd4:	04812403          	lw	s0,72(sp)
   11dd8:	04412903          	lw	s2,68(sp)
   11ddc:	04012983          	lw	s3,64(sp)
   11de0:	03c12a03          	lw	s4,60(sp)
   11de4:	03812a83          	lw	s5,56(sp)
   11de8:	03412b03          	lw	s6,52(sp)
   11dec:	03012b83          	lw	s7,48(sp)
   11df0:	02c12c03          	lw	s8,44(sp)
   11df4:	02812c83          	lw	s9,40(sp)
   11df8:	05010113          	addi	sp,sp,80
   11dfc:	00008067          	ret

00011e00 <MachineTimerCtrllerCurTimeLGet>:
MachineTimerCtrllerCurTimeLGet():
D:\CreateIC\01_CPIPC\riscv\RISCV_ENC_20220421\Firmware_true\app_prj\app_demo\Debug/../src/Bsp/Driver/hme_timer.c:127
 * @brief  MachineTimer控制器当前计数值低位获取
 * @param  ptrTimerCtrller：Timer控制器
 * @retval uint32_t：返回低位计数值
*****************************************************************/
uint32_t MachineTimerCtrllerCurTimeLGet(PST_MACH_TIME_RegDef ptrTimerCtrller)
{
   11e00:	fe010113          	addi	sp,sp,-32
   11e04:	00112e23          	sw	ra,28(sp)
   11e08:	00812c23          	sw	s0,24(sp)
   11e0c:	02010413          	addi	s0,sp,32
   11e10:	fea42623          	sw	a0,-20(s0)
D:\CreateIC\01_CPIPC\riscv\RISCV_ENC_20220421\Firmware_true\app_prj\app_demo\Debug/../src/Bsp/Driver/hme_timer.c:128
	assert_param(NULL != ptrTimerCtrller);
   11e14:	fec42783          	lw	a5,-20(s0)
   11e18:	00079a63          	bnez	a5,11e2c <MachineTimerCtrllerCurTimeLGet+0x2c>
D:\CreateIC\01_CPIPC\riscv\RISCV_ENC_20220421\Firmware_true\app_prj\app_demo\Debug/../src/Bsp/Driver/hme_timer.c:128 (discriminator 1)
   11e1c:	08000593          	li	a1,128
   11e20:	000157b7          	lui	a5,0x15
   11e24:	10078513          	addi	a0,a5,256 # 15100 <__init_array_end+0x94>
   11e28:	558010ef          	jal	ra,13380 <assert_failed>
D:\CreateIC\01_CPIPC\riscv\RISCV_ENC_20220421\Firmware_true\app_prj\app_demo\Debug/../src/Bsp/Driver/hme_timer.c:129
	return ptrTimerCtrller->CUR_CNTL;
   11e2c:	fec42783          	lw	a5,-20(s0)
   11e30:	0007a783          	lw	a5,0(a5)
D:\CreateIC\01_CPIPC\riscv\RISCV_ENC_20220421\Firmware_true\app_prj\app_demo\Debug/../src/Bsp/Driver/hme_timer.c:130
}
   11e34:	00078513          	mv	a0,a5
   11e38:	01c12083          	lw	ra,28(sp)
   11e3c:	01812403          	lw	s0,24(sp)
   11e40:	02010113          	addi	sp,sp,32
   11e44:	00008067          	ret

00011e48 <MachineTimerCtrllerCurTimeHGet>:
MachineTimerCtrllerCurTimeHGet():
D:\CreateIC\01_CPIPC\riscv\RISCV_ENC_20220421\Firmware_true\app_prj\app_demo\Debug/../src/Bsp/Driver/hme_timer.c:138
 * @brief  MachineTimer控制器当前计数值高位获取
 * @param  ptrTimerCtrller：Timer控制器
 * @retval uint32_t：返回高位计数值
*****************************************************************/
uint32_t MachineTimerCtrllerCurTimeHGet(PST_MACH_TIME_RegDef ptrTimerCtrller)
{
   11e48:	fe010113          	addi	sp,sp,-32
   11e4c:	00112e23          	sw	ra,28(sp)
   11e50:	00812c23          	sw	s0,24(sp)
   11e54:	02010413          	addi	s0,sp,32
   11e58:	fea42623          	sw	a0,-20(s0)
D:\CreateIC\01_CPIPC\riscv\RISCV_ENC_20220421\Firmware_true\app_prj\app_demo\Debug/../src/Bsp/Driver/hme_timer.c:139
	assert_param(NULL != ptrTimerCtrller);
   11e5c:	fec42783          	lw	a5,-20(s0)
   11e60:	00079a63          	bnez	a5,11e74 <MachineTimerCtrllerCurTimeHGet+0x2c>
D:\CreateIC\01_CPIPC\riscv\RISCV_ENC_20220421\Firmware_true\app_prj\app_demo\Debug/../src/Bsp/Driver/hme_timer.c:139 (discriminator 1)
   11e64:	08b00593          	li	a1,139
   11e68:	000157b7          	lui	a5,0x15
   11e6c:	10078513          	addi	a0,a5,256 # 15100 <__init_array_end+0x94>
   11e70:	510010ef          	jal	ra,13380 <assert_failed>
D:\CreateIC\01_CPIPC\riscv\RISCV_ENC_20220421\Firmware_true\app_prj\app_demo\Debug/../src/Bsp/Driver/hme_timer.c:140
	return ptrTimerCtrller->CUR_CNTH;
   11e74:	fec42783          	lw	a5,-20(s0)
   11e78:	0047a783          	lw	a5,4(a5)
D:\CreateIC\01_CPIPC\riscv\RISCV_ENC_20220421\Firmware_true\app_prj\app_demo\Debug/../src/Bsp/Driver/hme_timer.c:141
}
   11e7c:	00078513          	mv	a0,a5
   11e80:	01c12083          	lw	ra,28(sp)
   11e84:	01812403          	lw	s0,24(sp)
   11e88:	02010113          	addi	sp,sp,32
   11e8c:	00008067          	ret

00011e90 <MachineTimerCtrllerCmpSet>:
MachineTimerCtrllerCmpSet():
D:\CreateIC\01_CPIPC\riscv\RISCV_ENC_20220421\Firmware_true\app_prj\app_demo\Debug/../src/Bsp/Driver/hme_timer.c:149
 * @brief  MachineTimer控制器比较寄存器设置
 * @param  ptrTimerCtrller：Timer控制器， ullComVal:比较值的配置参数
 * @retval 无
*****************************************************************/
void MachineTimerCtrllerCmpSet(PST_MACH_TIME_RegDef ptrTimerCtrller, uint64_t ullComVal)
{
   11e90:	fd010113          	addi	sp,sp,-48
   11e94:	02112623          	sw	ra,44(sp)
   11e98:	02812423          	sw	s0,40(sp)
   11e9c:	03212223          	sw	s2,36(sp)
   11ea0:	03312023          	sw	s3,32(sp)
   11ea4:	03010413          	addi	s0,sp,48
   11ea8:	fca42e23          	sw	a0,-36(s0)
   11eac:	fcb42823          	sw	a1,-48(s0)
   11eb0:	fcc42a23          	sw	a2,-44(s0)
D:\CreateIC\01_CPIPC\riscv\RISCV_ENC_20220421\Firmware_true\app_prj\app_demo\Debug/../src/Bsp/Driver/hme_timer.c:150
	assert_param(NULL != ptrTimerCtrller);
   11eb4:	fdc42783          	lw	a5,-36(s0)
   11eb8:	00079a63          	bnez	a5,11ecc <MachineTimerCtrllerCmpSet+0x3c>
D:\CreateIC\01_CPIPC\riscv\RISCV_ENC_20220421\Firmware_true\app_prj\app_demo\Debug/../src/Bsp/Driver/hme_timer.c:150 (discriminator 1)
   11ebc:	09600593          	li	a1,150
   11ec0:	000157b7          	lui	a5,0x15
   11ec4:	10078513          	addi	a0,a5,256 # 15100 <__init_array_end+0x94>
   11ec8:	4b8010ef          	jal	ra,13380 <assert_failed>
D:\CreateIC\01_CPIPC\riscv\RISCV_ENC_20220421\Firmware_true\app_prj\app_demo\Debug/../src/Bsp/Driver/hme_timer.c:151
	uint32_t ulCurTimerL = ullComVal & 0xFFFFFFFF;
   11ecc:	fd042783          	lw	a5,-48(s0)
   11ed0:	fef42623          	sw	a5,-20(s0)
D:\CreateIC\01_CPIPC\riscv\RISCV_ENC_20220421\Firmware_true\app_prj\app_demo\Debug/../src/Bsp/Driver/hme_timer.c:152
	uint32_t ulCurTimerH = (ullComVal >> 32) & 0xFFFFFFFF;
   11ed4:	fd442783          	lw	a5,-44(s0)
   11ed8:	0007d913          	srli	s2,a5,0x0
   11edc:	00000993          	li	s3,0
   11ee0:	ff242423          	sw	s2,-24(s0)
D:\CreateIC\01_CPIPC\riscv\RISCV_ENC_20220421\Firmware_true\app_prj\app_demo\Debug/../src/Bsp/Driver/hme_timer.c:154

	ptrTimerCtrller->CMPH = ulCurTimerH;
   11ee4:	fdc42783          	lw	a5,-36(s0)
   11ee8:	fe842703          	lw	a4,-24(s0)
   11eec:	00e7a623          	sw	a4,12(a5)
D:\CreateIC\01_CPIPC\riscv\RISCV_ENC_20220421\Firmware_true\app_prj\app_demo\Debug/../src/Bsp/Driver/hme_timer.c:155
	ptrTimerCtrller->CMPL = ulCurTimerL;
   11ef0:	fdc42783          	lw	a5,-36(s0)
   11ef4:	fec42703          	lw	a4,-20(s0)
   11ef8:	00e7a423          	sw	a4,8(a5)
D:\CreateIC\01_CPIPC\riscv\RISCV_ENC_20220421\Firmware_true\app_prj\app_demo\Debug/../src/Bsp/Driver/hme_timer.c:156
}
   11efc:	00000013          	nop
   11f00:	02c12083          	lw	ra,44(sp)
   11f04:	02812403          	lw	s0,40(sp)
   11f08:	02412903          	lw	s2,36(sp)
   11f0c:	02012983          	lw	s3,32(sp)
   11f10:	03010113          	addi	sp,sp,48
   11f14:	00008067          	ret

00011f18 <PlicMachineTimerHandle>:
PlicMachineTimerHandle():
D:\CreateIC\01_CPIPC\riscv\RISCV_ENC_20220421\Firmware_true\app_prj\app_demo\Debug/../src/Bsp/Driver/hme_timer.c:164
 * @brief  MachineTimer控制器PLIC中断函数接口
 * @param  ptrBackCall：回调参数
 * @retval 无
*****************************************************************/
void PlicMachineTimerHandle(void * ptrBackCall)
{
   11f18:	fd010113          	addi	sp,sp,-48
   11f1c:	02112623          	sw	ra,44(sp)
   11f20:	02812423          	sw	s0,40(sp)
   11f24:	03010413          	addi	s0,sp,48
   11f28:	fca42e23          	sw	a0,-36(s0)
D:\CreateIC\01_CPIPC\riscv\RISCV_ENC_20220421\Firmware_true\app_prj\app_demo\Debug/../src/Bsp/Driver/hme_timer.c:165
	PST_TIMER_ATTR pstTimerObj = NULL;
   11f2c:	fe042623          	sw	zero,-20(s0)
D:\CreateIC\01_CPIPC\riscv\RISCV_ENC_20220421\Firmware_true\app_prj\app_demo\Debug/../src/Bsp/Driver/hme_timer.c:166
	if (NULL != ptrBackCall)
   11f30:	fdc42783          	lw	a5,-36(s0)
   11f34:	00078a63          	beqz	a5,11f48 <PlicMachineTimerHandle+0x30>
D:\CreateIC\01_CPIPC\riscv\RISCV_ENC_20220421\Firmware_true\app_prj\app_demo\Debug/../src/Bsp/Driver/hme_timer.c:168
	{
		pstTimerObj = (PST_TIMER_ATTR)ptrBackCall;
   11f38:	fdc42783          	lw	a5,-36(s0)
   11f3c:	fef42623          	sw	a5,-20(s0)
D:\CreateIC\01_CPIPC\riscv\RISCV_ENC_20220421\Firmware_true\app_prj\app_demo\Debug/../src/Bsp/Driver/hme_timer.c:169
		MachineTimerCmpAdjuct(pstTimerObj);
   11f40:	fec42503          	lw	a0,-20(s0)
   11f44:	d61ff0ef          	jal	ra,11ca4 <MachineTimerCmpAdjuct>
D:\CreateIC\01_CPIPC\riscv\RISCV_ENC_20220421\Firmware_true\app_prj\app_demo\Debug/../src/Bsp/Driver/hme_timer.c:171
	}
}
   11f48:	00000013          	nop
   11f4c:	02c12083          	lw	ra,44(sp)
   11f50:	02812403          	lw	s0,40(sp)
   11f54:	03010113          	addi	sp,sp,48
   11f58:	00008067          	ret

00011f5c <UartStructDeInit>:
UartStructDeInit():
D:\CreateIC\01_CPIPC\riscv\RISCV_ENC_20220421\Firmware_true\app_prj\app_demo\Debug/../src/Bsp/Driver/hme_uart.c:33
 * @brief  UART对象结构体参数默认初始化
 * @param  pstUartObj：UART设备对象
 * @retval 无
*****************************************************************/
void UartStructDeInit(PST_UART_ATTR pstUartObj)
{
   11f5c:	fe010113          	addi	sp,sp,-32
   11f60:	00112e23          	sw	ra,28(sp)
   11f64:	00812c23          	sw	s0,24(sp)
   11f68:	02010413          	addi	s0,sp,32
   11f6c:	fea42623          	sw	a0,-20(s0)
D:\CreateIC\01_CPIPC\riscv\RISCV_ENC_20220421\Firmware_true\app_prj\app_demo\Debug/../src/Bsp/Driver/hme_uart.c:34
	assert_param(NULL != pstUartObj);
   11f70:	fec42783          	lw	a5,-20(s0)
   11f74:	00079a63          	bnez	a5,11f88 <UartStructDeInit+0x2c>
D:\CreateIC\01_CPIPC\riscv\RISCV_ENC_20220421\Firmware_true\app_prj\app_demo\Debug/../src/Bsp/Driver/hme_uart.c:34 (discriminator 1)
   11f78:	02200593          	li	a1,34
   11f7c:	000157b7          	lui	a5,0x15
   11f80:	12078513          	addi	a0,a5,288 # 15120 <__init_array_end+0xb4>
   11f84:	3fc010ef          	jal	ra,13380 <assert_failed>
D:\CreateIC\01_CPIPC\riscv\RISCV_ENC_20220421\Firmware_true\app_prj\app_demo\Debug/../src/Bsp/Driver/hme_uart.c:36

	pstUartObj->usDevId = DEF_UART_DEV_ID;
   11f88:	fec42783          	lw	a5,-20(s0)
   11f8c:	00100713          	li	a4,1
   11f90:	00e79023          	sh	a4,0(a5)
D:\CreateIC\01_CPIPC\riscv\RISCV_ENC_20220421\Firmware_true\app_prj\app_demo\Debug/../src/Bsp/Driver/hme_uart.c:37
	pstUartObj->pucSendBuf = NULL;
   11f94:	fec42783          	lw	a5,-20(s0)
   11f98:	0007a223          	sw	zero,4(a5)
D:\CreateIC\01_CPIPC\riscv\RISCV_ENC_20220421\Firmware_true\app_prj\app_demo\Debug/../src/Bsp/Driver/hme_uart.c:38
